:020000040800F2
:10000000D8D8002055C00008D5040008D70400083F
:10001000D9040008DB040008DD040008000000002B
:100020000000000000000000000000009D0100082A
:10003000E104000800000000CD010008E50400080C
:100040006FC000086FC000086FC000086FC00008D4
:100050006FC000086FC000086FC000086FC00008C4
:100060006FC000086FC000086FC000086FC00008B4
:100070006FC000086FC000086FC000086FC00008A4
:100080006FC000086FC000086FC000086FC0000894
:100090006FC000086FC000086FC000086FC0000884
:1000A0006FC000086FC000086FC000086FC0000874
:1000B0006FC000086FC000086FC000086FC0000864
:1000C0006FC000086FC000086FC000086FC0000854
:1000D0006FC000086FC0000851180008971800088A
:1000E0006FC000086FC000086FC000086FC0000834
:1000F0006FC000086FC000086FC000086FC0000824
:100100006FC000086FC000086FC000086FC0000813
:100110006FC000086FC000086FC000086FC0000803
:100120006FC000086FC000086FC000086FC00008F3
:100130006FC00008E90400086FC000086FC0000825
:100140006FC000086FC000086FC000086FC00008D3
:100150006FC000086FC000086FC000086FC00008C3
:100160006FC000086FC000086FC000086FC00008B3
:100170006FC000086FC000086FC000086FC00008A3
:100180006FC000086FC00008DFF80CD00CF0ACFBAB
:1001900000480047B7020008D8D80020194B19685A
:1001A0000868B0E8F00F80F309884FF0000080F392
:1001B00011884EF00D0E70470000000002480068E4
:1001C000006880F3088800DF08ED00E0EFF30980A5
:1001D0000C4B1A6820E9F00F106008B54FF0BF0013
:1001E00080F311880BF039FD4FF0000080F3118887
:1001F000BDE8084019680868B0E8F00F80F3098886
:10020000704700BF9001002001B44FF0BF0080F3A1
:10021000118801BC704701B44FF0000080F31188D1
:1002200001BC704731493248496801600268002AC0
:10023000FBD0002002F0EBFAFA200BF08AFBF8E783
:100240002A492B48496801600268002AFBD0022035
:1002500002F0DDFAFA200BF07CFBF8E710B501F0B4
:10026000B5FD002002F0A2FA002001F017FF0020E7
:1002700001F0ABFE4FF6FF7001F0A0FE01F0ADFE05
:100280001CA1002001F059FB01F0A7FEC0881FA1AE
:1002900001F053FB01F0A1FEC08821A1400001F054
:1002A0004CFB01F09AFEC088BDE8104000EB400016
:1002B0001FA101F042BB1FB5FFF7D0FF00F076FA97
:1002C00000F030F900F09FFB00F0A8FB00200121B6
:1002D000CDE900100290034680221BA10390AFF2EB
:1002E000BB000BF00DFA0BF0F2FBFEE7FC01002067
:1002F000000000202020202020202020202020205E
:10030000202020202020202020000000526563654E
:10031000697665642053657269616C204E756D0065
:1003200020202020202020202020202020202020CD
:1003300020202020202020202020202020202020BD
:1003400020202020000000004C4544340000000024
:100350000CB50022019200925549086840F48030A3
:1003600008604FF4A043086800F400300090019842
:10037000401C0190009810B901989842F3D1086888
:10038000800302D50120009000E00092009801282F
:1003900031D147484030026842F0805202604548FF
:1003A000026842F44042026041480830026802603C
:1003B000026842F400420260026842F4A052026005
:1003C000021F3D4B13600A6842F080720A600A689F
:1003D0009201FCD5394A40F205611160016821F0B3
:1003E00003010160016841F0020101600168C1F38D
:1003F00081010229FAD10CBD10B52D48016841F0E8
:10040000010101602A4A00210832116002682C4B68
:100410001A400260031D2B4A1A60026822F48022EF
:10042000026023480C300160FFF792FF26494FF02D
:100430000060086010BD70B51D4E0836306800F0D1
:100440000C00224B224900280FD05D1004280ED04A
:1004500008280ED00B6030681D4AC0F30310121D2F
:10046000105C0A68C2400A6070BD0B60F3E70D6063
:10047000F1E70F4A121D1068C0F38054106800F0B5
:100480003F0034B1B5FBF0F01368C3F38813584351
:1004900005E0B3FBF0F01368C3F388135843126808
:1004A000C2F30142521C5200B0FBF2F00860D2E7E6
:1004B000003802400070004008484006003C0240FE
:1004C000FFFFF6FE1030002408ED00E00024F400E9
:1004D000040000207047FEE7FEE7FEE7FEE77047F6
:1004E000704770470BF026BD08B5002000904020F3
:1004F00004F0F8FA012806D1094800236A46194693
:1005000000680AF089FF402004F00AFB4FF48030B5
:1005100004F006FB0098002801D00BF0F4FC08BDA5
:100520008401002000B58DB00021084605F03EFC96
:10053000224809F00BFE0C906FF0FF0009F006FE58
:100540000B901E48093809F001FE0A900A2101208B
:100550008DF82500A8238DF82630C0228DF827209D
:10056000CDE9000116A104A80CF00CFA01F035FD4C
:10057000C0884FF6FF7101EAC00015A101F0D6FD59
:1005800001F02BFDC08804A900EBC00080B201F08F
:10059000CDFD16490022CDE90021134802900AAB97
:1005A0000BAA0CA9124806F035FD114806F055FDBE
:1005B0000F4806F08DFD0DB000BD00000A01A8C077
:1005C000202025642E25642E25642E25640000003D
:1005D00020205374617469632049502061646472FF
:1005E00065737320202000005D5C0008D1AE000818
:1005F000FC01002000B5AFB001214FF0606003F0B6
:10060000E0FB03F0E9FD04F060FA04F064FA01286D
:10061000FBD0684603F0ECFD01200090002007901D
:100620004FF400710A910B900E901190139014905A
:1006300015902090090421910A112392259026906B
:1006400004202890299180032A9080012B90401249
:100650002C9040002E900121684603F066FE66490A
:1006600008600121654804F048FA2FB000BD08B5C4
:100670004FF4A06002F092FC3D208DF800000220B3
:100680008DF8010000208DF8020001208DF8030094
:10069000684602F088FC08BDFEB50121072003F082
:1006A00090FB0121880303F0BCFB012003F072FDE5
:1006B0008620009003208DF8050002248DF8044068
:1006C00000258DF806508DF807504D4E694630468E
:1006D00003F0ACF90B220121304603F01FFA0B2284
:1006E0000221304603F01AFA0B220721304603F0AC
:1006F00015FA4FF470500090424E6946304603F0B0
:1007000095F90B220A21304603F008FA0B22114614
:10071000304603F003FA0B220C21304603F0FEF9B9
:100720000B220D21304603F0F9F932200090364EAD
:100730006946304603F07AF90B220121304603F076
:10074000EDF90B220421304603F0E8F90B220521D4
:10075000304603F0E3F90420009001208DF80400F6
:100760008DF806508DF807008DF80540274E694634
:10077000304603F05BF90421304603F0C1F90295DD
:1007800044F6206402E00299491C02910299A142B8
:10079000F9D30421304603F0B1F9029502E0029842
:1007A000401C02900298A042F9D3FEBD10B5FFF79D
:1007B00073FFFFF75CFFFFF71DFF0F48006800287D
:1007C00019D14FF4784001F0F9FB01F006FCC08824
:1007D0000FA100EB800080B201F0A8FC01F0FDFB4E
:1007E000C0884FF6FF7100EB400001EA40000DA108
:1007F00001F09CFCFEE710BD180000204000010045
:1008000000000240000402400008024000100240C4
:1008100020202045746865726E657420496E697485
:10082000202020002020202020206661696C656443
:1008300020202020202000002DE9F04104460D4614
:1008400016466FF00907002C09D055B120460BF071
:100850004FFC30803EB12C600020BDE8F08138466E
:10086000FBE73846F9E73846F7E72DE9F04186B06F
:1008700000221146102004F07BFA064630005ED0BC
:1008800046F2AE22002104F0C1FA20B169A00CF0BA
:1008900069F806B0E1E7FF21304604F0F0FA6C4D4C
:1008A000304604F0FDFA044620003FD001F095FBED
:1008B000C08868A100EB400001F03FF82BE06A46D9
:1008C00001A9384605F0EBF80123BDF800202046C9
:1008D000019904F087FB019800F09EFB68600028F6
:1008E00011DB4FF00108C5F8008002465EA102A8A6
:1008F0000CF048F8C5F8088001F06FFBC08802A929
:10090000400001F01AF8384605F0E1F80028D6DA80
:10091000384605F05AF8204604F0D8FA071ECED122
:10092000204604F07AFB204604F043FA01F055FB20
:10093000C0884EA100EB400000F0FFFFB0E750A0E0
:100940000CF010F8A5E786B00026009601960296F6
:100950003F4FBE6000221146102004F009FA804685
:100960004E4809F0F3FB0590B8F1000F07D10022C3
:100970001146102004F0FCF9B0F10008F7D0B86877
:100980000128F1D146F2AD24224605A9404604F0E3
:1009900051FA051EF8D10024E5B1404604F03DFBB4
:1009A0000028FAD101F019FBC18801EB81003CA1BC
:1009B00000F0C3FF002CEFD001F00FFBC08838A17E
:1009C00000EB800000F0B9FF404604F026FB002851
:1009D000FAD1C9E738680028ECD036480BF088FB1C
:1009E000039000F0CDFA03AA04A93248FFF724FFD0
:1009F0000123BDF80C204046049904F0F3FA0446A4
:100A0000BE603E60D6E708B5032000904FF4FA734D
:100A10000022294929A00AF056FB08BD08B5032089
:100A200000904FF4FA730022284929A00AF04BFBEA
:100A300008BD00002063616E206E6F742062696ED5
:100A40006420544350206E6574636F6E6E00000026
:100A50001C00002053657276657220436F6E6E65D0
:100A600063746564000000002564000053657276BD
:100A7000657220446973636F6E6E656374656400AC
:100A800063616E206E6F74206372656174652054BB
:100A90004350206E6574636F6E6E00001B01A8C02A
:100AA000436C69656E7420446973636F6E6E656331
:100AB00074656400340200206B080008746370657C
:100AC00063686F5F746872656164000047090008BD
:100AD0007463705F53656E64446174615F746872BF
:100AE000656164004368934201D3002070475A1C3B
:100AF000426001EB03104FF0FF3181604160002143
:100B0000C16070470170426083600021C16070471E
:100B10002DE9F0410F461946069B05462E681BE05D
:100B20002C2C1FD008DC092C1CD00A2C1AD00D2C20
:100B300018D0202C06D115E03A2C13D05D2C11D002
:100B40007D2C0FD0203C5F2C04D32E606FF0010071
:100B5000BDE8F081401C28602868904202D23C5CCD
:100B6000002CDDD171B11A462846FFF7BBFF70B1EA
:100B7000324604212B68FFF7C5FF2868401E286015
:100B80000020E5E72868401E28600020E0E72E608E
:100B90004FF0FF30DCE72DE9F0470446DDF8208018
:100BA0000F462668701C20606FF0010C5AE0222866
:100BB00002D05C2815D052E06BB14246194620465F
:100BC000FFF790FF48B1721C03212368FFF79AFFDB
:100BD0000020BDE8F0870020FBE726604FF0FF30E3
:100BE000F7E7491C91423AD22160785C662836D0FA
:100BF00008DC222833D02F2831D05C282FD062285F
:100C000008D12CE06E282AD0722828D0742826D04B
:100C1000752802D026606046DBE7491C2160002170
:100C200012E0A0F13009B9F10A0F0AD3A0F141098D
:100C3000B9F1060F05D36138062802D32660604655
:100C4000C7E76D1C2560491C042905DA2568954213
:100C500002D2785D0028E4D12068401E2060206820
:100C6000401C20602168914202D2785C00289ED10D
:100C700026606FF00200ACE72DE9F84F04460A9FAA
:100C8000884691461D4666684FF0FF3A3CE0BBF14E
:100C90002C0F70D011DCBBF10D0F32D006DCBBF194
:100CA000090F2ED0BBF10A0F18D12AE0BBF1200F9B
:100CB00027D0BBF1220F11D1A0E0BBF15D0F5FD0B7
:100CC00006DCBBF13A0F7DD0BBF15B0F06D136E0FD
:100CD000BBF17B0F33D0BBF17D0F51D02B464A4681
:100CE000414620460097FFF713FF002825DB761CBE
:100CF000A068411C05D025B105EB0010C168491C56
:100D0000C1602068401C206022684A4504D218F85F
:100D100002B0BBF1000FBAD175B16068401E002867
:100D20000ADB05EB00114A68521C02D08968491C95
:100D300079D0401E0028F4DA3046BDE8F88F761CE2
:100D4000002DDED03A4629462046FFF7CBFE98B16B
:100D5000A1684A1C04D005EB0111CA68521CCA6084
:100D6000BBF17B0F0AD002210170216841606068ED
:100D7000401EA060C5E75BE05046DEE70121F3E7D7
:100D8000002DBED0BBF17D0F25D002236068401E30
:100D900000280EDB05EB0011D1F804C0BCF1FF3FC9
:100DA00004D0D1F808C0BCF1FF3F16D0401E002887
:100DB000F0DA411C1DD00028A3DB05EB00114A68C6
:100DC000521C00E030E002D08968491C14D0401E5B
:100DD0000028F2DA95E70123D8E791F800C09C4596
:100DE00002D06FF00100A8E7C4F808A0521C8A6086
:100DF000DFE76FF00100A0E7A06082E72B464A46DC
:100E0000414620460097FFF7C6FE002895DB761C7A
:100E1000A068411CAED0002DACD005EB0010C1681D
:100E2000491CC1606DE726E06068401EA06068E76D
:100E3000002D9FD0A068411C9CD005EB00100078CD
:100E4000022897D0012895D06068401E002891DBC9
:100E500005EB00110A78022A01D0012A05D14A685F
:100E6000521C02D08968491C03D0401E0028EFDACA
:100E700047E7A06045E76FF002005EE700210160F0
:100E80004160491E8160704770B506460C461546A4
:100E9000207803280DD128460BF02AF90146D4E921
:100EA0000102121A914204D1304429460BF034F960
:100EB00010B14FF0FF3070BD002070BD0FB42DE9B0
:100EC000F8430F46DDF8349048460BF011F902461E
:100ED000002000903B4649460AA8FFF7CDFE064693
:100EE000300004D50120BDE8F8035DF814FB012EA5
:100EF00002DB3878012801D00120F4E70124DFF873
:100F0000548139E007EB041529464846D8F80020FB
:100F1000FFF7BAFFA8B129464846D8F80420FFF7E2
:100F2000B3FFB0B129464846D8F80820FFF7ACFF18
:100F300088B129464846D8F80C20FFF7A5FF60B1D4
:100F400019E045A344A246A148460BF01BFD641CD2
:100F500011E0641C0FE0641C0DE0601C07EB001145
:100F600002460878022806D10020C96800E0401C2B
:100F70008142FCDC8C18641CB442C3DB0020B2E765
:100F800070B5ADF5147DFF2017211A221123CDE98C
:100F90000032CDE90210CA23A02233A13FA80BF0F2
:100FA000F1FC3D483DA1026835A80BF0EBFC294E51
:100FB000D6E90823D6E90A10CDE90210CDE90023CD
:100FC000D6E906233DA12BA80BF0DCFC70690BF0E1
:100FD000B4FA04460D4630690BF0AFFA02460B46F0
:100FE000424905A8CDE900450BF0CCFC05A82BA98A
:100FF000CDE9001035AB3FAA3DA149A80BF0C2FCDA
:1010000049A80BF075F849AA3DA13F480BF0BAFC7E
:101010000DF5147D012070BD30B50021012203E0E3
:101020002D2B00D15242401C03782D2BF8D02B2BB6
:10103000F6D06FF02F0405E001EB810104EB4101D4
:101040001944401C0378A3F13005092DF4D901FBA4
:1010500002F030BD280000206173646173640000F9
:10106000257320257300000022696F745F6D616332
:101070005F61646472223A22253032583A25303258
:10108000583A253032583A253032583A25303258BD
:101090003A253032582200002000002022696F7467
:1010A0005F726571756573745F686973746F727967
:1010B0005F6964223A222564220000002263686589
:1010C000636B5F74696D65223A22252E34642D2589
:1010D0002E32642D252E32643A252E32643A252E86
:1010E00032643A252E3264220000000018E5000820
:1010F0007B25732C25732C25732C25737D00000014
:101100002573454F460D0A00340200202DE9F043B7
:1011100097B026208DF8580000248DF859404FF0E4
:1011200001088DF85A808DF85B8016A801F03BFF0E
:101130000121480502F045FEFE4E304601F08CFFCD
:101140004FF000600790FC480890FC4D09950A9408
:1011500080150B900C9481000D91C1000E914101FE
:101160000F91109047021197CDF84C80149415946C
:1011700007A9304601F0FBFF0121384602F045FE89
:101180004FF4E1300390ADF81040ADF81240ADF8E7
:101190001440ADF818404FF00C09ADF81690E64F2A
:1011A00003A93F1F384601F073FD0121084602F0F4
:1011B00008FECDF8049002208DF808008DF80A4052
:1011C00003208DF809008DF80B80DFF8748301A9E6
:1011D000404602F02BFC07220221404602F09EFC12
:1011E00007220321404602F099FC002105F500701A
:1011F00020F81140491C89B2FF29F9D9002125F8AE
:101200001140491C89B2FF29F9D9CE484480848015
:1012100001224021384601F05DFE0121304601F0F7
:10122000DFFF0121384601F0ACFD17B0BDE8F083C7
:1012300030B587B00121082002F0C3FD01218804E8
:1012400002F0E3FD4FF44070059003208DF8190083
:1012500002208DF8180000248DF81A408DF81B40EC
:10126000B94D05A9284602F0E1FB072208212846CE
:1012700002F054FC07220921284602F04FFC2720E7
:101280008DF8000001208DF801008DF802008DF826
:101290000300684601F087FE4FF4E1300190ADF89D
:1012A0000840ADF80A40ADF80C40ADF810400C20F5
:1012B000ADF80E00A54C01A9204601F0E9FC012281
:1012C00040F22551204601F00FFE0121204601F099
:1012D00058FD07B030BD9748001D0068994980B29D
:1012E0000988401A00F58070C11700EB116121F0E8
:1012F000FF01401A80B270478E49091D09688AB201
:10130000904909888A4205D008448C49C0B231F816
:1013100010007047002070478648001D006889490A
:10132000088070478349091D0968C1F580718AB238
:10133000844B1988914209D0804A12F8111001702B
:101340001878401CC0B218800120704700207047F8
:1013500030B5044600207749091D09688BB2794AE7
:10136000764D08E015F811102154401C80B2117818
:10137000491CC9B2118011889942F3D1002121542E
:1013800030BD6C488838C06A6E4980B2C988401A3E
:1013900000F58070C11700EB116121F0FF01401AC8
:1013A00080B2704763498839C96A8AB26549C98879
:1013B0008A4205D008446649C0B231F8100070472F
:1013C000002070475B488838C06A5E49C880704713
:1013D00058498839C96AC1F580718AB2594BD98890
:1013E000914209D05A4A12F8111001709879401CA4
:1013F000C0B2D880012070470020704730B5044645
:1014000000204C498839C96A8BB24E4A504D08E0D9
:1014100015F811102154401C80B29179491CC9B2B1
:10142000D180D1889942F3D10021215430BD10B52B
:101430002021464801F073FD4448001D008810BD7E
:1014400010B5FFF7F4FF3F4A424B116923F8110032
:10145000491C116100230124632802D19460516169
:101460001361712803D1D46010695061136110BDFC
:10147000344A394B518823F81100491CC8B25080B6
:101480002D48012240F22771001F01F02DBD10B53B
:10149000044602E0641CFFF7EBFF20780028F9D136
:1014A00010BD70B505460124002D06D00CDA4FF0B2
:1014B0002D00FFF7DDFF6D4206E0BDE870403020F3
:1014C000D6E704EB8400440095FBF4F00028F8D143
:1014D0000A260EE094FBF6F404EB8400400095FB32
:1014E000F0F100FB115090FBF4F03030C0B2FFF788
:1014F000BFFF012CEED170BDD3E7D2E7D1E7D0E733
:10150000CFE7CEE72DE9F04104460E4614F0FF4F39
:1015100033D014F1FF4F04D32D20FFF7A9FF84F03F
:10152000004420460AF0D1FF074638460AF0A6FFDD
:10153000214613E08860024004440040F603002086
:101540000000024058000020000C0240004800400B
:10155000F6070020F6090020F60500200AF040FEFC
:1015600005463846FFF79DFF15F0FF4F23D02E208C
:10157000FFF77EFF0024DA4F1BE0BDE8F04130208A
:1015800076E7394628460AF02EFE054615F0FF4F4D
:1015900011D028460AF099FF80463030C0B2FFF7DC
:1015A00067FF40460AF06AFF29460AF019FE054621
:1015B000641CB442E5DBBDE8F0812DE9F04104464E
:1015C0000D46174600221346204629460AF0C8FF5A
:1015D00003D1BDE8F04130204AE7002213462046FF
:1015E00029460AF0BDFF04D22D20FFF741FF85F008
:1015F0000045204629460AF081FF064630460AF09B
:1016000046FF22462B460AF0C4FE04460D463046ED
:10161000FFF747FF00221346204629460AF0A0FFA5
:10162000C9D02E20FFF724FF002621E00022AD4B79
:10163000204629460AF0B0FE04460D460022134615
:10164000204629460AF08CFFB5D0204629460AF0EC
:1016500055FF80463030C0B2FFF70AFF40460AF01F
:1016600016FF22462B460AF094FE04460D46761CD1
:10167000BE42DBDB9FE770B505469B4C80212046D0
:1016800001F04DFC0028F9D029462046BDE8704005
:1016900001F0A3BB10B5044602E0FFF7ECFF641CA9
:1016A00020780028F9D110BD70B505460124002D21
:1016B00006D00CDA4FF02D00FFF7DDFF6D4206E09B
:1016C000BDE870403020D6E704EB8400440095FB71
:1016D000F4F00028F8D10A260EE094FBF6F404EBAF
:1016E0008400400095FBF0F100FB115090FBF4F0FA
:1016F0003030C0B2FFF7BFFF012CEED170BDD3E791
:10170000D2E7D1E7D0E7CFE7CEE72DE9F0410446B5
:101710000E4614F0FF4F1ED014F1FF4F04D32D20BE
:10172000FFF7A9FF84F0004420460AF0CEFE0746EA
:1017300038460AF0A3FE21460AF052FD0546384617
:10174000FFF7B2FF15F0FF4F23D02E20FFF793FFD6
:101750000024634F1BE0BDE8F04130208BE73946A1
:1017600028460AF040FD054615F0FF4F11D02846E7
:101770000AF0ABFE80463030C0B2FFF77CFF404637
:101780000AF07CFE29460AF02BFD0546641CB44293
:10179000E5DB10E72DE9F04104460D46174600222F
:1017A0001346204629460AF0DBFE03D1BDE8F0418E
:1017B000302060E700221346204629460AF0D0FE7A
:1017C00004D22D20FFF757FF85F00045204629461B
:1017D0000AF094FE064630460AF059FE22462B4691
:1017E0000AF0D7FD04460D463046FFF75DFF0022A4
:1017F0001346204629460AF0B3FE28D02E20FFF7D4
:101800003AFF002621E00022364B204629460AF006
:10181000C3FD04460D4600221346204629460AF021
:101820009FFE14D0204629460AF068FE80463030DC
:10183000C0B2FFF720FF40460AF029FE22462B46A1
:101840000AF0A7FD04460D46761CBE42DBDBB2E67D
:1018500070B5264D40F227742146284601F08AFBD8
:101860002146284601F066FB00280CD0204A9088CB
:101870005188884208D01F492B1D31F8101019805B
:10188000401CC0B2908070BD21462846BDE8704023
:10189000002201F029BB70B5134D40F225542146BA
:1018A000284601F047FB00280BD02146284601F0CE
:1018B00061FBFFF7C5FDE913BDE870400E4802F07B
:1018C00029B970BD10B51B20FFF7D5FE0BA0FFF79F
:1018D000E1FE1B20FFF7CFFEBDE8104008A0D9E6CF
:1018E0000000204100002440004800400044004027
:1018F00058000020F6050020000C02405B324A0030
:101900005B4800001D4D28680128FCD1A88880B2E2
:1019100000F0B1FB00241A4E00F05FFBC08804EB1E
:101920008401604380B206EB810100F0FFFB641C80
:101930000A2CF1DB00202860E5E770B504460E466E
:10194000A0B200F098FB0E4804EB840100EB81008C
:10195000054632460BA10BF015F82946A0B2BDE8AA
:10196000704000F0E3BB08B5032000904FF4FA7319
:101970000022054905A009F0A6FB08BD7000002063
:101980000A0A002025730000051900084C43445F33
:10199000436F6E74726F6C5F74687265616400008F
:1019A00070477CB5FFF7FCFF0121042001F01AFE0F
:1019B000042001F069FD4CF20370009000208DF8C6
:1019C00004008DF80700FB4D6946284602F02EF80A
:1019D00000221146284602F0A1F8002201212846E3
:1019E00002F09CF800220821284602F097F8002215
:1019F0000921284602F092F800220A21284602F026
:101A00008DF800220E21284602F088F800220F21CE
:101A1000284602F083F84FF680700090E64C694645
:101A2000204602F003F800220721204602F076F853
:101A300000220821204602F071F8002209212046E8
:101A400002F06CF800220A21204602F067F800221A
:101A50000B21204602F062F800220C21204602F001
:101A60005DF800220D21204602F058F800220E21D8
:101A7000204602F053F800220F21204602F04EF8D3
:101A80004FF23F010091CD4E6946304601F0CEFF46
:101A900000221146304602F041F800220121304672
:101AA00002F03CF800220221304602F037F8002212
:101AB0000321304602F032F800220421304602F0C1
:101AC0002DF800220521304602F028F800220C21D2
:101AD000304602F023F800220D21304602F01EF8B5
:101AE00000220E21304602F019F800220F21304664
:101AF00002F014F83F210091B14E6946304601F0E2
:101B000095FF00221146304602F008F8002201211C
:101B1000304602F003F800220221304601F0FEFFB9
:101B200000220321304601F0F9FF00220421304653
:101B300001F0F4FF00220521304601F0EFFF4FF4E1
:101B4000605100916946284601F070FF00220B2188
:101B5000284601F0E3FF00220C21284601F0DEFFB9
:101B600000220D21284601F0D9FF3021009169465D
:101B7000284601F05BFF00220421284601F0CEFF39
:101B800000220521284601F0C9FF21150091694670
:101B9000304601F04BFF00220C21304601F0BEFF21
:101BA000032100916946204601F040FF00221146C2
:101BB000204601F0B3FF00220121204601F0AEFFD4
:101BC0007CBD2DE9FC4101213A2002F0FAF84CF2EB
:101BD0003370009002208DF804008DF80500002479
:101BE0008DF806408DF80740724F6946384601F07F
:101BF0001DFF0C220021384601F090FF0C2201212C
:101C0000384601F08BFF0C220421384601F086FF94
:101C10000C220521384601F081FF0C2208213846AC
:101C200001F07CFF0C220921384601F077FF0C22DD
:101C30000A21384601F072FF0C220E21384601F0CD
:101C40006DFF0C220F21384601F068FF4FF68070BF
:101C50000090594E6946304601F0E8FE0C220721FB
:101C6000304601F05BFF0C220821304601F056FFA0
:101C70000C220921304601F051FF0C220A21304686
:101C800001F04CFF0C220B21304601F047FF0C22E3
:101C90001146304601F042FF0C220D21304601F082
:101CA0003DFF0C220E21304601F038FF0C220F219F
:101CB000304601F033FF082500956946304601F0B3
:101CC000B5FE0C220321304601F028FF8020009051
:101CD0006946384601F0AAFE0C220A21384601F076
:101CE0001DFF009501258DF804508DF805408DF8F5
:101CF00006408DF807406946384601F097FE6E03AE
:101D000000968DF804508DF805508DF806408DF83A
:101D100007406946384601F089FE3146384601F0F1
:101D2000EDFEBDE8FC8100B597B00121084602F048
:101D300060F8012001900020029009210391049095
:101D4000059006900790089009900A9010210B9139
:101D50000C900D900E900F9010900902119112901E
:101D60001390149001A81590169008A801F0A4FBF8
:101D70000121002001F036FC17B000BD1149486078
:101D800070471149088070474FF0C04210800E48DC
:101D90000180704701B581B042F21071019848434B
:101DA000009002E00098401E009000980028F9D1B1
:101DB0000CBD0000000C0240001002400014024064
:101DC00000180240780000200000106010B5FFF7F6
:101DD000F8FEFFF7A8FF0520FFF7DCFFFE4C082107
:101DE000204601F08DFE0A20FFF7D4FF082120468F
:101DF00001F084FE01211020FFF7C6FFB2211E2052
:101E0000FFF7C2FF06212820FFF7BEFF01210020B7
:101E1000FFF7BAFF43F2EF010120FFF7B5FF4FF4E0
:101E2000C0610220FFF7B0FF00211020FFF7ACFFD8
:101E30000520FFF7AFFF46F630011120FFF7A4FFA2
:101E400040F699111220FFF79FFF4FF460512620B2
:101E5000FFF79AFF33210720FFF796FF05210C209B
:101E6000FFF792FF00213020FFF78EFF40F2033191
:101E70003120FFF789FF40F207413220FFF784FF4E
:101E800040F2013319463320FFF77EFF1946342014
:101E9000FFF77AFF40F203413520FFF775FF40F26C
:101EA00007713620FFF770FF21153720FFF76CFF11
:101EB0004FF420613A20FFF767FFA1143B20FFF7A2
:101EC00063FF0A210D20FFF75FFF4FF438510E200A
:101ED000FFF75AFF4FF46F414420FFF755FF0021F1
:101EE0004520FFF751FF40F23F114620FFF74CFF1E
:101EF00000214E20FFF748FF00214F20FFF744FF4D
:101F000000212220FFF740FF00224FF496330020EB
:101F1000FFF737FF521C9A42F9D3BDE81040AF4893
:101F20002CE700B50B4601464E20FFF72DFF194662
:101F30004F205DF804EB27E74FF0C0410880A84828
:101F4000008870474FF0C041222008807047A448A5
:101F50000088704700B500210846FFF7E2FFFFF751
:101F6000F1FF00209E494FF478424FF4C8430A80A5
:101F7000401C9842FBD34FF4FC624FF4484301E00D
:101F80000A80401C9842FBD31F224FF4963301E095
:101F90000A80401C9842FBD300BD03B5BDF8001079
:101FA0008E4808380180BDF80410418000E78B4A54
:101FB000083A1388038050880880704701B5BDF83F
:101FC000000086490839088008BD01B5BDF8000049
:101FD00082490839488008BD704780480838406801
:101FE00070472DE9F04105468846164600242946EB
:101FF0004046FFF796FF794F083F29E0FFF7A2FF21
:1020000000231AE00C21B0FBF1F1C90080228A40C4
:1020100036F814101A410A4201D10C2805D90122C0
:102020009A40114205D10C2803D97888FFF7A9FE00
:1020300002E03888FFF7A5FE5B1C7868808898422C
:10204000E0D86D1CADB229464046FFF76AFF641C1C
:102050007868C088A042D1D8BDE8F08110B4203A99
:10206000D3B25E4A083A52681468D2885A4304EBE5
:10207000420210BCB5E7F0B507460024574D4FF4B7
:10208000A076083D202221463846FFF7E7FF686822
:102090008188081984B2B442F4D3F0BD30B5054646
:1020A000002400210846FFF73CFFFFF74BFF4C4997
:1020B0004FF496300D80641C8442FBD330BD2DE973
:1020C000F04380460D461646994600242946404670
:1020D000FFF727FF414F083FB9F1000F16D1FFF777
:1020E00031FF03E03888FFF74CFE641CB442F9D39B
:1020F000BDE8F083FFF726FF3888FFF742FE6D1C2E
:10210000ADB229464046FFF70CFF641CB442F1D340
:10211000EEE7B0F5A07F08D2002906DBEF2904DC4A
:10212000002389B280B20122C9E770472DE9F0414E
:1021300080460D460024294E4FF4A077083E0AE061
:1021400021464046FFF78AFF70688088204484B2A9
:10215000BC4281D26D1C2A78002AF1D17CE770B58F
:1021600004460D46164621464520FFF70DFEA219EE
:10217000B2F5A07F05D340F23F114620FFF704FEE1
:1021800003E091B24620FFF7FFFDEA18F02A02D3E0
:102190004FF46F4200E01202224391B24420FFF755
:1021A000F3FD29462046BDE87040BAE67047F0B519
:1021B00004460F4615461E46012332463946204640
:1021C000FFF77DFF6019401E80B201233246394679
:1021D000FFF775FF002305E0000C0240800000209F
:1021E000000010602A4639462046FFF768FFB819FC
:1021F00081B22A462046BDE8F04000235FE72DE982
:10220000FC4F804689460320A0EB42060024154679
:1022100074E008EB040009EB050A01901FFA8AF14B
:1022200080B2FFF77EFEFFF78DFEFE4F3888FFF786
:10223000A8FD0198A9EB050B1FFA8BF180B2FFF7FF
:1022400070FEFFF77FFE3888FFF79BFD1FFA8AF1CB
:10225000A8EB040A1FFA8AF0FFF763FEFFF772FE8D
:102260003888FFF78EFD1FFA8BF11FFA8AF0FFF70F
:1022700058FEFFF767FE3888FFF783FD09EB04007F
:1022800081B208EB050A00901FFA8AF0FFF749FEB9
:10229000FFF758FE3888FFF774FDA9EB040B1FFA0F
:1022A0008BF11FFA8AF0FFF73CFEFFF74BFE3888F0
:1022B000FFF767FD0098A8EB050A81B21FFA8AF0C4
:1022C000FFF72FFEFFF73EFE3888FFF75AFD1FFA93
:1022D0008BF11FFA8AF0FFF724FEFFF733FE3888F0
:1022E000FFF74FFD002E03DA06EB8406B61D04E06F
:1022F000601B06EB80060A366D1E641CAC4288D952
:10230000BDE8FC8FF0B50646002440F23F110020E6
:10231000FFF707FEFFF716FEC24D01234FF41667C5
:10232000002256F8241003FA02F0014203D1688813
:10233000FFF727FD02E02888FFF723FD521C202A23
:10234000EFD3641CBC42EBD3F0BD70472DE9F043E2
:102350000746894690461C46B24E3088FFF72EFE4F
:102360000023424649463846FFF7A9FE09EB040020
:1023700081B2002342463846FFF7A1FE01232246E0
:1023800049463846FFF79BFE07EB0800401E80B227
:10239000012322464946FFF792FE641EA5B209F1C9
:1023A00001091FFA89F47088FFF708FE07E021464B
:1023B000641CA4B2002342463846FFF780FE6D1E1F
:1023C000ADB2F4D23088BDE8F043F7E52DE9F74F20
:1023D0000746884602980321A1EB40060024029D8F
:1023E00090484088FFF7EAFD4FF6FF7935E09DB150
:1023F00009EA450208EB050A381B93461FFA8AF1E1
:1024000080B20023FFF75BFE38195A461FFA8AF1A3
:1024100080B20023FFF753FE9CB109EA440208EBA7
:10242000040A781B93461FFA8AF180B20023FFF753
:1024300046FE78195A461FFA8AF180B20023FFF748
:102440003EFE002E03DA06EB8406B61D04E0601B98
:1024500006EB80060A366D1E641CAC42C7D9714873
:102460000088FFF7ABFD029A03B041463846BDE84D
:10247000F04FC4E62DE9FC5F84460C460027A2EB32
:102480000C00002801DCACEB020000B2191B002993
:1024900000DCE11A09B20FFA8CF526B24FF0FF3BCF
:1024A000624503D34FF00109CA4601E0D946DA4636
:1024B000A34204D34FF0010B0122019201E0CDF8B9
:1024C00004B088420ADB4FF000090022019200EBC1
:1024D000D072521014B20091804623E04FF0000AEF
:1024E000D34601EBD172521014B20090884619E025
:1024F00031462846FFF70DFE0098204404B24445BB
:1025000008DBA4EB080004B205EB090005B206EBFA
:102510000B0006B205EB0A0005B20198304406B282
:102520007F1C3FB24745E3DDBDE8FC9F70B5044624
:102530000D46022D0DD308E020886188241D89B244
:102540006388228880B2FFF795FF6D1E2D042D0C45
:10255000F2D170BD2DE9F04704460F469146A046E2
:10256000022F25D3B4F90050B4F9026010E0241D05
:10257000B1B26088304483B22088284482B2A8B2C5
:10258000FFF778FF2088284405B26088304406B2FF
:102590007F1E3F043F0CEAD1B9F1000F08D0B3B25F
:1025A000AAB2B8F80210B8F80000BDE8F04761E739
:1025B000BDE8F08770B504460D4629462046FFF772
:1025C000B5FF04EB8500001F6188438802882088DE
:1025D000BDE870404EE70022BCE70122BAE72DE9D2
:1025E000F34FE9B00446B4F800A0D34665880195DE
:1025F000012013E004EB80014988514500D28A464E
:10260000594500D98B4634F82020AA4200D21546FD
:1026100001998A4200D90192401C80B26A9988428D
:10262000E8D301E0780000205F484088FFF7C6FC4F
:102630000295AEE04FF000096A98401E1FFA80F83C
:1026400000254FE0029809F033FF06466791689035
:102650000F4634F9250009F01AFF32463B4609F0CF
:102660007FFF0AD234F92800679F689E09F00FFFA8
:1026700032463B4609F08CFF15D934F92800679F94
:10268000689E09F004FF32463B4609F069FF26D2F6
:1026900034F92500679F689E09F0F9FE32463B46F3
:1026A00009F076FF1BD804EB8800029BB0F90210FA
:1026B00004EB8500B0F902000A1A34F925105B1A00
:1026C0005A4334F92830591A92FBF1F10144484633
:1026D00003AA09F101091FFA89F922F81010A84686
:1026E0006D1CADB26A988542ACD30020A9F10105FA
:1026F00003AF0FE0411C37F8102037F811309A4231
:1027000007D927F8103027F8112018B1401E80B2E1
:1027100000E088B2A842EDDB002534E037F8150070
:10272000584532D26E1C37F81610514529D95045FC
:1027300001D227F815A037F81600584501D927F817
:1027400016B0DFF86480B8F80200FFF737FC37F8FE
:10275000161037F815000023081A82B20298FFF706
:10276000AEFCB8F80000FFF729FC029837F9161004
:1027700000B20646FFF7CDFC37F915103046FFF7DB
:10278000C8FCAD1CADB24D45C8D30298401C80B208
:102790000290DDE901108842FFF44CAF0248008846
:1027A0006BB0BDE8F04F09E4780000201CB504468A
:1027B000FE48012150F8240001F003FBFB482038BB
:1027C00030F81400009001208DF8040000218DF8ED
:1027D00006108DF8070002208DF80500F4486946C0
:1027E00050F8240001F022F91CBDF049F04A2039CC
:1027F00031F8101052F8200001837047EB49EC4A81
:10280000203931F8101052F8200041837047E84910
:1028100051F820104A69E54B203B33F81000424044
:102820004A61704770B586B004460E46DF48012104
:102830003C3850F8240001F0C4FA0121880301F06B
:10284000F0FA00258DF814508DF81750D74840380D
:1028500030F814000490D64804A91C3850F824001D
:1028600001F0E4F8012E25D1D0484338015D401E27
:10287000005D01F07CFCCD483E3830F81400029039
:102880008DF80C5008208DF80D0001258DF80E50A4
:1028900002A800F091FDC5484238005D8DF80400A3
:1028A0000F208DF805008DF806008DF8075001A85F
:1028B00000F079FB06B070BDBC49BD4A40391C3AF6
:1028C00031F8101052F8200001F004B92DE9FC4154
:1028D00004460E46B548B5491038083950F824006A
:1028E00051F824100843012101F06BFAAF4801218F
:1028F000183850F8240001F094FAAC48AC4F28384E
:10290000103F10F81420083830F8141057F824003D
:1029100001F004F9A54807F10808243810F814203C
:10292000083830F8141058F8240001F0F7F80020A7
:102930008DF8060001208DF8070002258DF804505F
:102940009A48383830F8140000908DF8055057F840
:102950002400694601F06AF88DF804509348343831
:1029600030F81400009058F82400694601F05EF831
:10297000A7F10805314655F8240000F089F955F80B
:102980002400012100F0FDF9BDE8FC817CB50020A8
:1029900001F028FB002001F028FB01F0FBFA0021E8
:1029A0004FF4006001F03DFA824C002208212046DD
:1029B00001F0B4F800220921204601F0AFF800220E
:1029C0000A21204601F0AAF800220B21204601F03E
:1029D000A5F800220C21204601F0A0F8764D002237
:1029E0000221284601F09AF84FF47061009100210D
:1029F0008DF804108DF807106946204601F016F88E
:102A0000042100916946284601F010F8A1140091B4
:102A10006946204601F00AF87CBD2DE9FC41012100
:102A20000E2001F0CEF9634E0C220821304601F051
:102A300075F80C220921304601F070F80C220A21A9
:102A4000304601F06BF80C220B21304601F066F89D
:102A50000C221146304601F061F8574F0C2202213A
:102A6000384601F05BF84FF47060009001248DF857
:102A7000054002208DF8040000258DF806508DF8E1
:102A800007406946304600F0D1FF042100916946B5
:102A9000384600F0CBFF200300908DF807506946C0
:102AA000304600F0C3FFE00300908DF804508DF82D
:102AB00007406946414800F0B9FF0121C80201F012
:102AC000B0F90121880501F07CF95DE730B58FB0E0
:102AD00004463B4D4FF0FA51284600F0F0FB002130
:102AE000284600F07DFB284600F0B6FA4FF0006063
:102AF00000903448019002944020039000200490FC
:102B0000059029150691890007918900089109907F
:102B10004FF440300A9004200B9003200C904802A0
:102B20000D9080100E906946284600F020FB01228F
:102B30001021284600F0D4FB2021284600F068FB35
:102B40000121284600F04CFB0FB030BD30B58FB0EE
:102B500004461B4D4FF0FA51284600F0B0FB00210F
:102B6000284600F03DFB284600F076FA4FF0006062
:102B70000090144801900294002003900490059066
:102B800029150691890007918900089109904FF451
:102B900040300A9004200B9003200C9048020D90C6
:102BA00080100E90694628460EE00000B0E4000850
:102BB000A400002000080240000C02400004024073
:102BC00058640240802C014000F0D1FA012210210B
:102BD000284600F085FB2021284600F019FB012142
:102BE000284600F0FDFAAFE710B5E649884209D162
:102BF0000121102001F051F90021BDE81040102002
:102C000001F04BB9E04988420AD101214C04204629
:102C100001F037F92046BDE81040002101F031B93C
:102C2000DA4988420AD101218C04204601F029F9B1
:102C30002046BDE81040002101F023B9D449884264
:102C40000AD10121CC04204601F01BF92046BDE841
:102C50001040002101F015B9CE4988420AD1012166
:102C60000C05204601F00DF92046BDE8104000217A
:102C700001F007B9C849884209D10121202001F09B
:102C80000CF90021BDE81040202001F006B910BD6C
:102C90007FB504460D46208A20F44051E888084359
:102CA0002082A08941F20C618843A9882A891143B6
:102CB0006A8902431143A181A08A20F44071A88946
:102CC0000843A082684601F011F8AE48844202D061
:102CD000B148844201D1039800E00298A189090417
:102CE00008D500EBC00101EB001029684900B0FBDA
:102CF000F1F007E000EBC00101EB0010296889004A
:102D0000B0FBF1F06422B0FBF2F109010B096FF0A6
:102D100018056B4300EB8300A3891D044FF03203B9
:102D200007D503EBC000B0FBF2F000F0070008434A
:102D300006E003EB0010B0FBF2F000F00F000843D8
:102D400020817FBD4FF41651016000218180C18038
:102D500001810C2242818181704710B5028A22F4E0
:102D600070630A884C8822438C88C9880C432243AC
:102D70001A43028210BD0021018041808180C18000
:102D80007047002904D0818941F400518181704746
:102D9000818921F4005181817047028B02F47F42C6
:102DA0000283028B0A4302837047002904D0818981
:102DB00041F40041818170478189C1F30E01818115
:102DC0007047002904D0818A41F4006181827047F4
:102DD000818A21F4006181827047C1F308018180FA
:102DE00070478088C0F308007047028A22F00F0203
:102DF0000282028A0A4302827047002904D0818934
:102E000041F0020181817047818921F002018181B5
:102E10007047828922F40062828182890A4382811A
:102E20007047028A22F020020282028A0A4302824A
:102E30007047002904D0018A41F480410182704723
:102E4000018A21F4804101827047818941F00101AA
:102E500081817047002904D0818A41F00801818274
:102E60007047818A21F0080181827047028BD2B2BB
:102E70000283028B42EA012101837047002904D0BA
:102E8000818A41F0200181827047818A21F02001EE
:102E900081827047002904D0818A41F0100181822B
:102EA0007047818A21F0100181827047828A22F066
:102EB00004028282828A0A4382827047002904D0F7
:102EC000818A41F0020181827047818A21F00201EA
:102ED00081827047002A03D0828A0A438282704727
:102EE000828A8A438282704710B540F66A13C1F322
:102EF000421301F01F040121A140012B07D0022B36
:102F000007D014303AB102680A43026010BD0C3099
:102F1000F8E71030F6E702688A43026010BD024607
:102F2000002012880A4200D0012070478A05C94358
:102F30000180704770B5002440F66A12C1F3421355
:102F400001F01F05012606FA05F2012B0CD0022B19
:102F50000DD0838A1340090A8E40008830400BB19F
:102F600000B10124204670BD83891340F3E7038A32
:102F70001340F0E740F66A120A0A01219140C94362
:102F800001807047001001400044004000480040AC
:102F9000004C004000500040001401402B49084301
:102FA0002B490860704730B50F23C278012501789E
:102FB000002A1FD0264A126802F4E062C2F5E062DD
:102FC000C2F30722C2F10404D3404278A2408478BD
:102FD0001C401443220101F1E02181F80024007813
:102FE00000F01F018D404009800000F1E020C0F892
:102FF000005130BD01F01F0085404809800000F1FC
:10300000E020C0F8805130BD124A11400143104801
:10301000001F016070470E4A121D002903D011687D
:1030200001431160704711688143116070474FF090
:10303000E021042804D0086920F0040008617047EA
:10304000086940F004000861704700000000FA05BC
:103050000CED00E080FFFF1F2DE9F043016821F037
:10306000010101600021016041608160C160016176
:1030700021214161C149C14A10394FF03D089042B8
:1030800003D1C1F80880BDE8F083BC4A4FF47465F1
:103090001832904201D18D60F5E7B84A4FF47416AA
:1030A0003032904201D18E60EDE7B44A4FF0746740
:1030B0004832904201D18F60E5E7B04BB04A6033AF
:1030C000984201D1CA60DEE7AC4CAE4B7834A042E6
:1030D00001D1CB60D7E7DFF8A4C2AB4C0CF1900C68
:1030E000604501D1CC60CEE7DFF890924FF03D5CB7
:1030F00009F1A809484502D1C1F80CC0C3E7A349AA
:10310000DFF888920839484502D1C1F80080BAE753
:10311000DFF8788208F11808404501D10D60B2E768
:103120009A4D3035A84201D10E60ACE7974D483535
:10313000A84201D10F60A6E7944D94496035091F5C
:10314000A84201D10A609EE7904A7832904201D1AC
:103150000B6098E78D4A9032904201D10C6092E763
:103160008A4AA83290428ED1C1F800C08BE730B5B0
:103170000368874A1340CC680A682243D1E90545B1
:103180002C432243CC6922430C6A22434C6A2243DB
:103190008C6A22434C6B22438C6B22431A4302609D
:1031A000426922F00703D1E90B2422431A4342610A
:1031B0000A6942604A6882608968C16030BD002146
:1031C000016041608160C160016141618161C161F3
:1031D000016241628162C162016341638163704740
:1031E000002904D0016841F00101016070470168C5
:1031F00021F0010101607047002904D0016841F409
:10320000004101607047016821F40041016070478E
:10321000002904D0016841F0200101607047016875
:1032200021F020010160704741607047406880B222
:103230007047002A04D0026842F40022026003E0D2
:10324000026822F40022026001617047002904D064
:10325000016841F4802101607047016821F48021F8
:1032600001607047002A01D001617047C16070475A
:10327000014600200968090300D501207047014676
:1032800000200968C90700D001207047406900F09C
:1032900038007047024600203C4B9A4202D2374A1F
:1032A000103A01E0394A103A8B0001D5526800E02B
:1032B0001268384B1A400A4200D001207047334A46
:1032C000904202D22D48103801E030481038314A7F
:1032D0008B0001EA020101D5C1607047816070472F
:1032E0000B0609D522B1436943F08003436103E033
:1032F000436923F080034361802905D001F01E015A
:103300001AB102680A430260704702688A43026089
:10331000704730B500241D4A904202D2174A103A35
:1033200001E01A4A103A1C4B194205D01E2303EA49
:10333000D12503682B4002E0406900F0800388003B
:1033400001D5506800E01068124A1040084201D0D0
:1033500003B10124204630BD0C4A904202D20748F6
:10336000103801E0094810380A4A8B0001EA0201CE
:1033700001D5C16070478160704700001060024055
:103380003D000020400F002000003D20106402405E
:103390003F801CF07D0F7D0F3C0F3C0F3849002013
:1033A0000860091D0860091D0860091D086034498E
:1033B000344814310860704730B5314A8379016868
:1033C000002B2AD013688B431360111D0B6804680F
:1033D000A3430B60017911440B68046823430B601D
:1033E000274C08342168036899432160231D19681C
:1033F0000568A94319604179102905D011440A686C
:10340000006802430A6030BD2168026811432160F0
:10341000196800680143196030BD007910440268E2
:103420008A43026030BD0021016001710C224271AB
:1034300081717047124910310A6802430A6070476F
:10344000014600200E4A143212680A4200D00120C0
:1034500070470B4914310860704701460020084A44
:1034600012680A40064B14331B680B4202D0002A34
:1034700000D00120704702491431086070470000F5
:10348000003C0140FFFF7F008100A1F1C041002806
:103490000CD043F2D2020A60401C8000A0F1C04070
:1034A0006FF070420260C1F8042170474FF0204372
:1034B00043F2DB021A60EFE710B5D0E901121143C5
:1034C000D0E903231A43114342691143826911432E
:1034D000C2691143026A1143426A1143826A11436D
:1034E000C26A1143026B114302689200A2F1C0420A
:1034F00011608168082907D101688900A1F1C041E4
:103500000A6842F040020A60416BD1E9002342EAB6
:1035100003128B688C891B0243EA04431A430B8A0B
:1035200042EA03520B7D896942EA03620A43016859
:10353000491C8900A1F1C0410A60C16AB1F5804F00
:1035400008D000686FF070418000A0F1C040C0F862
:10355000041110BD816BD1E9002342EA03128B688C
:103560000C8A1B0243EA04531A430B7D896942EA21
:10357000036200680A438000A0F1C040C0F8042143
:1035800010BD10B500210160022242608160C1605F
:10359000016141618161C1610162D20242625200F6
:1035A0008262C1620163436B0F221A60436B5A60EF
:1035B000446BFF23A360446BE260446B2261446B65
:1035C0006261446BA161846B2260846B6260846B76
:1035D000A360836BDA60836B1A61836B5A61806BC3
:1035E000816110BD8000A0F1C040002904D00168B5
:1035F00041F00101016070470168CE4A114001604D
:10360000704710B5182440234FF020414FF0FC3292
:10361000102805D041F8804F4B608A60CA6010BD09
:103620000C664B668A66CA6610BD30B5D0E90112D9
:103630001143D0E903231A431143426941EA42216D
:10364000826941EA423141F00804C169D1E90023AD
:1036500042EA03220B89097B1B0443EA01610A4306
:10366000016AD1E9003543EA05230D89097B2D0460
:1036700045EA01610B4301684FF02040102904D056
:1036800040F8804F8260C36030BD04668266C366C6
:1036900030BD10210160002141608160C160016185
:1036A00041618161C269FC211160C2695160C269D6
:1036B0009160C269D160026A1160026A5160026A57
:1036C0009160006AC16070474FF0204200290CD021
:1036D000102805D052F8800F40F0040010607047A9
:1036E000106E40F00400106670479249C91E102801
:1036F00004D052F8800F084010607047106E0840E8
:10370000106670474FF0204200290CD0102805D0D9
:1037100052F8800F40F0400010607047106E40F08B
:1037200040001066704783493F39102804D052F892
:10373000800F084010607047106E08401066704798
:103740004FF02041102802D0D1F894007047486F04
:103750007047794818210160002141604FF0FC3129
:103760008160C1600161704710B5D0E9001241EA83
:1037700042218268102343EA423211436E4A1160AB
:10378000C168D1E9003443EA04230C89097B24048D
:1037900044EA01610B4393600169D1E9003443EAD3
:1037A00004230C89097B240444EA01610B43D360A0
:1037B0004069D0E9001341EA03210389007B1B041F
:1037C00043EA00600143116110BD002101604160C6
:1037D0008160C268FC211160C2685160C26891605A
:1037E000C268D1600269116002695160026991602A
:1037F0000269D16042691160426951604269916019
:103800004069C16070474FF02041002805D051F851
:10381000A00F40F004000860704751F8A00F454A1F
:10382000D21E10400860704710B54FF480744FF0FE
:103830002043002A11D0102806D0A04208D153F806
:10384000840F0843186010BD586E0843586610BDB9
:1038500053F8A40F0843186010BD102806D0A042EA
:1038600008D153F8840F8843186010BD586E884300
:10387000586610BD53F8A40F8843186010BD034666
:1038800000204FF02042102B08D0B3F5807F07D0E6
:10389000D2F8A4200A4200D001207047526EF9E706
:1038A000D2F88420F6E74FF02042102807D0B0F578
:1038B000807F08D052F8A40F884310607047506E84
:1038C00088435066704752F8840F884310607047F1
:1038D000034600204FF02042102B0ED0B3F5807F1E
:1038E0000DD0D2F8A42002EA010302EAD101002B94
:1038F00002D0002900D001207047526EF3E7D2F8C1
:103900008420F0E74FF02042102808D0B0F5807FE7
:103910000AD052F8A40F20EAD10010607047506E10
:1039200020EAD1005066704752F8840F20EAD10097
:1039300010607047FEFF0F00A00000A010B57F4987
:10394000884209D10121084600F077FA0021BDE83C
:103950001040012000F071BA7949884209D1012153
:10396000022000F06AFA0021BDE81040022000F0B9
:1039700064BA7449884209D10121042000F05DFA3B
:103980000021BDE81040042000F057BA6E4988427B
:1039900009D10121082000F050FA0021BDE81040B3
:1039A000082000F04ABA6949884209D10121102053
:1039B00000F043FA0021BDE81040102000F03DBAAD
:1039C0006349884209D10121202000F036FA002104
:1039D000BDE81040202000F030BA5E49884209D18D
:1039E0000121402000F029FA0021BDE810404020CC
:1039F00000F023BA5849884209D10121802000F003
:103A00001CFA0021BDE81040802000F016BA53498E
:103A100088420AD184150121204600F00EFA204682
:103A2000BDE81040002100F008BA10BD2DE9F041BA
:103A3000002201274FF0030C07FA02F50B682B4018
:103A4000AB422CD1066853000CFA03F4A64306607F
:103A50000E79D0F800809E4046EA080606600E798E
:103A6000012E01D0022E12D18668A64386604E79BF
:103A7000D0F808809E4046EA080686604668AE4355
:103A8000466045688E799640B6B235434560C56854
:103A9000A543C560CC799C40C3681C43C460521CDC
:103AA000102AC9D3BDE8F0814FF6FF7101600021F3
:103AB000017141718171C171704708B541F4803263
:103AC0000092009AC261C1610099C161C169C06977
:103AD000009008BD0246002012690A4200D0012071
:103AE0007047006980B270470246002052690A425E
:103AF00000D001207047406980B270470183704751
:103B000041837047002A01D0018370474183704789
:103B10004161704742694A404261704710B54B07A6
:103B2000DB0E9A40C90800EB8100016A0F249C401B
:103B3000A1430162016A1143016210BD000002400D
:103B40000004024000080240000C02400010024045
:103B50000014024000180240001C024000200240F5
:103B6000F848016841F001010160F64A002108327D
:103B700011600268F44B1A400260031DF34A1A6098
:103B8000026822F480220260EE480C300160704727
:103B9000EC490022891C0A70087070470246002018
:103BA000510901290CD002290DD0E6497431096868
:103BB00002F01F02012393400B4200D00120704706
:103BC000E0490968F4E7DF4970310968F0E718B5A2
:103BD000002000904FF4A0443120FFF7DFFF009950
:103BE000491C00910099A14201D00028F4D0312055
:103BF000FFF7D4FF08B1012018BD002018BDD14A3D
:103C0000116821F0F80141EAC00010607047D04906
:103C100008607047CB49002270310A700A70012891
:103C200004D0042801D105200870704701200870D5
:103C30007047C8490860704710B5029C41EA82117C
:103C40004FF0FF3202EB530241EA0241014341EAE5
:103C50000460BC49091D086010BDBD490866704775
:103C6000800140EA0170B749843108607047B84963
:103C700088667047B649C8647047B24B08331A6803
:103C800022F0EC620843104318607047AD4B0833D4
:103C90001A6822F078420843104318607047A94A16
:103CA0000832116821F00301014311607047A548F3
:103CB0000830006800F00C007047A24A0832116812
:103CC00021F0F0010143116070479E4A08321168EB
:103CD00021F4E0510143116070479A4A083211689B
:103CE00021F4604141EAC0001060704770B5954B07
:103CF0000833196801F00C01974C00291ED066109A
:103D000004291DD008291DD00460196801F0F001B4
:103D10000909924A545C0168E14041601C6804F45E
:103D2000E054A40A145D21FA04F484601B6803F4CF
:103D300060435B0BD25CD140C16070BD0460E4E7BE
:103D40000660E2E77F4A121D1168C1F380551168D1
:103D500001F03F0135B1B6FBF1F11468C4F38814EA
:103D6000614305E0B4FBF1F11468C4F388146143C6
:103D70001268C2F30142521C5200B1FBF2F1016021
:103D8000C3E7C0F30121032908D16E4B083319683A
:103D900021F4F8127249014011431960694A7032E6
:103DA0001168C0F30B000143116070476949443941
:103DB0000860704767494039086070476949086082
:103DC0007047604A3032002903D011680143116006
:103DD000704711688143116070475A4A3432002994
:103DE00003D011680143116070471168814311606D
:103DF0007047544A3832002903D0116801431160DA
:103E0000704711688143116070474E4A4032002963
:103E100003D011680143116070471168814311603C
:103E20007047484A4432002903D0116801431160A9
:103E300070471168814311607047424A103200296F
:103E400003D011680143116070471168814311600C
:103E500070473C4A1432002903D0116801431160B5
:103E600070471168814311607047364A1832002943
:103E700003D01168014311607047116881431160DC
:103E80007047304A2032002903D011680143116085
:103E9000704711688143116070472A4A2432002913
:103EA00003D01168014311607047116881431160AC
:103EB0007047244A5032002903D011680143116031
:103EC000704711688143116070471E4A54320029BF
:103ED00003D011680143116070471168814311607C
:103EE0007047184A5832002903D011680143116005
:103EF00070471168814311607047124A603200298F
:103F000003D011680143116070471168814311604B
:103F100070470C4A6432002903D0116801431160D4
:103F200070471168814311607047064A0D320029BD
:103F300003D01178014311707047117881431170DB
:103F40007047000000380240FFFFF6FE10300024EA
:103F500000004742800E47420024F400B4000020D5
:103F6000FFFCFF0F5C0147420948016841F0807186
:103F70000160E5E701460020054A683A12680A42F6
:103F8000DED00120DCE7024966390870D8E700007E
:103F90007438024010B50121CC022046FFF77DFFA6
:103FA0002046BDE810400021FFF777BF30B5644BD5
:103FB000196847F6FF629143027D8468C568224311
:103FC00044682C43224304680069224302430A43A5
:103FD0001A6030BD00210175016041608160C160DF
:103FE000016170475749086070475549091F0860CB
:103FF00070475348001F006800F00300704710B579
:104000004F4A0168121D1160141D21686FF30A01E7
:10401000D0E901231A43D0E9033003431A430A438A
:10402000226010BD0021016041608160C1600161BA
:10403000704743480C300068C0B2704708B540492B
:104040001031084400900098006808BD10B53C4A43
:10405000016820321160121D41681160141D216831
:1040600021F0F701D0E902231A43D0E904300343D9
:104070001A430A43226010BD4FF0FF310160002156
:1040800041608160C1600161416170472C482C3002
:10409000006870472A487C300068704728497C31A6
:1040A0000860704726484430006870472649086019
:1040B00070472549091D0860704723490831086089
:1040C000704721490C3108607047204908607047EB
:1040D0001E49091D08607047012181431B480830B3
:1040E0000160704719490C3108607047164914394E
:1040F00008607047124A3832002903D01168014322
:1041000011607047116881431160704701460020BB
:104110000B4A303212680A4200D001207047084929
:1041200034310860704701460020054A3032126879
:104130000A4200D0012070470149343108607047BD
:10414000042C0140A0802542A0852542AC81254257
:1041500010B501218C032046FFF79FFE2046BDE8E5
:1041600010400021FFF799BE11490860704710B553
:104170008A07120F0F23934021F003040D492144B5
:1041800001F608010C689C430C600B6890400343E7
:104190000B6010BD08490860704708490860704707
:1041A0000020034920310968C90500D50120704766
:1041B0000038014000300140DC0027420004274263
:1041C00001B581B00198009002E00098401E009077
:1041D00000980028F9D10CBD10B501214C062046ED
:1041E000FFF72BFE2046BDE810400021FFF725BE5B
:1041F00001210160002141608160C16001614FF4D3
:10420000804242618161C161D21002624162816279
:10421000C162016341638163C16340220264202261
:1042200042648164C164016541658165C16501665F
:10423000802242668166C166016741678167C16706
:10424000D204C0F880205210C0F88420C0F8881032
:104250001311C0F88C30C0F89010C0F89410C0F85A
:104260009810C0F89C10C0F8A010C0F8A4205212FA
:10427000C0F8A8209201C0F8AC205212C0F8B020BB
:10428000C0F8B410C0F8B810704738B500230093D8
:10429000FB4B1C6904F01C054FF6FF7404EAC024B4
:1042A0002C434FF4F86000EA8110204340F00200F4
:1042B00040F001005A611861F2490098401C0090DA
:1042C0001869C00702D000988842F6D30098884247
:1042D00001D1002038BD012038BD18B50022009260
:1042E000E74A136903F01C044FF6FF7303EAC02387
:1042F00023434FF4F86000EA8110184320F00200D5
:1043000040F001001061DF490098401C00901069E6
:10431000C00702D000988842F6D30098884201D1A5
:10432000002018BD506980B218BD2DE9F04186B05B
:1043300004468846002705970097D14E306920F043
:104340001C0501A8FFF7D2FC0298CF49CF4A0144CF
:10435000914202D245F0080516E0CD49CD4A01440C
:10436000914202D245F00C050EE0CB49CB4A014404
:10437000914209D3CA490844CA49884202D245F049
:10438000040501E045F0100535614FF400420021BD
:104390004046FFF77AFFC0B1C348FFF711FF20681E
:1043A00080B3B84D0098401C009001214046FFF7B3
:1043B00094FF400702D40098A842F3D30098A84283
:1043C00005D1002006B0BDE8F0810020FAE7009793
:1043D0004FF4805200214046FFF757FF08B90020F4
:1043E000F0E70098401C009001214046FFF775FF60
:1043F000800602D40098A842F3D30098A84202D1C4
:104400000020DFE71DE000971F214046FFF765FF12
:1044100000F01C00042811D04FF48042082807D077
:10442000D1100E2807D012281CD12162626119E038
:104430002762626116E02162676113E027626761AB
:1044400010E0206A0021C0F3CF026069C0F34F0082
:1044500002434046FFF719FF00287CD06FF07F40F1
:10446000FFF7AEFE306891490840D4E901121143CC
:10447000E26854F8103F1A43114362681143A2687E
:104480001143E26811432269114362691143A26931
:104490001143E2691143226A1143626A14341143E1
:1044A0000143316054F8140F61680843D4E90212E3
:1044B000114308432169084361690843A16908431E
:1044C000E16908437060206AB060606AF060B069BA
:1044D0004FF641710840D4E90B121143238D626BF2
:1044E00042EA03421143A26B1143E26B11430143C1
:1044F000B161D4E910010843F0616D4881696D4AEA
:104500001140D4E912231A43D4E914352B431A433A
:10451000A36D1A43E36D1A43236E1A43636E1A4365
:10452000A36E1A430A438261D4E91B121143626FDE
:1045300054F8783F1A431143626841EA8201A26845
:10454000114341F400010160016841F08001016004
:10455000012037E7FFE7002034E75549002804D061
:10456000886940F0020088617047886920F0020085
:10457000886170474E49002804D0886940F4005093
:1045800088617047886920F40050886170473C4911
:10459000002804D0086840F00400086070470868EC
:1045A00020F00400086070474148816941F480119F
:1045B000816170473249002804D0086840F0080043
:1045C00008607047086820F008000860704700B570
:1045D0000120FFF7EFFFFFF7E7FF0120FFF7D7FF0D
:1045E0000120FFF7C7FF01205DF804EBB5E70020CD
:1045F00023498969C90700D0012070472048816993
:1046000041F00101816170471D49002804D088698B
:1046100040F0010088617047886920F001008861DE
:10462000704701460020164A926B0A4200D00120D2
:10463000704701460020124A926B0A4200D00120C6
:1046400070470F4A002903D0D16B8143D163704773
:10465000D16B0143D16370470A794B7942EA032257
:10466000074B184402640A78CB7842EA03628B78DD
:1046700049781B0443EA01210A4342647047000061
:1046800000800240FFFF040000D3CEFEC0E1E40042
:1046900040F1E9FD40787D0100796CFC005A62022E
:1046A000001F0AFA80F0FA02FFFF0F000F8120FFBF
:1046B00000900240233FDEF8F94A0244106C030ADE
:1046C0004B710871506C020ECA70020C8A70020A9B
:1046D0004A700870D2E7F24A0029104404D0016CF5
:1046E00041F000410164C9E7016C21F0004101641F
:1046F000C4E7EB4A0829104404D0016C41F0804122
:104700000164BBE7016C21F080410164B6E7E44A33
:104710001044026C22F07C520264026C0A43026470
:10472000ACE71EB5002101910291DE4B59680A6881
:10473000C2F30D42121F00929A689468012C03D9AB
:1047400012689268019201E08A6801920291C96838
:1047500059609DE80E000EC01EBD1FB500210191DD
:10476000029103910091CF4B99681AE0009C641C60
:1047700000941468A40509D51468E40506D40A60F9
:1047800001228A605A68D2685A600AE01468E40517
:1047900012D41468A4050FD48C68641C8C60D26891
:1047A0005A605A681468002C02DB009C052CDDD38B
:1047B00001A90EC90EC01FBD5C684C608C68641CEA
:1047C0008C608C68012C00D10A605A681468C4F3AC
:1047D0000D44241F01948C68012C03D90968896851
:1047E000029101E0916802910392D168596001A998
:1047F0000EC90EC01FBDF0B50023AA4D29680A6876
:10480000002A01DA0020F0BD40F2F456B04208D987
:10481000B0FBF6F2B0FBF6F406FB140414B1521C24
:1048200000E00122012A2CD10A6842F040520A60BD
:10483000C0F30C004860086840F000400860C86899
:10484000286021E023B92C68276847F0805727604B
:104850004E60541EA3420ED10C6844F000540C600C
:10486000C2F10104C4EBC41404EB440400EB84045F
:10487000C4F30C044C600C6844F000440C60C9683C
:104880005B1C9342DED3296087484169490703D501
:1048900004214161002141600120F0BD2DE9F0417A
:1048A0000023804F78604FF0004C44F2F458561EBD
:1048B00014E000EB4314C4F800C0C4F80480C3EB58
:1048C000C31505EB450501EB8505A560B34203D291
:1048D00004F12005E56000E0E0605B1C9342E8D352
:1048E0007149C8607148B8606DE56E4A50680368E8
:1048F0001146002B896808DB0368DB0505D5486095
:104900008868401C88600120B8E60368002B0EDB35
:1049100003689B050BD50368DB0508D408600020FD
:104920004860012088605068C06850600DE00368EE
:10493000002B0ADB03689B0507D40368DB0504D45E
:104940008B685B1C8B60C0685060002096E6F0B5F9
:104950000023544C20604FF48017561E11E000EBEA
:1049600043142760C3EBC31505EB450501EB850533
:10497000A560B34203D204F12005E56000E0E060E9
:104980005B1C9342EBD348490861F0BD024600200E
:1049900012680A4200D0012070E60068C0F3C3002C
:1049A0006CE6016841F00041016067E6002904D02F
:1049B000016841F08041016060E6016821F08041BA
:1049C00001605BE602680A43026057E602680A4338
:1049D000026053E6002904D0016821F00061016003
:1049E0004CE6016841F00061016047E6002904D00F
:1049F000016841F48011016040E6016821F48011F2
:104A000001603BE6002904D0016821F0806101606B
:104A100034E6016841F0806101602FE6436841EAB5
:104A200002410B43436029E60246002012680A4215
:104A300000D0012022E60246002012690A4200D07E
:104A400001201BE6016841F00041016016E60068A4
:104A5000C0F30D4012E64268002903D022F0004165
:104A600041600BE642F00041416007E640680029E2
:104A700002D0C0F30C4001E6C0F30C00FEE500B527
:104A800000210268002A08DB0268120405D40268CB
:104A9000D20502D5FFF7DBFF0146084600BD000046
:104AA00000800240C4000020009002409C4700208B
:104AB000AC49002804D0086840F080000860DDE5BB
:104AC000086820F080000860D8E5A648016841F039
:104AD00001010160D2E50020A2490968C90700D0A0
:104AE0000120CBE5014600209E4A52690A4200D0CF
:104AF0000120C3E59B494861C0E59A4A002903D0DB
:104B0000D1690143D161B9E5D1698143D161B5E58D
:104B100001460020934A52690A4200D00120ADE5C7
:104B200090494861AAE58F48406900F00100A5E579
:104B30008C48406900F04000A0E50020894989695F
:104B4000C90200D5012099E501460020854A126A74
:104B50000A4200D0012091E58248006AC0F34A4031
:104B60008CE58048006A80B288E57E48806C85E5E7
:104B70007C48C06C82E57B48006D7FE57948406DDC
:104B80007CE578490020486078E576490020886017
:104B900074E57449486271E530B505460C4600215C
:104BA0002846FFF79AFB14B140F4804201E020F45C
:104BB000804200212846FFF768FB08B1012030BD84
:104BC000002030BD6848C16A41F00041C16255E52E
:104BD0000021654A50F821309362491C0829F9D315
:104BE0004CE56149002804D0C86A40F40070C862EE
:104BF00044E5C86A20F40070C8623FE50146002021
:104C0000594AD26A0A4200D0012037E556490028A5
:104C100004D0C86A40F00400C8622FE5C86A20F0DA
:104C20000400C8622AE55049002804D0C86A40F050
:104C30000200C86222E5C86A20F00200C8621DE5D1
:104C40004949002804D0C86A40F00100C86215E54F
:104C5000C86A20F00100C86210E54448016841F0CC
:104C6000300101600AE54148016821F0200101603E
:104C7000016841F01001016000E53B49002806D0C1
:104C8000D1F8000140F00800C1F80001F6E4D1F8C5
:104C9000000120F00800C1F80001EFE432490028CB
:104CA00006D0D1F8000140F00400C1F80001E5E4AD
:104CB000D1F8000120F00400C1F80001DEE42A4927
:104CC000002806D0D1F8000120F00200C1F8000150
:104CD000D4E4D1F8000140F00200C1F80001CDE4B5
:104CE0002248016841F001010160C7E41E4AC30087
:104CF0000ED520F0805029B1D2F80C118143C2F8B2
:104D00000C11BBE4D2F80C110143C2F80C11B5E44C
:104D100029B1D2F810118143C2F81011AEE4D2F8D3
:104D200010110143C2F81011A8E400210E4AC3007B
:104D300009D5D2F8043103420ED0D2F80C21024238
:104D40000AD1012108E0D2F80831034204D0D2F898
:104D50000C21024200D1012108468FE4024940584B
:104D60008CE400000090024000800240008102407C
:104D700030B50D4685B0114600F06DFB0446B4B168
:104D8000AE4800908DF808500194684600F0F5FF99
:104D9000207A60B1E06806F073F9206906F0CEF879
:104DA0002146062002F0DAF8002005B030BD20468A
:104DB000FBE710B586B00446002C0DD0A04801904A
:104DC000029401A800F0D9FF00206060204600F0A6
:104DD0000CFB002006B010BD0020FBE710B586B02C
:104DE00004466FF00900002CF4D00029F2D0002A0C
:104DF000F0D0944801900294039104928DF81430FD
:104E000001A800F0BAFF94F90800E3E710B586B0F6
:104E10000446002C0BD08C48019002940391ADF80D
:104E2000102001A800F0A9FF94F90800D2E76FF064
:104E30000900CFE710B586B00446002C0BD083489C
:104E4000019002940391ADF8102001A800F095FFA5
:104E500094F90800BEE76FF00900BBE710B586B013
:104E60000446002C08D07A480190029401A800F072
:104E700084FF94F90800ADE76FF00900AAE710B5C8
:104E800086B00446002C08D072480190029401A814
:104E900000F073FF94F908009CE76FF0090099E7B0
:104EA00038B50446002C0DD0606968B1002269460F
:104EB00006F068F8A36A1BB100220121204698473A
:104EC000009838BD002038BD002038BD30B587B00F
:104ED000044600250195002C0BD020696FF00701D6
:104EE00048B194F9082012F1040F07DA002007B046
:104EF00030BD0020FBE721720020F8E72278102A5D
:104F000013D0002201A906F03DF8019858B10268BB
:104F1000A18B1289891AA183A36A23B10068012198
:104F20000289204698470198E1E76078022810D06E
:104F3000052002F004F8019070B100226946206952
:104F400006F020F8009858B10289A08B801AA0833F
:104F500007E021720020CAE7FF2020720020C6E788
:104F60000022A36A13B1012120469847009971B12C
:104F70000198016000994160858185603649029100
:104F8000039470B100680089ADF810000CE00520B2
:104F9000019901F0E3FF207A08B9F920207200207E
:104FA000A5E70120ADF8100002A800F0E6FEBAE780
:104FB00010B586B00446002C09D028480190029410
:104FC000039101A800F0D9FE94F9080002E76FF000
:104FD0000900FFE6002902D08A608B81E8E76FF0C4
:104FE0000800704710B586B00446002C05D0207824
:104FF000102805D06FF00800ECE66FF00900E9E634
:1050000017480190029403918DF81430049201A87E
:1050100000F0B3FE94F90800DCE610B586B0044653
:10502000002C08D00F480190029401A800F0A5FEC2
:1050300094F90800CEE66FF00900CBE6C5550008EC
:10504000E3550008FF5800084B560008DD560008DD
:105050007F570008A15700089D58000833580008E2
:10506000CB580008875900082DE9F04105460F4646
:105070001646002D38D02869B0B3318900220320AC
:1050800002F071F8044644B13146204602F09DF921
:1050900018B1204602F03EF800242CB3052001F0A0
:1050A0004EFF06468EB13460746060680C30B060AC
:1050B000387CB0813146286905F057FF50B1304641
:1050C00000F083FC0020BDE8F081204602F022F8C9
:1050D0000020F8E7A88B21890844A883AB6A1BB19C
:1050E00022890021284698470020ECE72DE9F0416D
:1050F0000446DDF8188016461F46002C15D020699E
:1051000098B1052001F01BFF05469DB12E606E6031
:10511000AF60A5F80C802946206905F026FF70B124
:105120002846BDE8F04100F050BC3046BDE8F041F3
:1051300001F0F0BF3046BDE8F04101F0EBBFA08BBD
:1051400031890844A083A36A002BBCD03289204651
:10515000BDE8F04100211847B5E770B50446114697
:10516000002C08D0206930B1237239B10D89A08B91
:105170002844A08303E06FF0080070BD002520697B
:1051800005F0F3FE10B14FF0FF3070BDA36A1BB104
:105190002A46002120469847002070BD70B504467D
:1051A0000025656021722069002809D0A36A1BB11F
:1051B00000221146204698470021206905F0C8FECC
:1051C000E06830B16078032803D16570E06805F0CD
:1051D00052FF606948B1A36A1BB100221146204604
:1051E00098470021606905F0B3FE6078012801D07E
:1051F000042805D16570E068BDE8704005F03BBF4C
:1052000070BD2DE9F04104460026226A606A5168AB
:1052100001449368181AB0F5803F02D34FF6FF752A
:1052200000E085B26768B7F86E00A84200D2054674
:10523000137B2A46384604F0B6F8002750B1411CCB
:1052400039D0207201261EB16770E06805F013FFA7
:10525000002038E7606A28446062216A89688842D1
:1052600003D101262762676267706068816F61B150
:1052700090F8221011F0440F07D1416F41B10A6834
:105280001AB98989028F914202D304F023F900E010
:10529000002020720028D6D1606840F64261B0F844
:1052A0006E008842CFD8A36A002BCCD02A460321B7
:1052B00020469847C7E7606804F00CF9C3E770B56B
:1052C000044615466078012802D0042804D006E080
:1052D0002046FFF796FF02E0204600F011F86CB17F
:1052E000606858B1B0F86E0040F64261884205D956
:1052F000A36A1BB12A46022120469847002070BDB0
:1053000010B504460021606802F068FF6068017C07
:1053100001292AD0002102F063FF0021606802F019
:1053200068FF0021606802F05EFF042200216068CF
:1053300002F061FF0021606802F058FF606802F02F
:1053400031FCB0B1FE49606802F04DFF0422FD4916
:10535000606802F050FFFC49606802F047FF214698
:105360006068BDE8104002F039BF002102F041FF43
:10537000E4E70020607060602072A36A1BB1002225
:10538000114620469847A36A1BB1002202212046FD
:105390009847E068BDE8104005F06DBE10B5417853
:1053A000012902D0042903D004E0FFF72AFF01E01D
:1053B000FFF7A6FF002010BD10B544680146204647
:1053C00002F00CFFE149204602F00AFFDC492046CA
:1053D00002F009FF0422DB49204602F00CFF2046C0
:1053E000BDE81040D84902F001BF38B50446002599
:1053F0002069002806D10FE0207810280FD00098EF
:1054000000F0E3FA6946206905F0E6FD401CF3D19F
:10541000206905F093FD2561606948B912E00098A4
:105420000028EFD001F076FEECE70098FFF7C1FC12
:105430006946606905F0D0FD401CF6D1606905F051
:105440007DFD6561E06805F01BFEE56021460620F4
:1054500001F084FD38BD2DE9F0410746884606205D
:1054600001F06DFD044620000ED000252572277046
:10547000656007F0F0004FF4FA6110280AD0202888
:1054800006D0402807D101E000201CE6002602E0FB
:105490000E4600E00E46002005F0ADFDE06080B154
:1054A000304605F047FD206188B1656165704FF0B9
:1054B000FF30A061C4F82880A5832562656220467C
:1054C00001E62146062001F049FD0020FBE5E068E9
:1054D00005F0D6FD2146062001F040FD0020F2E552
:1054E0002DE9F04104460E4617466069002818D0A1
:1054F0002078A16AFFF7AFFF05464FF0FF389DB156
:105500006E602846FFF758FF2F722946606905F044
:105510002CFD58B1002068602846FFF766FF404622
:10552000D1E56FF00800CEE54046CCE5A36A1BB19B
:1055300000221146204698470020C4E570B5044675
:1055400000202168087221684FF0FF35087800F0CC
:10555000F00010282AD0202814D0402805D0F720A9
:105560000872206890F9080070BD207902F094F864
:1055700021684860226818B1754902F02CF8F0E7FC
:105580001572EEE704F05DFB21684860216818B1F0
:105590000978222902D003E00D72E2E701210174AB
:1055A00022686C49506804F035FBDAE702F014FE1B
:1055B000014620684160206811B1FFF7FDFED0E789
:1055C0000572CEE710B5044620684068002802D175
:1055D0002046FFF7B3FF2068C068BDE8104005F023
:1055E0004ABD10B5044621684A68002A12D00878DE
:1055F00000F0F000102821D0202805D0402809D143
:10560000104602F035F805E00020D06120684068BF
:1056100004F003FB2068836A13B100221146984707
:105620002068836A13B10022022198472068C0686D
:10563000002809D0BDE8104005F01DBD04204870C9
:105640002068BDE810405BE610BD10B50446206838
:1056500090F9081011F1040F23DB4368FBB10078C7
:1056600000F0F000102812D0202808D0402818D1CF
:105670001846616801F09FFF2168087211E02289D5
:105680001846616804F0F6F92168087209E0228979
:105690001846616802F0EDFB2168087201E0F7210D
:1056A00001722068C068BDE8104005F0E4BC10B588
:1056B0000446002C04D022722078102803D006E083
:1056C0006FF0080010BD12B92046FFF775FE0020EC
:1056D0006070E06805F0CFFC002010BD10B50446F6
:1056E00020684368002B10D0017801F0F0011029E8
:1056F00036D020291AD040290CD0F7210172206819
:10570000C068BDE8104005F0B6BCC068BDE81040F8
:1057100005F0B1BC1846616801F055FF21680872B8
:105720002068C068BDE8104005F0A5BC2289184675
:10573000616804F040FA216808722068C0680BE0D4
:10574000BF5200089D5300089D5100085B5100089E
:1057500069500008ED500008BDE8104005F08BBC12
:10576000032141702068FFF727FE2289D4E9000158
:105770008D4B406802F041FC2168087210BD10B5E5
:105780000446022221680878B2EB101F02D1486853
:1057900004F036FA2068C068BDE8104005F06BBC24
:1057A00070B50446206890F9081011F1040F08DB69
:1057B000426832B10178102903D1117C39B1F82146
:1057C00001722068C068BDE8704005F054BCFF213C
:1057D000104602F0B5FB05464FF0FF365DB120687C
:1057E000006920B105F0AAFB21680020086120684B
:1057F000406918B10BE020680672E2E74FF4FA60E6
:1058000005F098FB2168486108B920680672206895
:10581000017A0029D5D102214170206845602846CF
:10582000216802F0DBFC20686049406802F0E1FC7E
:10583000C7E710B50446216891F9080010F1040F7C
:1058400020DB4868F0B1097801F0F001202910D080
:10585000402917D161688A682AB1096801F0BEFE43
:10586000216808720EE0096801F000FF21680872E3
:1058700008E061688A685AB18B89096804F084F984
:10588000216808722068C068BDE8104005F0F3BBCD
:10589000096804F08DF921680872F3E710B5044631
:1058A000206890F9081011F1040F08DB426832B14A
:1058B0000078102803D1A188104602F0F4F920687E
:1058C000C068BDE8104005F0D6BB016891F908201A
:1058D00012F1040F06DB4A6812B10A78102A05D0CB
:1058E000F7220A720068C06805F0C5BB01224A7041
:1058F00001680862026800215162006881E430B4E6
:1059000002686FF007035168002936D0027B1AB194
:1059100042680968116002E04268496811600168E4
:105920000A7802F0F002102A1DD0202A0AD0402A5C
:1059300024D1027B22B149688268097C11801DE074
:105940000B721BE0027B22B149688268498A118090
:1059500014E04A68147C640701D40B720EE0918A4B
:10596000826811800AE0027B12B14968098B01E06C
:105970004968098C8268118000E013720068C06871
:1059800030BC05F078BB01684A68002A02D00A786A
:10599000102A05D0F7220A720068C06805F06BBBB8
:1059A00004224A700068ABE4AF560008E1540008D6
:1059B00010B5052001F0C3FA28B100210160416053
:1059C0008160818110BD002010BD10B50446002CFF
:1059D0000CD0206820B101F09DFB002060602060A9
:1059E0002146BDE81040052001F0B8BA10BD70B5E1
:1059F00004460D46002C0DD0206808B101F08AFB4A
:105A000000222946104601F0AEFB206020B1606004
:105A1000406870BD002070BD002070BD10B5044608
:105A2000002C06D0206808B101F074FB00206060F3
:105A3000206010BD70B504460E461546002C13D0EC
:105A4000206808B101F066FB00210222084601F03F
:105A50008AFB206058B14660206805812068458136
:105A600020686060002070BD6FF0090070BD0020EC
:105A70006060401E70BD70B504460D46002C0DD010
:105A8000002D0BD02968206801F06CFC2068606054
:105A90002946BDE87040052001F060BA70BD6FF086
:105AA000090300280AD059B162B1436863B15B6849
:105AB0000B6040684089108000207047184670478E
:105AC00018467047184670476FF0010070474FF056
:105AD000FF32002807D04168096831B14160086889
