:020000040800F2
:1000000058C60020D5AC0008B1040008B3040008AD
:10001000B5040008B7040008B90400080000000097
:10002000000000000000000000000000BB04000809
:10003000BD04000800000000BF040008C10400085F
:10004000EFAC0008EFAC0008EFAC0008EFAC000824
:10005000EFAC0008EFAC0008F3040008EFAC0008B8
:10006000EFAC0008EFAC0008EFAC0008EFAC000804
:10007000EFAC0008EFAC0008EFAC0008EFAC0008F4
:10008000EFAC0008EFAC0008EFAC0008EFAC0008E4
:10009000EFAC0008EFAC0008EFAC0008EFAC0008D4
:1000A000EFAC0008EFAC0008EFAC0008EFAC0008C4
:1000B000C5040008EFAC0008EFAC0008EFAC000886
:1000C000EFAC0008EFAC0008EFAC0008EFAC0008A4
:1000D000EFAC0008EFAC0008491600088F160008C6
:1000E000EFAC0008EFAC0008EFAC0008EFAC000884
:1000F000EFAC0008EFAC0008EFAC0008EFAC000874
:10010000EFAC0008EFAC0008EFAC0008EFAC000863
:10011000EFAC0008EFAC0008EFAC0008EFAC000853
:10012000EFAC0008EFAC0008EFAC0008EFAC000843
:10013000EFAC0008EFAC0008EFAC0008EFAC000833
:10014000EFAC0008EFAC0008EFAC0008EFAC000823
:10015000EFAC0008EFAC0008EFAC0008EFAC000813
:10016000EFAC0008EFAC0008EFAC0008EFAC000803
:10017000EFAC0008EFAC0008EFAC0008EFAC0008F3
:10018000EFAC0008EFAC0008DFF80CD00BF0D4F9AE
:1001900000480047D501000858C600201CB50121C1
:1001A000082003F02EFE4FF47040009001208DF8DF
:1001B000040000208DF8060003218DF805108DF84D
:1001C00007006946454803F051FC1CBD0121002091
:1001D00002F048BB0EB5FFF7F9FFFFF7DFFF00F0B5
:1001E00061FE00F021FF00F0A4FA00F091F96846EA
:1001F00000F0C8FC002002F021FB012002F01EFBF1
:10020000022002F01BFB032002F018FB344C0020FC
:1002100020616061A06133A00BF0CCF900F034FDE7
:10022000344935A00BF0C6F906E000F099F901F069
:100230008AFB206800F097F905F0D9F80028F8D07B
:10024000F3E708B52E484068C1B2C0F30722C0F3F7
:100250000743000E00902BA00BF0ACF908BD10B5C1
:100260000121304803F056FC1D4AD16819B101291B
:1002700008D090B113E018B10120D06010689060F0
:10028000002010BD38B111689368C91A282902D31B
:100290000221D16010BD002010BD0020D0600020E0
:1002A00010BD0F490A68104448600A689042FCD8A3
:1002B00070470B4801680A310160704770B5044609
:1002C000194D8021284602F04AFE0028F9D0A1B23B
:1002D000284602F0A2FD204670BD0000000C02403E
:1002E0000000002048656C6C6F576F726C640D0ADB
:1002F00000000000D001002025730D0A000000005E
:1003000098010020436F6E6E6563746564204950E8
:10031000203A2025642E25642E25642E25640D0A9E
:100320000000000000000240004800400CB5002220
:10033000019200925549086840F4803008604FF4FB
:10034000A063086800F4003000900198401C019000
:10035000009810B901989842F3D10868800302D53B
:100360000120009000E000920098012831D1474818
:100370004030026842F0805202604548026842F410
:10038000804202604148083002680260026842F41C
:1003900000420260026842F4A0520260021F3D4B1C
:1003A00013600A6842F080720A600A689201FCD504
:1003B000394A40F205611160016821F003010160D2
:1003C000016841F0020101600168C1F38101022965
:1003D000FAD10CBD10B52D48016841F00101016052
:1003E0002A4A00210832116002682C4B1A40026030
:1003F000031D2B4A1A60026822F4802202602348FF
:100400000C300160FFF792FF26494FF00060086052
:1004100010BD70B51D4E0836306800F00C00224B40
:10042000224900280FD05D1004280ED008280ED0D5
:100430000B6030681D4AC0F30310121D105C0A687F
:10044000C2400A6070BD0B60F3E70D60F1E70F4A30
:10045000121D1068C0F38054106800F03F0034B1E2
:10046000B5FBF0F01368C3F38813584305E0B3FB02
:10047000F0F01368C3F3881358431268C2F30142C3
:10048000521C5200B0FBF2F00860D2E70038024084
:100490000070004008484006003C0240FFFFF6FEA6
:1004A0001030002408ED00E00024F40020000020BB
:1004B0007047FEE7FEE7FEE7FEE7704770477047CC
:1004C000FFF7F7BE10B501218C07204604F03DFB75
:1004D00000280DD00121204604F043FB0B480168A1
:1004E000491C01604168491C41608168491C816068
:1004F00010BD10B5012002F0D0FF002804D0BDE8E7
:100500001040012002F0D7BF10BD000034000020D1
:1005100000B587B006F0ABF906F0A0FA1E4809F066
:10052000C5FA06906FF0FF0009F0C0FA05901A486E
:10053000093809F0BBFA049019490022CDE90021DD
:100540001648029004AB05AA06A9164806F018FB47
:10055000144806F038FB134806F070FB07B000BDE6
:10056000104805F014BA31B50F4C00992068081AEC
:10057000FA2803D30098206007F0B5F80098616866
:10058000401A41F28831884205D300986060BDE886
:1005900038400AF02CB838BD0A01A8C071AC000878
:1005A000B9590008980100204000002000B5AFB004
:1005B00001214FF0606003F024FC04F08FFB05F094
:1005C00006F805F00AF80128FBD0684604F092FB13
:1005D00001200090002007904FF400710A910B90C9
:1005E0000E90119013901490159020900904219171
:1005F0000A112392259026900420289029918003A7
:100600002A9080012B9040122C9040002E900121C6
:10061000684604F00CFC654908602FB000BDFEB5CB
:100620000121072003F0EDFB0121880303F019FCF1
:10063000012003F0CFFD8620009003208DF80500F7
:1006400002248DF8044000258DF806508DF80750DF
:10065000574E6946304603F009FA0B220121304615
:1006600003F07CFA0B220221304603F077FA0B22CA
:100670000721304603F072FA4FF4705000904D4E4F
:100680006946304603F0F2F90B220A21304603F0A6
:1006900065FA0B221146304603F060FA0B220C215A
:1006A000304603F05BFA0B220D21304603F056FA78
:1006B00032200090404E6946304603F0D7F90B22B5
:1006C0000121304603F04AFA0B220421304603F0A0
:1006D00045FA0B220521304603F040FA0420009031
:1006E00001208DF804008DF806508DF807008DF874
:1006F0000540324E6946304603F0B8F904213046D1
:1007000003F01EFA029544F6206402E00299491CA7
:1007100002910299A142F9D30421304603F00EFA66
:10072000029502E00298401C02900298A042F9D380
:10073000FEBD1FB5FFF773FFFFF738FF1B480068CA
:10074000D0B1042002F093FC684603F0EFFA019860
:100750006421B0FBF1F0B0F1807F0CD220F07F413A
:100760004FF0E020491E4161154AF021117000212F
:100770008161072101611FBD4FF4784001F03EFC0B
:1007800001F04BFCC0880FA100EB800080B201F0AB
:10079000EDFC01F042FCC0884FF6FF7100EB400019
:1007A00001EA40000CA101F0E1FCFEE74800002056
:1007B0000000024000040240000802400010024015
:1007C00023ED00E020202045746865726E6574207A
:1007D000496E69742020200020202020202066619E
:1007E000696C65642020202020200000436893422B
:1007F00001D3002070475A1C426001EB03104FF0F8
:10080000FF31816041600021C1607047017042602A
:1008100083600021C16070472DE9F0410F46194601
:10082000069B05462E681BE02C2C1FD008DC092CEB
:100830001CD00A2C1AD00D2C18D0202C06D115E073
:100840003A2C13D05D2C11D07D2C0FD0203C5F2C86
:1008500004D32E606FF00100BDE8F081401C2860D9
:100860002868904202D23C5C002CDDD171B11A465E
:100870002846FFF7BBFF70B1324604212B68FFF713
:10088000C5FF2868401E28600020E5E72868401E54
:1008900028600020E0E72E604FF0FF30DCE72DE914
:1008A000F0470446DDF820800F462668701C206063
:1008B0006FF0010C5AE0222802D05C2815D052E0DB
:1008C0006BB1424619462046FFF790FF48B1721CB3
:1008D00003212368FFF79AFF0020BDE8F08700207E
:1008E000FBE726604FF0FF30F7E7491C91423AD210
:1008F0002160785C662836D008DC222833D02F2887
:1009000031D05C282FD0622808D12CE06E282AD064
:10091000722828D0742826D0752802D02660604618
:10092000DBE7491C2160002112E0A0F13009B9F198
:100930000A0F0AD3A0F14109B9F1060F05D36138B6
:10094000062802D326606046C7E76D1C2560491C57
:10095000042905DA2568954202D2785D0028E4D1A1
:100960002068401E20602068401C20602168914261
:1009700002D2785C00289ED126606FF00200ACE7BE
:100980002DE9F84F04460A9F884691461D46666841
:100990004FF0FF3A3CE0BBF12C0F70D011DCBBF103
:1009A0000D0F32D006DCBBF1090F2ED0BBF10A0FC0
:1009B00018D12AE0BBF1200F27D0BBF1220F11D1B3
:1009C000A0E0BBF15D0F5FD006DCBBF13A0F7DD03C
:1009D000BBF15B0F06D136E0BBF17B0F33D0BBF12F
:1009E0007D0F51D02B464A46414620460097FFF7DF
:1009F00013FF002825DB761CA068411C05D025B11B
:100A000005EB0010C168491CC1602068401C2060D3
:100A100022684A4504D218F802B0BBF1000FBAD1DF
:100A200075B16068401E00280ADB05EB00114A68BA
:100A3000521C02D08968491C79D0401E0028F4DA83
:100A40003046BDE8F88F761C002DDED03A462946A8
:100A50002046FFF7CBFE98B1A1684A1C04D005EBF5
:100A60000111CA68521CCA60BBF17B0F0AD0022177
:100A70000170216841606068401EA060C5E75BE0CE
:100A80005046DEE70121F3E7002DBED0BBF17D0F1C
:100A900025D002236068401E00280EDB05EB001104
:100AA000D1F804C0BCF1FF3F04D0D1F808C0BCF1BC
:100AB000FF3F16D0401E0028F0DA411C1DD0002850
:100AC000A3DB05EB00114A68521C00E030E002D0C5
:100AD0008968491C14D0401E0028F2DA95E70123EA
:100AE000D8E791F800C09C4502D06FF00100A8E75C
:100AF000C4F808A0521C8A60DFE76FF00100A0E78D
:100B0000A06082E72B464A46414620460097FFF701
:100B1000C6FE002895DB761CA068411CAED0002DD7
:100B2000ACD005EB0010C168491CC1606DE726E040
:100B30006068401EA06068E7002D9FD0A068411C3F
:100B40009CD005EB00100078022897D0012895D0A2
:100B50006068401E002891DB05EB00110A78022A2C
:100B600001D0012A05D14A68521C02D08968491C6B
:100B700003D0401E0028EFDA47E7A06045E76FF09A
:100B800002005EE7002101604160491E81607047FC
:100B900070B506460C461546207803280DD1284628
:100BA0000AF0CEF80146D4E90102121A914204D1AA
:100BB000304429460AF0D8F810B14FF0FF3070BD2C
:100BC000002070BD0FB42DE9F8430F46DDF83490D6
:100BD00048460AF0B5F80246002000903B464946D8
:100BE0000AA8FFF7CDFE0646300004D50120BDE877
:100BF000F8035DF814FB012E02DB3878012801D0E0
:100C00000120F4E70124DFF8548139E007EB0415F3
:100C100029464846D8F80020FFF7BAFFA8B1294670
:100C20004846D8F80420FFF7B3FFB0B1294648463C
:100C3000D8F80820FFF7ACFF88B129464846D8F815
:100C40000C20FFF7A5FF60B119E045A344A246A11F
:100C500048460AF0BFFC641C11E0641C0FE0641CF1
:100C60000DE0601C07EB001102460878022806D14F
:100C70000020C96800E0401C8142FCDC8C18641C28
:100C8000B442C3DB0020B2E710B5ADF52C7DFF20E8
:100C900017211A221123CDE90032CDE90210CA230F
:100CA000A02233A131A80AF095FC3D483DA102687D
:100CB00027A80AF08FFC294CD4E90723D4E90910AE
:100CC000CDE90210CDE90023D4E905233DA11DA8FB
:100CD0000AF080FC20690AF058FA02460B4645A14A
:100CE00004A80AF077FC04A81DA9CDE9001027ABE1
:100CF00031AA4DA161A80AF06DFC61A80AF020F8A4
:100D000002464D493BA80AF065FC61AB3BAA4BA1EA
:100D10004D480AF05FFC0DF52C7D012010BD30B56B
:100D20000021012203E02D2B00D15242401C037808
:100D30002D2BF8D02B2BF6D06FF02F0405E001EB14
:100D4000810104EB41011944401C0378A3F13005F3
:100D5000092DF4D901FB02F030BD00004C00002049
:100D600061736461736400002573202573000000C3
:100D700022696F745F6D61635F61646472223A22FD
:100D8000253032583A253032583A253032583A25F3
:100D90003032583A253032583A25303258227D00C8
:100DA0001C00002022696F745F7265717565737431
:100DB0005F686973746F72795F6964223A2225648F
:100DC0002200000022636865636B5F74696D6522B1
:100DD0003A22252E34642D252E32642D252E3264A0
:100DE0003A252E32643A252E32643A252E32642278
:100DF0000000000022636865636B5F6461746122B8
:100E00003A5B7B22696F745F6974656D5F69642208
:100E10003A2241303031222C2264617461223A221C
:100E20002566227D5D0000007B25732C25732C2513
:100E3000732C25737D00000048D1000825730D0A2E
:100E40002025730D0A0D0A00D00100201FB53220A5
:100E50008DF8000000248DF8014001208DF802007B
:100E60008DF80300684602F0BEF80121082002F068
:100E7000ECFF40F21B1002900320ADF80400ADF827
:100E80000C40ADF806401E4C01A9204603F074FA50
:100E900001221146204603F042FE0121204603F0C4
:100EA000E9FA1FBD1FB51C208DF8000000248DF845
:100EB000014001208DF802008DF80300684602F021
:100EC00092F80121084602F0C0FF41F2DF50029083
:100ED0009620ADF80400ADF80C40ADF806404FF098
:100EE000804401A9204603F047FA0122114620461A
:100EF00003F015FE0121204603F0BCFA1FBD0000DF
:100F0000000C00402DE9F04397B026208DF85800E2
:100F100000248DF859404FF001088DF85A808DF863
:100F20005B8016A802F05FF80121480502F069FF16
:100F3000FE4E304602F0B0F84FF000600790FC48DB
:100F40000890FC4D09950A9480150B900C94810033
:100F50000D91C1000E9141010F9110904702119720
:100F6000CDF84C801494159407A9304602F01FF96F
:100F70000121384602F069FF4FF4E1300390ADF8EB
:100F80001040ADF81240ADF81440ADF818404FF0E5
:100F90000C09ADF81690E64F03A93F1F384601F043
:100FA00097FE0121084602F02CFFCDF804900220A4
:100FB0008DF808008DF80A4003208DF809008DF89F
:100FC0000B80DFF8748301A9404602F04FFD072231
:100FD0000221404602F0C2FD07220321404602F0F2
:100FE000BDFD002105F5007020F81140491C89B2B3
:100FF000FF29F9D9002125F81140491C89B2FF29A0
:10100000F9D9CE484480848001224021384601F03D
:1010100081FF0121304602F003F90121384601F039
:10102000D0FE17B0BDE8F08330B587B001210820AD
:1010300002F0E7FE0121880402F007FF4FF4407040
:10104000059003208DF8190002208DF81800002467
:101050008DF81A408DF81B40B94D05A9284602F0BD
:1010600005FD07220821284602F078FD0722092104
:10107000284602F073FD27208DF8000001208DF82E
:1010800001008DF802008DF80300684601F0ABFF07
:101090004FF4E1300190ADF80840ADF80A40ADF8EA
:1010A0000C40ADF810400C20ADF80E00A54C01A985
:1010B000204601F00DFE012240F22551204601F0AC
:1010C00033FF0121204601F07CFE07B030BD974878
:1010D000001D0068994980B20988401A00F58070A7
:1010E000C11700EB116121F0FF01401A80B2704777
:1010F0008E49091D09688AB2904909888A4205D03B
:1011000008448C49C0B231F8100070470020704785
:101110008648001D00688949088070478349091D79
:101120000968C1F580718AB2844B1988914209D04F
:10113000804A12F8111001701878401CC0B2188053
:10114000012070470020704730B5044600207749E1
:10115000091D09688BB2794A764D08E015F811101F
:101160002154401C80B21178491CC9B211801188E9
:101170009942F3D10021215430BD6C488838C06AAF
:101180006E4980B2C988401A00F58070C11700EB23
:10119000116121F0FF01401A80B27047634988391C
:1011A000C96A8AB26549C9888A4205D00844664935
:1011B000C0B231F810007047002070475B48883893
:1011C000C06A5E49C880704758498839C96AC1F504
:1011D00080718AB2594BD988914209D05A4A12F883
:1011E000111001709879401CC0B2D880012070475E
:1011F0000020704730B5044600204C498839C96A40
:101200008BB24E4A504D08E015F811102154401C85
:1012100080B29179491CC9B2D180D1889942F3D169
:101220000021215430BD10B52021464801F097FE21
:101230004448001D008810BD10B5FFF7F4FF3F4A79
:10124000424B116923F81100491C1161002301244C
:10125000632802D1946051611361712803D1D46075
:1012600010695061136110BD344A394B518823F81D
:101270001100491CC8B250802D48012240F227714C
:10128000001F01F051BE10B5044602E0641CFFF7D8
:10129000EBFF20780028F9D110BD70B50546012478
:1012A000002D06D00CDA4FF02D00FFF7DDFF6D4268
:1012B00006E0BDE870403020D6E704EB840044002F
:1012C00095FBF4F00028F8D10A260EE094FBF6F422
:1012D00004EB8400400095FBF0F100FB115090FB03
:1012E000F4F03030C0B2FFF7BFFF012CEED170BD7B
:1012F000D3E7D2E7D1E7D0E7CFE7CEE72DE9F0415A
:1013000004460E4614F0FF4F33D014F1FF4F04D3C0
:101310002D20FFF7A9FF84F00044204609F0FDFED0
:101320000746384609F0D2FE214613E088600240A5
:1013300004440040FC02002000000240780000202D
:10134000000C024000480040FC060020FC08002081
:10135000FC04002009F06CFD05463846FFF79DFFB0
:1013600015F0FF4F23D02E20FFF77EFF0024DA4F29
:101370001BE0BDE8F041302076E73946284609F009
:101380005AFD054615F0FF4F11D0284609F0C5FE5D
:1013900080463030C0B2FFF767FF404609F096FE46
:1013A000294609F045FD0546641CB442E5DBBDE86D
:1013B000F0812DE9F04104460D4617460022134600
:1013C0002046294609F0F4FE03D1BDE8F041302063
:1013D0004AE7002213462046294609F0E9FE04D2D6
:1013E0002D20FFF741FF85F000452046294609F0F2
:1013F000ADFE0646304609F072FE22462B4609F045
:10140000F0FD04460D463046FFF747FF0022134625
:101410002046294609F0CCFEC9D02E20FFF724FF34
:10142000002621E00022AD4B2046294609F0DCFDD4
:1014300004460D46002213462046294609F0B8FE10
:10144000B5D02046294609F081FE80463030C0B232
:10145000FFF70AFF404609F042FE22462B4609F0FC
:10146000C0FD04460D46761CBE42DBDB9FE770B52F
:1014700005469B4C8021204601F071FD0028F9D0E3
:1014800029462046BDE8704001F0C7BC10B50446AF
:1014900002E0FFF7ECFF641C20780028F9D110BDB2
:1014A00070B505460124002D06D00CDA4FF02D0052
:1014B000FFF7DDFF6D4206E0BDE870403020D6E763
:1014C00004EB8400440095FBF4F00028F8D10A26D0
:1014D0000EE094FBF6F404EB8400400095FBF0F181
:1014E00000FB115090FBF4F03030C0B2FFF7BFFFAB
:1014F000012CEED170BDD3E7D2E7D1E7D0E7CFE73B
:10150000CEE72DE9F04104460E4614F0FF4F1ED001
:1015100014F1FF4F04D32D20FFF7A9FF84F00044FE
:10152000204609F0FAFD0746384609F0CFFD21466E
:1015300009F07EFC05463846FFF7B2FF15F0FF4F75
:1015400023D02E20FFF793FF0024634F1BE0BDE85C
:10155000F04130208BE73946284609F06CFC0546FF
:1015600015F0FF4F11D0284609F0D7FD80463030E6
:10157000C0B2FFF77CFF404609F0A8FD294609F0FC
:1015800057FC0546641CB442E5DB10E72DE9F04149
:1015900004460D461746002213462046294609F008
:1015A00007FE03D1BDE8F041302060E7002213467A
:1015B0002046294609F0FCFD04D22D20FFF757FFF5
:1015C00085F000452046294609F0C0FD0646304614
:1015D00009F085FD22462B4609F003FD04460D4621
:1015E0003046FFF75DFF002213462046294609F0EA
:1015F000DFFD28D02E20FFF73AFF002621E0002251
:10160000364B2046294609F0EFFC04460D460022E1
:1016100013462046294609F0CBFD14D02046294622
:1016200009F094FD80463030C0B2FFF720FF4046FD
:1016300009F055FD22462B4609F0D3FC04460D4621
:10164000761CBE42DBDBB2E670B5264D40F2277455
:101650002146284601F0AEFC2146284601F08AFCCE
:1016600000280CD0204A90885188884208D01F4911
:101670002B1D31F810101980401CC0B2908070BD35
:1016800021462846BDE87040002201F04DBC70B5EF
:10169000134D40F225542146284601F06BFC0028EA
:1016A0000BD02146284601F085FCFFF7C5FDE91364
:1016B000BDE870400E4802F04DBA70BD10B51B2059
:1016C000FFF7D5FE0BA0FFF7E1FE1B20FFF7CFFED3
:1016D000BDE8104008A0D9E60000204100002440E9
:1016E000004800400044004078000020FC04002036
:1016F000000C02405B324A005B48000070B50546B2
:101700000C460021284606F01FFA0021284606F064
:1017100020FA0021284606F019FA0021284606F092
:101720001BFA00221146284606F01BFA14B1204687
:1017300005F0B3F82846BDE8704005F0EFBE2DE98E
:10174000F04107460E4600251AE00123384661683D
:1017500007F0D7FA0546280002D0681C10D10EE029
:10176000B4F80A802068B06008B105F0ABFB2046F1
:1017700005F086FA4146384605F051FF00E0B460B6
:10178000002D07D1B468002C04D06289B7F86E0030
:101790008242DAD9BDE8F08110B50246084611460A
:1017A00000290BD08A6812B1FFF7C9FF04E00A785C
:1017B000032A01D1FFF7A2FF002010BD012105F08F
:1017C0009FFF6FF0040010BD002801D005F065B840
:1017D000704710B50246084611468A68002A02D0B2
:1017E000FFF7ADFF04E00A78032A01D1FFF786FF77
:1017F000002010BD2DE9F0419AB0044688461546F8
:101800001F46002D08D00026BFB1A660284605F06F
:1018100037FA38461AB0BDE7A06848B14F4940468C
:1018200006F097F921464046FFF789FF0020F1E7CF
:1018300021464046FFF762FFF8E7207801280BD0E9
:10184000022816D02989404605F0E9FEA660284600
:1018500005F016FA0020DDE702202070A5603F4960
:10186000404606F076F921464046FFF768FF002023
:10187000D0E7A06820B1294605F03EFB0020C9E76B
:10188000A56037A101A86A6809F0A4FE6868FFF79F
:1018900046FA384C206038A0FFF7F8FD2268012096
:1018A0003B49002A01DC0860E8E70E60394908601E
:1018B000FFF7EAF9E2E710B50C460121204606F0F1
:1018C000B7F8102005F05EF80146B1B101200870AC
:1018D0004C6000208860204606F036F92E492046EC
:1018E00006F034F92D49204606F036F901222C493C
:1018F000204606F036F9002010BD4FF0FF3010BD35
:1019000070B506F01FF9274D2860274C0026A8B1B6
:1019100046F2AE22254905F068FF20B124A009F067
:1019200049FE266070BDFF21286805F0C3FF2860CE
:10193000244906F014F90120206070BD22A009F0AE
:1019400039FE266070BD10B516481E49006806F0C5
:1019500006F915490120086010BD0000D3170008E2
:1019600053657269616C206E6F3A202573200D0AF1
:10197000000000001C00002053595354454D203EE8
:101980003E204745542053657269616C0D0A000082
:101990001000002018000020F5170008C9170008E3
:1019A00099170008900000201400002034D100088E
:1019B00043616E206E6F742062696E642070636292
:1019C0000A000000B718000843616E206E6F742093
:1019D000637265617465206E6577207063620A00CA
:1019E00070477CB5FFF7FCFF0121042001F01AFECF
:1019F000042001F069FD4CF20370009000208DF886
:101A000004008DF80700FB4D6946284602F02EF8C9
:101A100000221146284602F0A1F8002201212846A2
:101A200002F09CF800220821284602F097F80022D4
:101A30000921284602F092F800220A21284602F0E5
:101A40008DF800220E21284602F088F800220F218E
:101A5000284602F083F84FF680700090E64C694605
:101A6000204602F003F800220721204602F076F813
:101A700000220821204602F071F8002209212046A8
:101A800002F06CF800220A21204602F067F80022DA
:101A90000B21204602F062F800220C21204602F0C1
:101AA0005DF800220D21204602F058F800220E2198
:101AB000204602F053F800220F21204602F04EF893
:101AC0004FF23F010091CD4E6946304601F0CEFF06
:101AD00000221146304602F041F800220121304632
:101AE00002F03CF800220221304602F037F80022D2
:101AF0000321304602F032F800220421304602F081
:101B00002DF800220521304602F028F800220C2191
:101B1000304602F023F800220D21304602F01EF874
:101B200000220E21304602F019F800220F21304623
:101B300002F014F83F210091B14E6946304601F0A1
:101B400095FF00221146304602F008F800220121DC
:101B5000304602F003F800220221304601F0FEFF79
:101B600000220321304601F0F9FF00220421304613
:101B700001F0F4FF00220521304601F0EFFF4FF4A1
:101B8000605100916946284601F070FF00220B2148
:101B9000284601F0E3FF00220C21284601F0DEFF79
:101BA00000220D21284601F0D9FF3021009169461D
:101BB000284601F05BFF00220421284601F0CEFFF9
:101BC00000220521284601F0C9FF21150091694630
:101BD000304601F04BFF00220C21304601F0BEFFE1
:101BE000032100916946204601F040FF0022114682
:101BF000204601F0B3FF00220121204601F0AEFF94
:101C00007CBD2DE9FC4101213A2002F0FAF84CF2AA
:101C10003370009002208DF804008DF80500002438
:101C20008DF806408DF80740724F6946384601F03E
:101C30001DFF0C220021384601F090FF0C220121EB
:101C4000384601F08BFF0C220421384601F086FF54
:101C50000C220521384601F081FF0C22082138466C
:101C600001F07CFF0C220921384601F077FF0C229D
:101C70000A21384601F072FF0C220E21384601F08D
:101C80006DFF0C220F21384601F068FF4FF680707F
:101C90000090594E6946304601F0E8FE0C220721BB
:101CA000304601F05BFF0C220821304601F056FF60
:101CB0000C220921304601F051FF0C220A21304646
:101CC00001F04CFF0C220B21304601F047FF0C22A3
:101CD0001146304601F042FF0C220D21304601F042
:101CE0003DFF0C220E21304601F038FF0C220F215F
:101CF000304601F033FF082500956946304601F073
:101D0000B5FE0C220321304601F028FF8020009010
:101D10006946384601F0AAFE0C220A21384601F035
:101D20001DFF009501258DF804508DF805408DF8B4
:101D300006408DF807406946384601F097FE6E036D
:101D400000968DF804508DF805508DF806408DF8FA
:101D500007406946384601F089FE3146384601F0B1
:101D6000EDFEBDE8FC8100B597B00121084602F008
:101D700060F8012001900020029009210391049055
:101D8000059006900790089009900A9010210B91F9
:101D90000C900D900E900F901090090211911290DE
:101DA0001390149001A81590169008A801F0A4FBB8
:101DB0000121002001F036FC17B000BD1149486038
:101DC00070471149088070474FF0C04210800E489C
:101DD0000180704701B581B042F21071019848430B
:101DE000009002E00098401E009000980028F9D171
:101DF0000CBD0000000C0240001002400014024024
:101E000000180240940000200000106010B5FFF799
:101E1000F8FEFFF7A8FF0520FFF7DCFFFE4C0821C6
:101E2000204601F08DFE0A20FFF7D4FF082120464E
:101E300001F084FE01211020FFF7C6FFB2211E2011
:101E4000FFF7C2FF06212820FFF7BEFF0121002077
:101E5000FFF7BAFF43F2EF010120FFF7B5FF4FF4A0
:101E6000C0610220FFF7B0FF00211020FFF7ACFF98
:101E70000520FFF7AFFF46F630011120FFF7A4FF62
:101E800040F699111220FFF79FFF4FF46051262072
:101E9000FFF79AFF33210720FFF796FF05210C205B
:101EA000FFF792FF00213020FFF78EFF40F2033151
:101EB0003120FFF789FF40F207413220FFF784FF0E
:101EC00040F2013319463320FFF77EFF19463420D4
:101ED000FFF77AFF40F203413520FFF775FF40F22C
:101EE00007713620FFF770FF21153720FFF76CFFD1
:101EF0004FF420613A20FFF767FFA1143B20FFF762
:101F000063FF0A210D20FFF75FFF4FF438510E20C9
:101F1000FFF75AFF4FF46F414420FFF755FF0021B0
:101F20004520FFF751FF40F23F114620FFF74CFFDD
:101F300000214E20FFF748FF00214F20FFF744FF0C
:101F400000212220FFF740FF00224FF496330020AB
:101F5000FFF737FF521C9A42F9D3BDE81040AF4853
:101F60002CE700B50B4601464E20FFF72DFF194622
:101F70004F205DF804EB27E74FF0C0410880A848E8
:101F8000008870474FF0C041222008807047A44865
:101F90000088704700B500210846FFF7E2FFFFF711
:101FA000F1FF00209E494FF478424FF4C8430A8065
:101FB000401C9842FBD34FF4FC624FF4484301E0CD
:101FC0000A80401C9842FBD31F224FF4963301E055
:101FD0000A80401C9842FBD300BD03B5BDF8001039
:101FE0008E4808380180BDF80410418000E78B4A14
:101FF000083A1388038050880880704701B5BDF8FF
:10200000000086490839088008BD01B5BDF8000008
:1020100082490839488008BD7047804808384068C0
:1020200070472DE9F04105468846164600242946AA
:102030004046FFF796FF794F083F29E0FFF7A2FFE0
:1020400000231AE00C21B0FBF1F1C90080228A4084
:1020500036F814101A410A4201D10C2805D9012280
:102060009A40114205D10C2803D97888FFF7A9FEC0
:1020700002E03888FFF7A5FE5B1C786880889842EC
:10208000E0D86D1CADB229464046FFF76AFF641CDC
:102090007868C088A042D1D8BDE8F08110B4203A59
:1020A000D3B25E4A083A52681468D2885A4304EBA5
:1020B000420210BCB5E7F0B507460024574D4FF477
:1020C000A076083D202221463846FFF7E7FF6868E2
:1020D0008188081984B2B442F4D3F0BD30B5054606
:1020E000002400210846FFF73CFFFFF74BFF4C4957
:1020F0004FF496300D80641C8442FBD330BD2DE933
:10210000F04380460D46164699460024294640462F
:10211000FFF727FF414F083FB9F1000F16D1FFF736
:1021200031FF03E03888FFF74CFE641CB442F9D35A
:10213000BDE8F083FFF726FF3888FFF742FE6D1CED
:10214000ADB229464046FFF70CFF641CB442F1D300
:10215000EEE7B0F5A07F08D2002906DBEF2904DC0A
:10216000002389B280B20122C9E770472DE9F0410E
:1021700080460D460024294E4FF4A077083E0AE021
:1021800021464046FFF78AFF70688088204484B269
:10219000BC4281D26D1C2A78002AF1D17CE770B54F
:1021A00004460D46164621464520FFF70DFEA219AE
:1021B000B2F5A07F05D340F23F114620FFF704FEA1
:1021C00003E091B24620FFF7FFFDEA18F02A02D3A0
:1021D0004FF46F4200E01202224391B24420FFF715
:1021E000F3FD29462046BDE87040BAE67047F0B5D9
:1021F00004460F4615461E46012332463946204600
:10220000FFF77DFF6019401E80B201233246394638
:10221000FFF775FF002305E0000C02409C00002042
:10222000000010602A4639462046FFF768FFB819BB
:1022300081B22A462046BDE8F04000235FE72DE941
:10224000FC4F804689460320A0EB42060024154639
:1022500074E008EB040009EB050A01901FFA8AF10B
:1022600080B2FFF77EFEFFF78DFEFE4F3888FFF746
:10227000A8FD0198A9EB050B1FFA8BF180B2FFF7BF
:1022800070FEFFF77FFE3888FFF79BFD1FFA8AF18B
:10229000A8EB040A1FFA8AF0FFF763FEFFF772FE4D
:1022A0003888FFF78EFD1FFA8BF11FFA8AF0FFF7CF
:1022B00058FEFFF767FE3888FFF783FD09EB04003F
:1022C00081B208EB050A00901FFA8AF0FFF749FE79
:1022D000FFF758FE3888FFF774FDA9EB040B1FFACF
:1022E0008BF11FFA8AF0FFF73CFEFFF74BFE3888B0
:1022F000FFF767FD0098A8EB050A81B21FFA8AF084
:10230000FFF72FFEFFF73EFE3888FFF75AFD1FFA52
:102310008BF11FFA8AF0FFF724FEFFF733FE3888AF
:10232000FFF74FFD002E03DA06EB8406B61D04E02E
:10233000601B06EB80060A366D1E641CAC4288D911
:10234000BDE8FC8FF0B50646002440F23F110020A6
:10235000FFF707FEFFF716FEC24D01234FF4166785
:10236000002256F8241003FA02F0014203D16888D3
:10237000FFF727FD02E02888FFF723FD521C202AE3
:10238000EFD3641CBC42EBD3F0BD70472DE9F043A2
:102390000746894690461C46B24E3088FFF72EFE0F
:1023A0000023424649463846FFF7A9FE09EB0400E0
:1023B00081B2002342463846FFF7A1FE01232246A0
:1023C00049463846FFF79BFE07EB0800401E80B2E7
:1023D000012322464946FFF792FE641EA5B209F189
:1023E00001091FFA89F47088FFF708FE07E021460B
:1023F000641CA4B2002342463846FFF780FE6D1EDF
:10240000ADB2F4D23088BDE8F043F7E52DE9F74FDF
:102410000746884602980321A1EB40060024029D4E
:1024200090484088FFF7EAFD4FF6FF7935E09DB10F
:1024300009EA450208EB050A381B93461FFA8AF1A0
:1024400080B20023FFF75BFE38195A461FFA8AF163
:1024500080B20023FFF753FE9CB109EA440208EB67
:10246000040A781B93461FFA8AF180B20023FFF713
:1024700046FE78195A461FFA8AF180B20023FFF708
:102480003EFE002E03DA06EB8406B61D04E0601B58
:1024900006EB80060A366D1E641CAC42C7D9714833
:1024A0000088FFF7ABFD029A03B041463846BDE80D
:1024B000F04FC4E62DE9FC5F84460C460027A2EBF2
:1024C0000C00002801DCACEB020000B2191B002953
:1024D00000DCE11A09B20FFA8CF526B24FF0FF3B8F
:1024E000624503D34FF00109CA4601E0D946DA46F6
:1024F000A34204D34FF0010B0122019201E0CDF879
:1025000004B088420ADB4FF000090022019200EB80
:10251000D072521014B20091804623E04FF0000AAE
:10252000D34601EBD172521014B20090884619E0E4
:1025300031462846FFF70DFE0098204404B244457A
:1025400008DBA4EB080004B205EB090005B206EBBA
:102550000B0006B205EB0A0005B20198304406B242
:102560007F1C3FB24745E3DDBDE8FC9F70B50446E4
:102570000D46022D0DD308E020886188241D89B204
:102580006388228880B2FFF795FF6D1E2D042D0C05
:10259000F2D170BD2DE9F04704460F469146A046A2
:1025A000022F25D3B4F90050B4F9026010E0241DC5
:1025B000B1B26088304483B22088284482B2A8B285
:1025C000FFF778FF2088284405B26088304406B2BF
:1025D0007F1E3F043F0CEAD1B9F1000F08D0B3B21F
:1025E000AAB2B8F80210B8F80000BDE8F04761E7F9
:1025F000BDE8F08770B504460D4629462046FFF732
:10260000B5FF04EB8500001F61884388028820889D
:10261000BDE870404EE70022BCE70122BAE72DE991
:10262000F34FE9B00446B4F800A0D346658801959D
:10263000012013E004EB80014988514500D28A460D
:10264000594500D98B4634F82020AA4200D21546BD
:1026500001998A4200D90192401C80B26A9988424D
:10266000E8D301E0940000205F484088FFF7C6FCF3
:102670000295AEE04FF000096A98401E1FFA80F8FC
:1026800000254FE0029808F03BFD064667916890F0
:102690000F4634F9250008F022FD32463B4608F08B
:1026A00087FD0AD234F92800679F689E08F017FD5D
:1026B00032463B4608F094FD15D934F92800679F4F
:1026C000689E08F00CFD32463B4608F071FD26D2AC
:1026D00034F92500679F689E08F001FD32463B46AD
:1026E00008F07EFD1BD804EB8800029BB0F90210B5
:1026F00004EB8500B0F902000A1A34F925105B1AC0
:102700005A4334F92830591A92FBF1F101444846F2
:1027100003AA09F101091FFA89F922F81010A84645
:102720006D1CADB26A988542ACD30020A9F10105B9
:1027300003AF0FE0411C37F8102037F811309A42F0
:1027400007D927F8103027F8112018B1401E80B2A1
:1027500000E088B2A842EDDB002534E037F8150030
:10276000584532D26E1C37F81610514529D95045BC
:1027700001D227F815A037F81600584501D927F8D7
:1027800016B0DFF86480B8F80200FFF737FC37F8BE
:10279000161037F815000023081A82B20298FFF7C6
:1027A000AEFCB8F80000FFF729FC029837F91610C4
:1027B00000B20646FFF7CDFC37F915103046FFF79B
:1027C000C8FCAD1CADB24D45C8D30298401C80B2C8
:1027D0000290DDE901108842FFF44CAF0248008806
:1027E0006BB0BDE8F04F09E4940000201CB504462E
:1027F000FE48012150F8240001F003FBFB4820387B
:1028000030F81400009001208DF8040000218DF8AC
:1028100006108DF8070002208DF80500F44869467F
:1028200050F8240001F022F91CBDF049F04A20398B
:1028300031F8101052F8200001837047EB49EC4A40
:10284000203931F8101052F8200041837047E849D0
:1028500051F820104A69E54B203B33F81000424004
:102860004A61704770B586B004460E46DF480121C4
:102870003C3850F8240001F0C4FA0121880301F02B
:10288000F0FA00258DF814508DF81750D7484038CD
:1028900030F814000490D64804A91C3850F82400DD
:1028A00001F0E4F8012E25D1D0484338015D401EE7
:1028B000005D01F07CFCCD483E3830F814000290F9
:1028C0008DF80C5008208DF80D0001258DF80E5064
:1028D00002A800F091FDC5484238005D8DF8040063
:1028E0000F208DF805008DF806008DF8075001A81F
:1028F00000F079FB06B070BDBC49BD4A40391C3AB6
:1029000031F8101052F8200001F004B92DE9FC4113
:1029100004460E46B548B5491038083950F8240029
:1029200051F824100843012101F06BFAAF4801214E
:10293000183850F8240001F094FAAC48AC4F28380D
:10294000103F10F81420083830F8141057F82400FD
:1029500001F004F9A54807F10808243810F81420FC
:10296000083830F8141058F8240001F0F7F8002067
:102970008DF8060001208DF8070002258DF804501F
:102980009A48383830F8140000908DF8055057F800
:102990002400694601F06AF88DF8045093483438F1
:1029A00030F81400009058F82400694601F05EF8F1
:1029B000A7F10805314655F8240000F089F955F8CB
:1029C0002400012100F0FDF9BDE8FC817CB5002068
:1029D00001F028FB002001F028FB01F0FBFA0021A8
:1029E0004FF4006001F03DFA824C0022082120469D
:1029F00001F0B4F800220921204601F0AFF80022CE
:102A00000A21204601F0AAF800220B21204601F0FD
:102A1000A5F800220C21204601F0A0F8764D0022F6
:102A20000221284601F09AF84FF4706100910021CC
:102A30008DF804108DF807106946204601F016F84D
:102A4000042100916946284601F010F8A114009174
:102A50006946204601F00AF87CBD2DE9FC410121C0
:102A60000E2001F0CEF9634E0C220821304601F011
:102A700075F80C220921304601F070F80C220A2169
:102A8000304601F06BF80C220B21304601F066F85D
:102A90000C221146304601F061F8574F0C220221FA
:102AA000384601F05BF84FF47060009001248DF817
:102AB000054002208DF8040000258DF806508DF8A1
:102AC00007406946304600F0D1FF04210091694675
:102AD000384600F0CBFF200300908DF80750694680
:102AE000304600F0C3FFE00300908DF804508DF8ED
:102AF00007406946414800F0B9FF0121C80201F0D2
:102B0000B0F90121880501F07CF95DE730B58FB09F
:102B100004463B4D4FF0FA51284600F0F0FB0021EF
:102B2000284600F07DFB284600F0B6FA4FF0006022
:102B300000903448019002944020039000200490BB
:102B4000059029150691890007918900089109903F
:102B50004FF440300A9004200B9003200C90480260
:102B60000D9080100E906946284600F020FB01224F
:102B70001021284600F0D4FB2021284600F068FBF5
:102B80000121284600F04CFB0FB030BD30B58FB0AE
:102B900004461B4D4FF0FA51284600F0B0FB0021CF
:102BA000284600F03DFB284600F076FA4FF0006022
:102BB0000090144801900294002003900490059026
:102BC00029150691890007918900089109904FF411
:102BD00040300A9004200B9003200C9048020D9086
:102BE00080100E90694628460EE00000ECD00008E8
:102BF000C000002000080240000C02400004024017
:102C000058640240802C014000F0D1FA01221021CA
:102C1000284600F085FB2021284600F019FB012101
:102C2000284600F0FDFAAFE710B5E649884209D121
:102C30000121102001F051F90021BDE810401020C1
:102C400001F04BB9E04988420AD101214C042046E9
:102C500001F037F92046BDE81040002101F031B9FC
:102C6000DA4988420AD101218C04204601F029F971
:102C70002046BDE81040002101F023B9D449884224
:102C80000AD10121CC04204601F01BF92046BDE801
:102C90001040002101F015B9CE4988420AD1012126
:102CA0000C05204601F00DF92046BDE8104000213A
:102CB00001F007B9C849884209D10121202001F05B
:102CC0000CF90021BDE81040202001F006B910BD2C
:102CD0007FB504460D46208A20F44051E888084319
:102CE0002082A08941F20C618843A9882A89114376
:102CF0006A8902431143A181A08A20F44071A88906
:102D00000843A082684601F011F8AE48844202D020
:102D1000B148844201D1039800E00298A1890904D6
:102D200008D500EBC00101EB001029684900B0FB99
:102D3000F1F007E000EBC00101EB00102968890009
:102D4000B0FBF1F06422B0FBF2F109010B096FF066
:102D500018056B4300EB8300A3891D044FF0320379
:102D600007D503EBC000B0FBF2F000F0070008430A
:102D700006E003EB0010B0FBF2F000F00F00084398
:102D800020817FBD4FF41651016000218180C180F8
:102D900001810C2242818181704710B5028A22F4A0
:102DA00070630A884C8822438C88C9880C4322436C
:102DB0001A43028210BD0021018041808180C180C0
:102DC0007047002904D0818941F400518181704706
:102DD000818921F4005181817047028B02F47F4286
:102DE0000283028B0A4302837047002904D0818941
:102DF00041F40041818170478189C1F30E018181D5
:102E00007047002904D0818A41F4006181827047B3
:102E1000818A21F4006181827047C1F308018180B9
:102E200070478088C0F308007047028A22F00F02C2
:102E30000282028A0A4302827047002904D08189F3
:102E400041F0020181817047818921F00201818175
:102E50007047828922F40062828182890A438281DA
:102E60007047028A22F020020282028A0A4302820A
:102E70007047002904D0018A41F4804101827047E3
:102E8000018A21F4804101827047818941F001016A
:102E900081817047002904D0818A41F00801818234
:102EA0007047818A21F0080181827047028BD2B27B
:102EB0000283028B42EA012101837047002904D07A
:102EC000818A41F0200181827047818A21F02001AE
:102ED00081827047002904D0818A41F010018182EB
:102EE0007047818A21F0100181827047828A22F026
:102EF00004028282828A0A4382827047002904D0B7
:102F0000818A41F0020181827047818A21F00201A9
:102F100081827047002A03D0828A0A4382827047E6
:102F2000828A8A438282704710B540F66A13C1F3E1
:102F3000421301F01F040121A140012B07D0022BF5
:102F400007D014303AB102680A43026010BD0C3059
:102F5000F8E71030F6E702688A43026010BD0246C7
:102F6000002012880A4200D0012070478A05C94318
:102F70000180704770B5002440F66A12C1F3421315
:102F800001F01F05012606FA05F2012B0CD0022BD9
:102F90000DD0838A1340090A8E40008830400BB15F
:102FA00000B10124204670BD83891340F3E7038AF2
:102FB0001340F0E740F66A120A0A01219140C94322
:102FC000018070470010014000440040004800406C
:102FD000004C004000500040001401402B490843C1
:102FE0002B490860704730B50F23C278012501785E
:102FF000002A1FD0264A126802F4E062C2F5E0629D
:10300000C2F30722C2F10404D3404278A24084787C
:103010001C401443220101F1E02181F800240078D2
:1030200000F01F018D404009800000F1E020C0F851
:10303000005130BD01F01F0085404809800000F1BB
:10304000E020C0F8805130BD124A114001431048C1
:10305000001F016070470E4A121D002903D011683D
:1030600001431160704711688143116070474FF050
:10307000E021042804D0086920F0040008617047AA
:10308000086940F004000861704700000000FA057C
:103090000CED00E080FFFF1F2DE9F043016821F0F7
:1030A000010101600021016041608160C160016136
:1030B00021214161C149C14A10394FF03D08904278
:1030C00003D1C1F80880BDE8F083BC4A4FF47465B1
:1030D0001832904201D18D60F5E7B84A4FF474166A
:1030E0003032904201D18E60EDE7B44A4FF0746700
:1030F0004832904201D18F60E5E7B04BB04A60336F
:10310000984201D1CA60DEE7AC4CAE4B7834A042A5
:1031100001D1CB60D7E7DFF8A4C2AB4C0CF1900C27
:10312000604501D1CC60CEE7DFF890924FF03D5C76
:1031300009F1A809484502D1C1F80CC0C3E7A34969
:10314000DFF888920839484502D1C1F80080BAE713
:10315000DFF8788208F11808404501D10D60B2E728
:103160009A4D3035A84201D10E60ACE7974D4835F5
:10317000A84201D10F60A6E7944D94496035091F1C
:10318000A84201D10A609EE7904A7832904201D16C
:103190000B6098E78D4A9032904201D10C6092E723
:1031A0008A4AA83290428ED1C1F800C08BE730B570
:1031B0000368874A1340CC680A682243D1E9054571
:1031C0002C432243CC6922430C6A22434C6A22439B
:1031D0008C6A22434C6B22438C6B22431A4302605D
:1031E000426922F00703D1E90B2422431A434261CA
:1031F0000A6942604A6882608968C16030BD002106
:10320000016041608160C160016141618161C161B2
:10321000016241628162C1620163416381637047FF
:10322000002904D0016841F0010101607047016884
:1032300021F0010101607047002904D0016841F4C8
:10324000004101607047016821F40041016070474E
:10325000002904D0016841F0200101607047016835
:1032600021F020010160704741607047406880B2E2
:103270007047002A04D0026842F40022026003E092
:10328000026822F40022026001617047002904D024
:10329000016841F4802101607047016821F48021B8
:1032A00001607047002A01D001617047C16070471A
:1032B000014600200968090300D501207047014636
:1032C00000200968C90700D001207047406900F05C
:1032D00038007047024600203C4B9A4202D2374ADF
:1032E000103A01E0394A103A8B0001D5526800E0EB
:1032F0001268384B1A400A4200D001207047334A06
:10330000904202D22D48103801E030481038314A3E
:103310008B0001EA020101D5C160704781607047EE
:103320000B0609D522B1436943F08003436103E0F2
:10333000436923F080034361802905D001F01E0119
:103340001AB102680A430260704702688A43026049
:10335000704730B500241D4A904202D2174A103AF5
:1033600001E01A4A103A1C4B194205D01E2303EA09
:10337000D12503682B4002E0406900F080038800FB
:1033800001D5506800E01068124A1040084201D090
:1033900003B10124204630BD0C4A904202D20748B6
:1033A000103801E0094810380A4A8B0001EA02018E
:1033B00001D5C16070478160704700001060024015
:1033C0003D000020400F002000003D20106402401E
:1033D0003F801CF07D0F7D0F3C0F3C0F38490020D3
:1033E0000860091D0860091D0860091D086034494E
:1033F000344814310860704730B5314A8379016828
:10340000002B2AD013688B431360111D0B680468CE
:10341000A3430B60017911440B68046823430B60DC
:10342000274C08342168036899432160231D1968DB
:103430000568A94319604179102905D011440A682B
:10344000006802430A6030BD2168026811432160B0
:10345000196800680143196030BD007910440268A2
:103460008A43026030BD0021016001710C2242716B
:1034700081717047124910310A6802430A6070472F
:10348000014600200E4A143212680A4200D0012080
:1034900070470B4914310860704701460020084A04
:1034A00012680A40064B14331B680B4202D0002AF4
:1034B00000D00120704702491431086070470000B5
:1034C000003C0140FFFF7F008100A1F1C0410028C6
:1034D0000CD043F2D2020A60401C8000A0F1C04030
:1034E0006FF070420260C1F8042170474FF0204332
:1034F00043F2DB021A60EFE710B5D0E90112114385
:10350000D0E903231A4311434269114382691143ED
:10351000C2691143026A1143426A1143826A11432C
:10352000C26A1143026B114302689200A2F1C042C9
:1035300011608168082907D101688900A1F1C041A3
:103540000A6842F040020A60416BD1E9002342EA76
:1035500003128B688C891B0243EA04431A430B8ACB
:1035600042EA03520B7D896942EA03620A43016819
:10357000491C8900A1F1C0410A60C16AB1F5804FC0
:1035800008D000686FF070418000A0F1C040C0F822
:10359000041110BD816BD1E9002342EA03128B684C
:1035A0000C8A1B0243EA04531A430B7D896942EAE1
:1035B000036200680A438000A0F1C040C0F8042103
:1035C00010BD10B500210160022242608160C1601F
:1035D000016141618161C1610162D20242625200B6
:1035E0008262C1620163436B0F221A60436B5A60AF
:1035F000446BFF23A360446BE260446B2261446B25
:103600006261446BA161846B2260846B6260846B35
:10361000A360836BDA60836B1A61836B5A61806B82
:10362000816110BD8000A0F1C040002904D0016874
:1036300041F00101016070470168CE4A114001600C
:10364000704710B5182440234FF020414FF0FC3252
:10365000102805D041F8804F4B608A60CA6010BDC9
:103660000C664B668A66CA6610BD30B5D0E9011299
:103670001143D0E903231A431143426941EA42212D
:10368000826941EA423141F00804C169D1E900236D
:1036900042EA03220B89097B1B0443EA01610A43C6
:1036A000016AD1E9003543EA05230D89097B2D0420
:1036B00045EA01610B4301684FF02040102904D016
:1036C00040F8804F8260C36030BD04668266C36686
:1036D00030BD10210160002141608160C160016145
:1036E00041618161C269FC211160C2695160C26996
:1036F0009160C269D160026A1160026A5160026A17
:103700009160006AC16070474FF0204200290CD0E0
:10371000102805D052F8800F40F004001060704768
:10372000106E40F00400106670479249C91E1028C0
:1037300004D052F8800F084010607047106E0840A7
:10374000106670474FF0204200290CD0102805D099
:1037500052F8800F40F0400010607047106E40F04B
:1037600040001066704783493F39102804D052F852
:10377000800F084010607047106E08401066704758
:103780004FF02041102802D0D1F894007047486FC4
:103790007047794818210160002141604FF0FC31E9
:1037A0008160C1600161704710B5D0E9001241EA43
:1037B00042218268102343EA423211436E4A11606B
:1037C000C168D1E9003443EA04230C89097B24044D
:1037D00044EA01610B4393600169D1E9003443EA93
:1037E00004230C89097B240444EA01610B43D36060
:1037F0004069D0E9001341EA03210389007B1B04DF
:1038000043EA00600143116110BD00210160416085
:103810008160C268FC211160C2685160C268916019
:10382000C268D160026911600269516002699160E9
:103830000269D160426911604269516042699160D8
:103840004069C16070474FF02041002805D051F811
:10385000A00F40F004000860704751F8A00F454ADF
:10386000D21E10400860704710B54FF480744FF0BE
:103870002043002A11D0102806D0A04208D153F8C6
:10388000840F0843186010BD586E0843586610BD79
:1038900053F8A40F0843186010BD102806D0A042AA
:1038A00008D153F8840F8843186010BD586E8843C0
:1038B000586610BD53F8A40F8843186010BD034626
:1038C00000204FF02042102B08D0B3F5807F07D0A6
:1038D000D2F8A4200A4200D001207047526EF9E7C6
:1038E000D2F88420F6E74FF02042102807D0B0F538
:1038F000807F08D052F8A40F884310607047506E44
:1039000088435066704752F8840F884310607047B0
:10391000034600204FF02042102B0ED0B3F5807FDD
:103920000DD0D2F8A42002EA010302EAD101002B53
:1039300002D0002900D001207047526EF3E7D2F880
:103940008420F0E74FF02042102808D0B0F5807FA7
:103950000AD052F8A40F20EAD10010607047506ED0
:1039600020EAD1005066704752F8840F20EAD10057
:1039700010607047FEFF0F00A00000A010B57F4947
:10398000884209D10121084600F077FA0021BDE8FC
:103990001040012000F071BA7949884209D1012113
:1039A000022000F06AFA0021BDE81040022000F079
:1039B00064BA7449884209D10121042000F05DFAFB
:1039C0000021BDE81040042000F057BA6E4988423B
:1039D00009D10121082000F050FA0021BDE8104073
:1039E000082000F04ABA6949884209D10121102013
:1039F00000F043FA0021BDE81040102000F03DBA6D
:103A00006349884209D10121202000F036FA0021C3
:103A1000BDE81040202000F030BA5E49884209D14C
:103A20000121402000F029FA0021BDE8104040208B
:103A300000F023BA5849884209D10121802000F0C2
:103A40001CFA0021BDE81040802000F016BA53494E
:103A500088420AD184150121204600F00EFA204642
:103A6000BDE81040002100F008BA10BD2DE9F0417A
:103A7000002201274FF0030C07FA02F50B682B40D8
:103A8000AB422CD1066853000CFA03F4A64306603F
:103A90000E79D0F800809E4046EA080606600E794E
:103AA000012E01D0022E12D18668A64386604E797F
:103AB000D0F808809E4046EA080686604668AE4315
:103AC000466045688E799640B6B235434560C56814
:103AD000A543C560CC799C40C3681C43C460521C9C
:103AE000102AC9D3BDE8F0814FF6FF7101600021B3
:103AF000017141718171C171704708B541F4803223
:103B00000092009AC261C1610099C161C169C06936
:103B1000009008BD0246002012690A4200D0012030
:103B20007047006980B270470246002052690A421D
:103B300000D001207047406980B270470183704710
:103B400041837047002A01D0018370474183704749
:103B50004161704742694A404261704710B54B0766
:103B6000DB0E9A40C90800EB8100016A0F249C40DB
:103B7000A1430162016A1143016210BD00000240CD
:103B80000004024000080240000C02400010024005
:103B90000014024000180240001C024000200240B5
:103BA000F848016841F001010160F64A002108323D
:103BB00011600268F44B1A400260031DF34A1A6058
:103BC000026822F480220260EE480C3001607047E7
:103BD000EC490022891C0A700870704702460020D8
:103BE000510901290CD002290DD0E6497431096828
:103BF00002F01F02012393400B4200D001207047C6
:103C0000E0490968F4E7DF4970310968F0E718B561
:103C1000002000904FF4A0643120FFF7DFFF0099EF
:103C2000491C00910099A14201D00028F4D0312014
:103C3000FFF7D4FF08B1012018BD002018BDD14AFC
:103C4000116821F0F80141EAC00010607047D049C6
:103C500008607047CB49002270310A700A70012851
:103C600004D0042801D10520087070470120087095
:103C70007047C8490860704710B5029C41EA82113C
:103C80004FF0FF3202EB530241EA0241014341EAA5
:103C90000460BC49091D086010BDBD490866704735
:103CA000800140EA0170B749843108607047B84923
:103CB00088667047B649C8647047B24B08331A68C3
:103CC00022F0EC620843104318607047AD4B083394
:103CD0001A6822F078420843104318607047A94AD6
:103CE0000832116821F00301014311607047A548B3
:103CF0000830006800F00C007047A24A08321168D2
:103D000021F0F0010143116070479E4A08321168AA
:103D100021F4E0510143116070479A4A083211685A
:103D200021F4604141EAC0001060704770B5954BC6
:103D30000833196801F00C01974C00291ED0661059
:103D400004291DD008291DD00460196801F0F00174
:103D50000909924A545C0168E14041601C6804F41E
:103D6000E054A40A145D21FA04F484601B6803F48F
:103D700060435B0BD25CD140C16070BD0460E4E77E
:103D80000660E2E77F4A121D1168C1F38055116891
:103D900001F03F0135B1B6FBF1F11468C4F38814AA
:103DA000614305E0B4FBF1F11468C4F38814614386
:103DB0001268C2F30142521C5200B1FBF2F10160E1
:103DC000C3E7C0F30121032908D16E4B08331968FA
:103DD00021F4F8127249014011431960694A7032A6
:103DE0001168C0F30B000143116070476949443901
:103DF0000860704767494039086070476949086042
:103E00007047604A3032002903D0116801431160C5
:103E1000704711688143116070475A4A3432002953
:103E200003D011680143116070471168814311602C
:103E30007047544A3832002903D011680143116099
:103E4000704711688143116070474E4A4032002923
:103E500003D01168014311607047116881431160FC
:103E60007047484A4432002903D011680143116069
:103E700070471168814311607047424A103200292F
:103E800003D01168014311607047116881431160CC
:103E900070473C4A1432002903D011680143116075
:103EA00070471168814311607047364A1832002903
:103EB00003D011680143116070471168814311609C
:103EC0007047304A2032002903D011680143116045
:103ED000704711688143116070472A4A24320029D3
:103EE00003D011680143116070471168814311606C
:103EF0007047244A5032002903D0116801431160F1
:103F0000704711688143116070471E4A543200297E
:103F100003D011680143116070471168814311603B
:103F20007047184A5832002903D0116801431160C4
:103F300070471168814311607047124A603200294E
:103F400003D011680143116070471168814311600B
:103F500070470C4A6432002903D011680143116094
:103F600070471168814311607047064A0D3200297D
:103F700003D011780143117070471178814311709B
:103F80007047000000380240FFFFF6FE10300024AA
:103F900000004742800E47420024F400D000002079
:103FA000FFFCFF0F5C0147420948016841F0807146
:103FB0000160E5E701460020054A683A12680A42B6
:103FC000DED00120DCE7024966390870D8E700003E
:103FD0007438024010B50121CC022046FFF77DFF66
:103FE0002046BDE810400021FFF777BF30B5644B95
:103FF000196847F6FF629143027D8468C5682243D1
:1040000044682C43224304680069224302430A4364
:104010001A6030BD00210175016041608160C1609E
:10402000016170475749086070475549091F08608A
:1040300070475348001F006800F00300704710B538
:104040004F4A0168121D1160141D21686FF30A01A7
:10405000D0E901231A43D0E9033003431A430A434A
:10406000226010BD0021016041608160C16001617A
:10407000704743480C300068C0B2704708B54049EB
:104080001031084400900098006808BD10B53C4A03
:10409000016820321160121D41681160141D2168F1
:1040A00021F0F701D0E902231A43D0E90430034399
:1040B0001A430A43226010BD4FF0FF310160002116
:1040C00041608160C1600161416170472C482C30C2
:1040D000006870472A487C300068704728497C3166
:1040E00008607047264844300068704726490860D9
:1040F00070472549091D0860704723490831086049
:10410000704721490C3108607047204908607047AA
:104110001E49091D08607047012181431B48083072
:104120000160704719490C3108607047164914390D
:1041300008607047124A3832002903D011680143E1
:10414000116070471168814311607047014600207B
:104150000B4A303212680A4200D0012070470849E9
:1041600034310860704701460020054A3032126839
:104170000A4200D00120704701493431086070477D
:10418000042C0140A0802542A0852542AC81254217
:1041900010B501218C032046FFF79FFE2046BDE8A5
:1041A00010400021FFF799BE11490860704710B513
:1041B0008A07120F0F23934021F003040D49214475
:1041C00001F608010C689C430C600B6890400343A7
:1041D0000B6010BD084908607047084908607047C7
:1041E0000020034920310968C90500D50120704726
:1041F0000038014000300140DC0027420004274223
:1042000010B5F949884209D101210846FFF765FE3A
:104210000021BDE810400120FFF75FBEB0F1804FE4
:104220000CD0F249884213D101210220FFF749FE48
:104230000021BDE810400220FFF743BE01210846DF
:10424000FFF73FFE0021BDE810400120FFF739BE17
:10425000E749884209D101210420FFF732FE0021FD
:10426000BDE810400420FFF72CBEE249884209D186
:1042700001210820FFF725FE0021BDE8104008209D
:10428000FFF71FBEDC49884209D101211020FFF74A
:1042900018FE0021BDE810401020FFF712BED749DC
:1042A000884209D101212020FFF70BFE0021BDE843
:1042B00010402020FFF705BED149884209D10121D5
:1042C0000220FFF70AFE0021BDE810400220FFF7A0
:1042D00004BECC4988420AD101210C042046FFF7D4
:1042E000FCFD2046BDE810400021FFF7F6BDC649A1
:1042F00088420AD101214C042046FFF7EEFD2046FA
:10430000BDE810400021FFF7E8BDC04988420AD14E
:1043100001218C042046FFF7E0FD2046BDE8104057
:104320000021FFF7DABDBA49884209D101214020B6
:10433000FFF7C7FD0021BDE810404020FFF7C1BDD9
:10434000B449884209D101218020FFF7BAFD00213C
:10435000BDE810408020FFF7B4BDAF4988420AD1C4
:10436000841501212046FFF7ACFD2046BDE8104032
:104370000021FFF7A6BD10BD30B502889A4CA04DB4
:10438000A0420DD0A8420BD0B0F1804F08D0974B7F
:10439000984205D0964B984202D0964B984203D152
:1043A00022F070034A881A43934B984206D0934BED
:1043B000984203D022F440730A891A4302804A6863
:1043C000C2620A880285A04201D0A84201D1897A3E
:1043D00001860121818230BD4FF0FF314160002113
:1043E000018001814180817270470185828270471E
:1043F000028822F070020A430280704741627047CF
:10440000C1627047406A7047008D7047002904D030
:10441000018841F0020101807047018821F002010A
:1044200001807047002904D0018841F00401018017
:104430007047018821F0040101807047002904D0F1
:10444000018841F0800101807047018821F08001DE
:1044500001807047028822F00802028002880A4325
:1044600002807047028822F44072028002880A4368
:1044700002807047002904D0018841F001010180C9
:104480007047018821F001010180704730B5028C2E
:1044900022F001020284058C8388028B22F07002D4
:1044A00022F003020C88144325F002028D89154383
:1044B0004A882A434C4DA84202D0514DA8420FD100
:1044C00022F00805CA892A4322F004058A882A4373
:1044D00023F4807323F400730D8A1D434B8A2B430E
:1044E0008380048389684163028430BD70B5028C87
:1044F00022F010020284028C8388048B24F4E044AE
:1045000024F440760D884FF6FF7404EA0525354300
:1045100022F020028E8904EA061616434A8804EA2D
:1045200002123243304EB04202D0354EB04217D163
:1045300022F08002CE8904EA0616164326F04006D1
:104540008A8804EA0212324323F4806323F400636E
:104550000E8A04EA86061E434B8A04EA8303334329
:104560008380058389688163028470BD70B5028C85
:1045700022F480720284028C8388848B24F070047D
:1045800024F003040D88254322F400728E894FF62F
:10459000FF7404EA062616434A8804EA02223243DC
:1045A000114EB04202D0164EB04217D122F400662E
:1045B000CA8904EA0222324322F480668A8804EA25
:1045C0000222324323F4805323F400530E8A04EA78
:1045D00006161E434B8A04EA031333438380858304
:1045E0008968C163028470BD00000140000400407E
:1045F00000080040000C0040001000400014004083
:1046000000040140004001400044014000480140D6
:1046100000180040001C00400020004070B5028CD3
:1046200022F480520284058C8288838B23F4E04339
:1046300023F440760C884FF6FF7303EA04243443D6
:1046400025F400558E8903EA06362E434D8803EA89
:1046500005353543FE4EB04202D0FE4EB04205D184
:1046600022F480460A8A03EA8212324382808483DB
:10467000896801640584B6E700210180418081805A
:1046800081608181C18101824182704730B500F132
:10469000180301248C40058CA5430584002912D001
:1046A000082910D0091FC1F34E001844016848F6CC
:1046B000FF731940016001684FF6FF7303EA02229D
:1046C0001143016030BD03EB510001684FF68F7359
:1046D0001940016001681143016030BD41637047BA
:1046E00081637047C163704701647047028B22F099
:1046F00070020A4302837047028B22F4E0424FF6B5
:10470000FF7303EA0121114301837047828B22F07A
:1047100070020A4382837047828B22F4E0424FF694
:10472000FF7303EA0121114381837047028B22F05A
:1047300008020A4302837047028B22F400624FF69C
:10474000FF7303EA0121114301837047828B22F03A
:1047500008020A4382837047828B22F400624FF67C
:10476000FF7303EA0121114381837047028B22F01A
:1047700004020A4302837047028B22F480624FF6E0
:10478000FF7303EA0121114301837047828B22F0FA
:1047900004020A4382837047828B22F480624FF6C0
:1047A000FF7303EA0121114381837047028B22F0DA
:1047B00080020A4302837047028BC2F30E024FF657
:1047C000FF7303EA0121114301837047828B22F0BA
:1047D00080020A4382837047828BC2F30E024FF637
:1047E000FF7303EA0121114381837047028C22F099
:1047F00002020A4302847047028C22F008020A4334
:1048000002847047028C22F020024FF6FF7303EA05
:104810000111114301847047028C22F080024FF68F
:10482000FF7303EA0111114301847047028C22F4E3
:1048300000724FF6FF7303EA0121114301847047B0
:10484000028C22F400624FF6FF7303EA0121114348
:1048500001847047028C22F400524FF6FF7303EA82
:10486000013111430184704710B501238B40048C42
:104870009C430484038C8A401343038410BD10B509
:1048800004238B40048C9C430484038C8A40134390
:10489000038410BD828B22F440628283828B4FF6A8
:1048A000FF7303EA01210A438283704770B5048CC9
:1048B00024F480540484858B068C4FF6FF7404EA3C
:1048C000013125F4734504EA02222A4304EA033342
:1048D000134326F420420A4342F480518383018427
:1048E00081E6828B22F00C028283828B0A438283D0
:1048F0007047F0B5048C24F480740484868B058C96
:104900004FF6FF7707EA012426F0F30607EA0311C2
:104910001143314325F42062224342F480728183A3
:104920000284F0BD028B22F440620283028B4FF6B8
:10493000FF7303EA01210A430283704770B5048CB8
:1049400024F010040484058B068C4FF6FF7404EAEF
:10495000011125F4734504EA03332B4304EA0222D0
:104960001A4326F0A0030B4343F010010283018495
:1049700039E6028B22F00C020283028B0A43028387
:10498000704770B5048C24F001040484058B048CFA
:1049900025F0F3054FF6FF7606EA031313432B4386
:1049A00024F00A020A4342F00101038301841AE65B
:1049B00070B506460C4625886188A2882389002D9B
:1049C0000BD0042D11D0082D17D03046FFF76EFF05
:1049D000E1883046BDE870405CE73046FFF7D1FF24
:1049E000E1883046BDE87040C3E73046FFF7A6FFD8
:1049F000E1883046BDE8704094E73046FFF779FF24
:104A0000E1883046BDE870406BE7002101804180BD
:104A100001228280C180018170472DE9F041074663
:104A20000C46002501266188002900D10225A288B4
:104A3000012A00D1022620882389B0B13846FFF729
:104A40007DFFE1883846FFF76DFF2389324603E09A
:104A5000000001400004014029463846FFF791FF5D
:104A6000E1883846BDE8F04183E73846FFF789FF23
:104A7000E1883846FFF77DFF2389324629463846CC
:104A8000FFF75CFFE1883846BDE8F0414AE7406B3C
:104A90007047806B7047C06B7047006C704710B5F3
:104AA0000A884B88CC881A438B8823431A430B8986
:104AB0001A434B8989891A430A43A0F8442010BD40
:104AC0000021018041808180C180018141818181FB
:104AD0007047002905D030F8441F41F4004101809F
:104AE000704730F8441FC1F30E0101807047002960
:104AF00004D0818841F0040181807047818821F0D1
:104B0000040181807047002904D0818841F00101AF
:104B100081807047818821F0010181807047002ADF
:104B200003D082890A438281704782898A438281C5
:104B300070478182704702460020128A0A4200D0E4
:104B400001207047C9430182704702460020138A42
:104B50000B4092890A40002B02D0002A00D001208D
:104B60007047C943018270471143A0F8481070474D
:104B7000002A03D082890A438281704782898A434E
:104B800082817047002904D0818841F0080181802A
:104B90007047818821F0080181807047018921F0E8
:104BA000070101817047028922F070020A430281E5
:104BB000704700B503461846FFF7F5FF188940F027
:104BC0000700188100BD70B50D4604461146602DE2
:104BD0000CD001222046FFF7D4FE29462046FFF7DD
:104BE000E2FF208940F007002081FCE401222046FA
:104BF000FFF7A4FEF1E730B50489E4B24FF6FF7584
:104C000005EA032313430B432343038130BD10B54F
:104C100004462046FFF7EFFF208920F0070040F010
:104C2000070020F0700040F07000208110BD10B52A
:104C300004462046FFF7DFFF208940F480402081B2
:104C400010BD828822F07002828082880A438280AE
:104C50007047028922F00702028102890A43028119
:104C60007047028922F08002028102890A43028190
:104C7000704770B50589048B068C25F007050D4338
:104C80004FF6FC410C4040F201110C4326F0220685
:104C90004FF6FF7101EA031111433143058104838B
:104CA0000184A0E4002904D0818841F08001818042
:104CB0007047818821F0800181807047A0F85010F2
:104CC0007047000001B581B00198009002E00098A3
:104CD000401E009000980028F9D10CBD10B50121AC
:104CE0004C062046FFF7C9F82046BDE810400021D9
:104CF000FFF7C3B801210160002141608160C160FC
:104D000001614FF4804242618161C161D21002624F
:104D100041628162C162016341638163C163402278
:104D20000264202242648164C16401654165816539
:104D3000C1650166802242668166C166016741677E
:104D40008167C167D204C0F880205210C0F8842067
:104D5000C0F888101311C0F88C30C0F89010C0F85B
:104D60009410C0F89810C0F89C10C0F8A010C0F8BB
:104D7000A4205212C0F8A8209201C0F8AC20521210
:104D8000C0F8B020C0F8B410C0F8B810704738B5FB
:104D900000230093FB4B1C6904F01C054FF6FF74C5
:104DA00004EAC0242C434FF4F86000EA8110204349
:104DB00040F0020040F001005A611861F249009889
:104DC000401C00901869C00702D000988842F6D3B2
:104DD0000098884201D1002038BD012038BD18B5A7
:104DE00000220092E74A136903F01C044FF6FF7398
:104DF00003EAC02323434FF4F86000EA811018430C
:104E000020F0020040F001001061DF490098401CD2
:104E100000901069C00702D000988842F6D300982D
:104E2000884201D1002018BD506980B218BD2DE91B
:104E3000F04186B004468846002705970097D14E7A
:104E4000306920F01C0501A8FEF770FF0298CF49D9
:104E5000CF4A0144914202D245F0080516E0CD49FF
:104E6000CD4A0144914202D245F00C050EE0CB49F7
:104E7000CB4A0144914209D3CA490844CA498842ED
:104E800002D245F0040501E045F0100535614FF40C
:104E9000004200214046FFF77AFFC0B1C348FFF748
:104EA00011FF206880B3B84D0098401C009001218C
:104EB0004046FFF794FF400702D40098A842F3D37E
:104EC0000098A84205D1002006B0BDE8F08100207E
:104ED000FAE700974FF4805200214046FFF757FF52
:104EE00008B90020F0E70098401C009001214046DE
:104EF000FFF775FF800602D40098A842F3D300980C
:104F0000A84202D10020DFE71DE000971F214046A4
:104F1000FFF765FF00F01C00042811D04FF4804219
:104F2000082807D0D1100E2807D012281CD12162E2
:104F3000626119E02762626116E02162676113E035
:104F40002762676110E0206A0021C0F3CF02606928
:104F5000C0F34F0002434046FFF719FF00287CD002
:104F60006FF07F40FFF7AEFE306891490840D4E90A
:104F700001121143E26854F8103F1A43114362686A
:104F80001143A2681143E268114322691143626927
:104F90001143A2691143E2691143226A1143626A13
:104FA000143411430143316054F8140F616808430D
:104FB000D4E9021211430843216908436169084397
:104FC000A1690843E16908437060206AB060606AC3
:104FD000F060B0694FF641710840D4E90B121143FB
:104FE000238D626B42EA03421143A26B1143E26BD1
:104FF00011430143B161D4E910010843F0616D48E8
:1050000081696D4A1140D4E912231A43D4E9143559
:105010002B431A43A36D1A43E36D1A43236E1A43BD
:10502000636E1A43A36E1A430A438261D4E91B12CA
:105030001143626F54F8783F1A431143626841EAA2
:105040008201A268114341F400010160016841F04E
:1050500080010160012037E7FFE7002034E7554970
:10506000002804D0886940F0020088617047886990
:1050700020F00200886170474E49002804D08869FA
:1050800040F4005088617047886920F400508861BE
:1050900070473C49002804D0086840F004000860CC
:1050A0007047086820F00400086070474148816933
:1050B00041F48011816170473249002804D00868AA
:1050C00040F0080008607047086820F00800086099
:1050D000704700B50120FFF7EFFFFFF7E7FF012062
:1050E000FFF7D7FF0120FFF7C7FF01205DF804EBB2
:1050F000B5E7002023498969C90700D0012070471E
:105100002048816941F00101816170471D490028F3
:1051100004D0886940F0010088617047886920F0F8
:1051200001008861704701460020164A926B0A42CE
:1051300000D00120704701460020124A926B0A42BB
:1051400000D0012070470F4A002903D0D16B814362
:10515000D1637047D16B0143D16370470A794B79B2
:1051600042EA0322074B184402640A78CB7842EAE9
:1051700003628B7849781B0443EA01210A434264A5
:105180007047000000800240FFFF040000D3CEFE05
:10519000C0E1E40040F1E9FD40787D0100796CFC5C
:1051A000005A6202001F0AFA80F0FA02FFFF0F00A5
:1051B0000F8120FF00900240233FDEF8F94A0244AD
:1051C000106C030A4B710871506C020ECA70020C0D
:1051D0008A70020A4A700870D2E7F24A0029104425
:1051E00004D0016C41F000410164C9E7016C21F079
:1051F00000410164C4E7EB4A0829104404D0016C63
:1052000041F080410164BBE7016C21F08041016401
:10521000B6E7E44A1044026C22F07C520264026C4D
:105220000A430264ACE71EB5002101910291DE4BF6
:1052300059680A68C2F30D42121F00929A68946876
:10524000012C03D912689268019201E08A680192E8
:105250000291C96859609DE80E000EC01EBD1FB5C1
:1052600000210191029103910091CF4B99681AE0BE
:10527000009C641C00941468A40509D51468E40516
:1052800006D40A6001228A605A68D2685A600AE02D
:105290001468E40512D41468A4050FD48C68641C47
:1052A0008C60D2685A605A681468002C02DB009C3B
:1052B000052CDDD301A90EC90EC01FBD5C684C6072
:1052C0008C68641C8C608C68012C00D10A605A6860
:1052D0001468C4F30D44241F01948C68012C03D975
:1052E00009688968029101E0916802910392D1688E
:1052F000596001A90EC90EC01FBDF0B50023AA4D0B
:1053000029680A68002A01DA0020F0BD40F2F4564C
:10531000B04208D9B0FBF6F2B0FBF6F406FB140479
:1053200014B1521C00E00122012A2CD10A6842F07B
:1053300040520A60C0F30C004860086840F000402A
:105340000860C868286021E023B92C68276847F006
:10535000805727604E60541EA3420ED10C6844F063
:1053600000540C60C2F10104C4EBC41404EB440407
:1053700000EB8404C4F30C044C600C6844F000445B
:105380000C60C9685B1C9342DED329608748416981
:10539000490703D504214161002141600120F0BD8E
:1053A0002DE9F0410023804F78604FF0004C44F22B
:1053B000F458561E14E000EB4314C4F800C0C4F8BF
:1053C0000480C3EBC31505EB450501EB8505A5601E
:1053D000B34203D204F12005E56000E0E0605B1C0D
:1053E0009342E8D37149C8607148B8606DE56E4A70
:1053F000506803681146002B896808DB0368DB05E9
:1054000005D548608868401C88600120B8E60368BC
:10541000002B0EDB03689B050BD50368DB0508D466
:10542000086000204860012088605068C0685060B3
:105430000DE00368002B0ADB03689B0507D40368B3
:10544000DB0504D48B685B1C8B60C0685060002057
:1054500096E6F0B50023544C20604FF48017561E9A
:1054600011E000EB43142760C3EBC31505EB4505C2
:1054700001EB8505A560B34203D204F12005E56088
:1054800000E0E0605B1C9342EBD348490861F0BD4B
:105490000246002012680A4200D0012070E600682F
:1054A000C0F3C3006CE6016841F00041016067E6AB
:1054B000002904D0016841F08041016060E6016884
:1054C00021F0804101605BE602680A43026057E612
:1054D00002680A43026053E6002904D0016821F003
:1054E000006101604CE6016841F00061016047E63F
:1054F000002904D0016841F48011016040E6016890
:1055000021F4801101603BE6002904D0016821F0FC
:105510008061016034E6016841F0806101602FE63E
:10552000436841EA02410B43436029E602460020FA
:1055300012680A4200D0012022E6024600201269C9
:105540000A4200D001201BE6016841F000410160E1
:1055500016E60068C0F30D4012E64268002903D049
:1055600022F0004141600BE642F00041416007E655
:105570004068002902D0C0F30C4001E6C0F30C00E3
:10558000FEE500B500210268002A08DB026812046B
:1055900005D40268D20502D5FFF7DBFF01460846B5
:1055A00000BD000000800240E000002000900240AA
:1055B000D8450020AC49002804D0086840F080009D
:1055C0000860DDE5086820F080000860D8E5A6489E
:1055D000016841F001010160D2E50020A24909689B
:1055E000C90700D00120CBE5014600209E4A526940
:1055F0000A4200D00120C3E59B494861C0E59A4AB0
:10560000002903D0D1690143D161B9E5D169814352
:10561000D161B5E501460020934A52690A4200D0A3
:105620000120ADE590494861AAE58F48406900F046
:105630000100A5E58C48406900F04000A0E500208D
:1056400089498969C90200D5012099E501460020F0
:10565000854A126A0A4200D0012091E58248006A18
:10566000C0F34A408CE58048006A80B288E57E48F5
:10567000806C85E57C48C06C82E57B48006D7FE5E9
:105680007948406D7CE578490020486078E57649A6
:105690000020886074E57449486271E530B50546BC
:1056A0000C4600212846FFF79AFB14B140F48042D3
:1056B00001E020F4804200212846FFF768FB08B192
:1056C000012030BD002030BD6848C16A41F0004172
:1056D000C16255E50021654A50F821309362491CAA
:1056E0000829F9D34CE56149002804D0C86A40F480
:1056F0000070C86244E5C86A20F40070C8623FE5E3
:1057000001460020594AD26A0A4200D0012037E5FA
:105710005649002804D0C86A40F00400C8622FE54A
:10572000C86A20F00400C8622AE55049002804D065
:10573000C86A40F00200C86222E5C86A20F0020090
:10574000C8621DE54949002804D0C86A40F001003C
:10575000C86215E5C86A20F00100C86210E5444837
:10576000016841F0300101600AE54148016821F01B
:1057700020010160016841F01001016000E53B4932
:10578000002806D0D1F8000140F00800C1F800015F
:10579000F6E4D1F8000120F00800C1F80001EFE4C0
:1057A0003249002806D0D1F8000140F00400C1F8C9
:1057B0000001E5E4D1F8000120F00400C1F8000187
:1057C000DEE42A49002806D0D1F8000120F00200CA
:1057D000C1F80001D4E4D1F8000140F00200C1F8A2
:1057E0000001CDE42248016841F001010160C7E4F5
:1057F0001E4AC3000ED520F0805029B1D2F80C11FA
:105800008143C2F80C11BBE4D2F80C110143C2F879
:105810000C11B5E429B1D2F810118143C2F810116E
:10582000AEE4D2F810110143C2F81011A8E400212F
:105830000E4AC30009D5D2F8043103420ED0D2F883
:105840000C2102420AD1012108E0D2F808310342BA
:1058500004D0D2F80C21024200D1012108468FE485
:10586000024940588CE40000009002400080024051
:105870000081024070B50446062004F82A0FA020DB
:105880006070CA20A0701120E0701A2020711720CB
:105890006071FF20A0712A3C04F12B010020FFF76A
:1058A0005DFC40F2DC502085322084F83100052276
:1058B00049494A48FFF7CDFD052249494948FFF7C4
:1058C0006FFD0024454D4FF4400605EB4410314672
:1058D000FFF7FEFD641C052CF7DBBDE87040FFF709
:1058E000F8BB70B50C4600253F480068866807E0A5
:1058F00062897019616805F0FFF9608905442468C0
:10590000002CF5D1A8B2FFF7F8FC002070BDF0B56F
:1059100087B0002501A8FFF786FC01A804AB07C8E3
:1059200007C3049881B2059F0322104601F0D1F904
:10593000064630000BD0344607E06289791960686A
:1059400005F0DAF9608905442468002CF5D1274A6E
:1059500010688168012901D9006800E006980021DB
:105960004FF0004302E00360C068491C1468A4685B
:105970008C42F8D81068002181601D4842691206E7
:1059800002D580224261816007B03046F0BD70B51B
:1059900005462846FFF7BBFF044654B12A6929464D
:1059A00020469047054615B1204601F069F9284682
:1059B00070BD4FF0FF3070BD10B5732180F832100C
:1059C000742180F833100B4941610B498161FFF765
:1059D00051FF002010BD000014280020B009002055
:1059E000500A002010090020E0000020E8000020FC
:1059F00000900240BFAB0008E358000810B5002833
:105A000009D0046A002C06D0606908B101F038F9A9
:105A100000206061A06110BD002812D0818BFF239F
:105A20004A1C82838269F0315354002304E04A1CEB
:105A300082838269F0315354818B4429F7D38A07DA
:105A4000F5D17047828B531C83838069F032815477
:105A5000704710B5838B5C1C84838469F033E154F8
:105A6000818B4B1C83838069F031425410BD10B58B
:105A7000828B0C0A531C83838369F0329C54828B83
:105A8000531C83838069F032815410BD70B5054684
:105A9000002D0DD02C6A74B100224FF49A7110467B
:105AA00001F017F9606148B1E27CF9494AB10BE0B5
:105AB0006FF0090070BD6FF0080070BD4FF0FF304F
:105AC00070BD0A68521C0A60096821604068A061C4
:105AD00001210170A0694170A16906208870A06948
