:020000040800F2
:10000000789A0020F59E0008690300086B03000839
:100010006D0300086F030008710300080000000072
:100020000000000000000000000000007303000852
:10003000750300080000000077030008790300083A
:100040000F9F00080F9F00080F9F00080F9F0008D8
:100050000F9F00080F9F00080F9F00080F9F0008C8
:100060000F9F00080F9F00080F9F00080F9F0008B8
:100070000F9F00080F9F00080F9F00080F9F0008A8
:100080000F9F00080F9F00080F9F00080F9F000898
:100090000F9F00080F9F00080F9F00080F9F000888
:1000A0000F9F00080F9F00080F9F00080F9F000878
:1000B0000F9F00080F9F00080F9F00080F9F000868
:1000C0000F9F00080F9F00080F9F00080F9F000858
:1000D0000F9F00080F9F00080F9F00080F9F000848
:1000E0000F9F00080F9F00080F9F00080F9F000838
:1000F0000F9F00080F9F00080F9F00080F9F000828
:100100000F9F00080F9F00080F9F00080F9F000817
:100110000F9F00080F9F00080F9F00080F9F000807
:100120000F9F00080F9F00080F9F00080F9F0008F7
:100130000F9F00080F9F00080F9F00080F9F0008E7
:100140000F9F00080F9F00080F9F00080F9F0008D7
:100150000F9F00080F9F00080F9F00080F9F0008C7
:100160000F9F00080F9F00080F9F00080F9F0008B7
:100170000F9F00080F9F00080F9F00080F9F0008A7
:100180000F9F00080F9F0008DFF80CD00AF07CF8E2
:1001900000480047A3010008789A0020002001F0E1
:1001A000CFBFFFF7FBFF00F0FAF900F0E7F800F02F
:1001B0007AFF0B4C04F033FA08B100F007F920681D
:1001C00000F007F9F6E706490A68104448600A6833
:1001D0009042FCD87047024801680A3101607047BC
:1001E000000000200CB500220192009255490868D9
:1001F00040F4803008604FF4A043086800F40030F9
:1002000000900198401C0190009810B90198984204
:10021000F3D10868800302D50120009000E000922D
:100220000098012831D147484030026842F080529E
:1002300002604548026842F440420260414808308A
:1002400002680260026842F400420260026842F4FE
:10025000A0520260021F3D4B13600A6842F0807298
:100260000A600A689201FCD5394A40F205611160C2
:10027000016821F003010160016841F002010160A1
:100280000168C1F381010229FAD10CBD10B52D48D6
:10029000016841F0010101602A4A00210832116021
:1002A00002682C4B1A400260031D2B4A1A60026838
:1002B00022F48022026023480C300160FFF792FF95
:1002C00026494FF00060086010BD70B51D4E08361D
:1002D000306800F00C00224B224900280FD05D103E
:1002E00004280ED008280ED00B6030681D4AC0F3D9
:1002F0000310121D105C0A68C2400A6070BD0B60DA
:10030000F3E70D60F1E70F4A121D1068C0F3805447
:10031000106800F03F0034B1B5FBF0F01368C3F390
:100320008813584305E0B3FBF0F01368C3F3881358
:1003300058431268C2F30142521C5200B0FBF2F063
:100340000860D2E7003802400070004008484006CC
:10035000003C0240FFFFF6FE1030002408ED00E0F4
:100360000024F400080000207047FEE7FEE7FEE7E7
:10037000FEE7704770477047FFF72DBF00B587B0A5
:1003800005F087FB05F07CFC1E4808F09FFC0690FA
:100390006FF0FF0008F09AFC05901A48093808F041
:1003A00095FC049019490022CDE9002116480290DD
:1003B00004AB05AA06A9164805F0F4FC144805F09C
:1003C00014FD134805F04CFD07B000BD104804F0C3
:1003D000F1BB31B50F4C00992068081AFA2803D3F5
:1003E0000098206006F091FA00986168401A41F286
:1003F0008831884205D300986060BDE8384009F034
:1004000006BA38BD0A01A8C0919E0008DF4B00085B
:10041000600100201C00002000B5AFB001214FF0AA
:10042000606003F068FB03F071FD04F0E8F904F08C
:10043000ECF90128FBD0684603F074FD0120009020
:10044000002007904FF400710A910B900E901190CC
:100450001390149015902090090421910A11239271
:100460002590269004202890299180032A908001CD
:100470002B9040122C9040002E900121684603F0F2
:10048000EEFD654908602FB000BDFEB501210720D3
:1004900003F031FB0121880303F05DFB012003F031
:1004A00013FD8620009003208DF8050002248DF8AE
:1004B000044000258DF806508DF80750574E6946C8
:1004C000304603F04DF90B220121304603F0C0F90C
:1004D0000B220221304603F0BBF90B2207213046E4
:1004E00003F0B6F94FF4705000904D4E6946304617
:1004F00003F036F90B220A21304603F0A9F90B224A
:100500001146304603F0A4F90B220C21304603F0CB
:100510009FF90B220D21304603F09AF9322000900A
:10052000404E6946304603F01BF90B22012130464C
:1005300003F08EF90B220421304603F089F90B22D7
:100540000521304603F084F90420009001208DF845
:1005500004008DF806508DF807008DF80540324EE6
:100560006946304603F0FCF80421304603F062F996
:10057000029544F6206402E00299491C0291029916
:10058000A142F9D30421304603F052F9029502E06A
:100590000298401C02900298A042F9D3FEBD1FB5FC
:1005A000FFF773FFFFF738FF1B480068D0B1042046
:1005B00002F007FA684603F033FA01986421B0FBB1
:1005C000F1F0B0F1807F0CD220F07F414FF0E020BD
:1005D000491E4161154AF0211170002181610721F6
:1005E00001611FBD4FF4784001F0B2F901F0BFF98D
:1005F000C0880FA100EB800080B201F061FA01F029
:10060000B6F9C0884FF6FF7100EB400001EA4000E8
:100610000CA101F055FAFEE7240000200000024082
:1006200000040240000802400010024023ED00E0F8
:1006300020202045746865726E657420496E697467
:10064000202020002020202020206661696C656425
:1006500020202020202000002DE9F04104460F46F4
:100660001646384609F098FC05460DB126440CE0C4
:100670002046BDE8F0813978884205D12A463946BE
:10068000204609F0ABFC38B1641C207810B1611928
:10069000B142F0D90020ECE72046EAE770B54FF40C
:1006A000BA75284605F080FA04461CB12946204652
:1006B00009F04BFC204670BD70B50446002C0FD0ED
:1006C0002068002510B100F012FE2560E06810B12E
:1006D00005F0F5F9E5602046BDE8704005F0EFB99A
:1006E00070BD2DE9F04105460F4616469846348800
:1006F000434622463946284607F013FC411C09D1DF
:10070000B5F86E1019B1B5F87010082901D301249D
:1007100000E06408411C01D1012CE9D83480A8E72D
:100720002DE9F0410546F94E05F12E0805F1300797
:100730003068002810D0B06870B1706860B10024D3
:1007400007E0B06850F82410404609F02CFC60B176
:10075000641C70688442F4DB404609F01DFCA72845
:100760000AD2404609F018FC07E03368C022394637
:100770002046984768857CE7A72004461222E4A11A
:10078000384609F0C9FB2246414605F1420009F00E
:10079000C3FBE4A128190A6840F8422F89888180A8
:1007A0003E2181710021C171384609F0F5FB688551
:1007B0005FE72DE9F84F07460C46002600256069E3
:1007C000002840D1206850B100F0ABFD00280CDCBF
:1007D0002146384600F011FA0020BDE8F88F214686
:1007E000384600F00AFA0020F7E7E06810B1D4F8C4
:1007F000108014E0388F4FEA40081FFA88F005F0A7
:10080000D3F9E06010B1C4F8108006E008EBD870AE
:100810004FEA6008B8F1640FEFDCE06860B142466F
:10082000E168206800F064FD002807DA21463846B8
:1008300000F0E3F90120D0E70020CEE76061E16835
:1008400061606062E16194F82C004FF6FF7BE0B1DB
:10085000B7F86E2000926168E069884244D9401A76
:10086000904200DC0090388FBDF80020B2EB400FC2
:1008700002D90BEA4000009001236A463846FFF790
:1008800030FF0546280023D02BE0B7F86E106069D2
:10089000814201D2009100E00090388FBDF8001035
:1008A000B1EB400F02D90BEA4000009000236A46EA
:1008B00038466168FFF715FF002808D10126BDF80A
:1008C00000006168014461606169081A606165E166
:1008D0000126BDF800006168014461606169081A81
:1008E0006061B7F86E0030B14FF00109DFF83CA24B
:1008F0004FF0000820E130466FE7BDF8002042B11C
:1009000094F8F1100529F5D2DFE801F005122D70F9
:10091000C300304661E7E1690A783C2A03D184F8D4
:10092000F190A4F82890401E6062491CE16103E147
:10093000218D05290AD0E269DAF800C013781CF885
:1009400001C0634508D1491C218507E0A4F828802F
:10095000022084F8F100EFE084F8F180401E60622C
:10096000521CE261E8E0218D49B9E3691A78202A36
:100970001BD0092A19D00A2A17D00D2A15D0E069F0
:1009800000782D2816D0202814D0092812D00A2843
:1009900010D00D280ED021B384F8F180606A401E7B
:1009A0006062E069401CE061C6E0401E60625B1C62
:1009B000E361C1E079B1032084F8F10084F82D10DF
:1009C00004F12E0001F80080E06900782D2805D0A0
:1009D000A4F82880E2E784F8F180DFE7A4F8289003
:1009E000DCE7A4F8289084F82E00D7E7218D49B9D8
:1009F000E3691A78202A16D0092A14D00A2A12D0BC
:100A00000D2A10D0E269DAF804C013781CF801C08E
:100A1000634537D1401E6062521CE261022907D053
:100A2000491C218588E0401E60625B1CE36183E015
:100A30002046FFF775FEA4F82880042084F8F10012
:100A4000E06920626168884276D9BDF80020401ACA
:100A5000904200DA009094F82C0008B1012300E0E5
:100A600000236A463846FFF73CFE0546280063D15E
:100A70000126BDF800006168014461606169081ADF
:100A8000606159E0401E6062521CE26184F8F180AE
:100A900052E06168206A88421ED9401A904200DA0A
:100AA0000090BDF8000058B194F82C0008B1012363
:100AB00000E000236A463846FFF713FE054600E0D3
:100AC000002515BB0126BDF8000061680144616086
:100AD0006169081A60612FE0208D618D884227D2FC
:100AE000091A914200DA009104F130010144012316
:100AF0006A463846FFF7F5FD054628001CD1012659
:100B0000208DBDF800100844208515E02800002045
:100B10003C623E2A2A2A554E4B4E4F574E20544196
:100B2000472000002A2A2A3C2F623E0040A30008EA
:100B3000A4F8288084F8F180606A10B1002D3FF499
:100B4000DCAE94F8F100042828D06168E06988429E
:100B500024D9B7F86E20401A904201DD009200E0DF
:100B60000090388FBDF80020B2EB400F02D90BEA9D
:100B70004000009094F82C0008B1012300E000230D
:100B80006A463846FFF7ADFD40B90126BDF80000C2
:100B90006168014461606169081A6061606950B907
:100BA000206800F0BEFB002805DC2146384600F036
:100BB00024F8002011E630460FE610B50C46014639
:100BC000002910D0087E401CC0B2087604280FD03F
:100BD000086830B12046FFF7ECFD10B1204607F061
:100BE00037FA002010BD204600F007F8002010BDA5
:100BF000204600F002F8002010BD70B505460C46F6
:100C00000021284606F0B1F80021284606F0AFF88A
:100C10000021284606F0B1F800221146284606F0C9
:100C2000B1F80021284606F0A5F82046FFF744FD5C
:100C3000284605F085FD002806D02846BDE870400E
:100C40000422FD4906F09EB870BD2DE9F0478046AC
:100C5000002905D0087818B10C460025002724E0AB
:100C60000020BDE8F08708EB8506C6F8F440A146F1
:100C70002621204609F086F918B100F8017B0446C8
:100C800006E02021484609F07DF900B107700024F4
:100C90003D21484609F076F920B100F8017BC6F8FD
:100CA000340101E0C6F834716D1C102D01DA002CFE
:100CB000D9D12846D5E710B50446E0A0206000F061
:100CC000F2FA00280DD1E0A0206000F0ECFA002834
:100CD00007D1E0A0206000F0E6FA002801D1002151
:100CE000216010BD70B504461546002300291ED0B2
:100CF000238584F8F1300868E0614868606208681C
:100D000020622160086860604A6862612376097C1D
:100D100089B185B1D2A1FFF79FFC60B16168401A2B
:100D2000001D014461606169081A606103E023608D
:100D3000636063612376002070BD2DE9F7430646AA
:100D400017464FF0000886F82C80019801782F296B
:100D500001D1417891B13F2109F014F905462800ED
:100D600002D085F800806D1CDFF8FC92D9F81000E5
:100D7000B0B3D9F80C0098B3002425E00024DFF8C4
:100D8000EC9259F8340000F08EFA054659F8340018
:100D900001902DB109EBC400007986F82C0002E027
:100DA000641C052CEDD3ADBB01A8FFF784FF0546FD
:100DB00086F82C8048E0D9F80C0050F834100198DF
:100DC00009F0F1F898B1641CD9F810008442F2DB04
:100DD000D9F81000844203D115B13F2005F8010C69
:100DE000019800F060FA0546280014D017E0294663
:100DF0003046FFF72AFF0146D9F80C0006F59A7332
:100E000000EBC40006F1F402D0F804C02046E0472D
:100E10000190DDE718E001A8FFF74DFF05469DB101
:100E200086F82C800024DFF8408208F1140801982D
:100E300058F8241009F094F818B1012086F82C0015
:100E400002E0641C042CF2D33A4629463046019B4A
:100E5000FFF748FFBDE8FE832DE9F0470D46066821
:100E60002868002801D1686810B16FF00A00F8E620
:100E7000A86890B1314605F03DF9A868016871B1E4
:100E8000068940F2FF318E4200D30E4600233246DF
:100E9000774905F0ACF9764C03E0AE60EDE7746895
:100EA00076896FF00909072E30D3324671A12046AA
:100EB000FFF7D2FB50B3002704226FA1204609F0B0
:100EC0008DF8B84618B184F804804846C9E6E41C99
:100ED000361FB6B232466AA1601CFFF7BDFB28B9C7
:100EE000324664A1601CFFF7B7FB0127011B491EB6
:100EF0008AB258B1A04209D9611C84F8008001F877
:100F000002803A462846BDE8F04716E7A86805F093
:100F1000E2F8A9680989B1F5806F04D20A2802D8DD
:100F20006FF00D009DE648469BE6002801D0FFF7D4
:100F3000C3BB704710B50A460146002906D0002001
:100F400008761046FFF735FC002010BD002010BDCC
:100F50007FB504460E466FF004050298002B08D1B9
:100F600038B134B10189304605F06BFC206878B1A6
:100F700014E030B10189304605F063FC029804F0BA
:100F800091FF21463046FFF738FE002004B070BDC7
:100F90003246214602A8FFF75FFF054615F10E0F06
:100FA00005D0A06818B104F07DFF0020A06015B145
:100FB0000A3505D008E021463046FFF7FAFB03E08A
:100FC00021463046FFF719FE0020DFE710B50C463A
:100FD0000121204605F03EFEFFF760FB0146A9B166
:100FE000204605F0C2FE2749204605F0C0FE2649EE
:100FF000204605F0C2FE04220F49204605F0C2FE3D
:101000002249204605F0B6FE002010BD4FF0FF300B
:1010100010BD70B5044605F0A6FE05460121284620
:1010200005F018FE50222146284605F0F0FCFF216D
:10103000284605F051FD2BE0BB0B00082F3430345F
:101040002E68746D6C0000002F3430342E68746D7F
:10105000000000002F3430342E7368746D6C000073
:101060000D0A0D0A000000002800002048A3000817
:10107000980100200D0A00004745542000000000A0
:1010800020000000510F00082B0F0008350F00084A
:1010900004462146204605F068FE2046BDE8704023
:1010A0000A4905F06DBE10B500F0AEF800F0B3F8D7
:1010B000BDE810400648ACE7064B186099605A60DE
:1010C0007047044AD060116170470000CD0F0008DE
:1010D000788101082800002010B58CB00121080299
:1010E00002F039FD0820009003208DF80400002450
:1010F0008DF8074069464C4802F032FB02944FF4E9
:10110000003003900494059402A801F0A6FC06A800
:1011100001F099FC06948DF81C4001208DF81D000B
:1011200008940A948DF82C00404C06A9204601F042
:1011300069FC032301221946204601F0E0FC01214D
:10114000204601F09FFC204601F013FD0CB010BDBD
:1011500070B50C46002801D0002070BD344D2868C1
:10116000012803D1FFF7B8FF002028602F4801F0C5
:1011700038FD08F0C5FF2F4A2F4B08F03EFF08F05E
:10118000CCFF4FF47A71B0FBF1F1C9B26FF07C0281
:1011900011FB02F200EBC2026423B2FBF3F2D2B203
:1011A0004FF47A7311FB03F302EBC20505EB021552
:1011B00003EB8505431B0A26B3FBF6F303EB83061B
:1011C00005EB4605401B3031217030326270303300
:1011D000A3703030E070042070BD70B50E46154627
:1011E000002400280ED100F0D3FF09E055F82400B8
:1011F00012A108F0D8FE10B9002000F0C0FF641C56
:10120000B442F3D30EA070BD094801224168AFF289
:10121000BF00FFF751BF0F49054806C9C0E90212D8
:1012200001210830FFF74DBF0000024000200140BF
:101230004C0000209A9999999999E93F6C6564004E
:101240002F53544D3332463478374C45442E68740E
:101250006D6C000070A300080020344900EB4002D0
:1012600001EBC202127D22B1401C0A28F6DB0020ED
:10127000704700EB400001EBC0000122027570478F
:1012800000212A4A01EB410302EBC303834206D14A
:1012900001EB410102EBC101002008757047491CB8
:1012A0000A29EFDB704770B50646FFF7D5FF054604
:1012B000280001D01E4C07E0002070BD3046616858
:1012C00008F071FE38B12468002CF7D12846FFF7EA
:1012D000D7FF002070BDA0682860E0686860E06803
:1012E000A8600020E860207C2874284670BDC7E70D
:1012F00070B505460B46D5E90110884202D14FF082
:10130000FF3070BD0C1A944200DD14462968224655
:101310000144184608F000FEA8682044A860204652
:1013200070BDD0E90110081A704700009805002030
:10133000086F010870477CB5FFF7FCFF012104200E
:1013400001F0EAFF042001F039FF4CF20370009035
:1013500000208DF804008DF80700FB4D69462846F3
:1013600002F0FEF900221146284602F071FA00222E
:101370000121284602F06CFA00220821284602F0DA
:1013800067FA00220921284602F062FA00220A21A7
:10139000284602F05DFA00220E21284602F058FA93
:1013A00000220F21284602F053FA4FF68070009079
:1013B000E64C6946204602F0D3F900220721204678
:1013C00002F046FA00220821204602F041FA0022EB
:1013D0000921204602F03CFA00220A21204602F0B0
:1013E00037FA00220B21204602F032FA00220C21AB
:1013F000204602F02DFA00220D21204602F028FAA4
:1014000000220E21204602F023FA00220F2120465E
:1014100002F01EFA4FF23F010091CD4E6946304670
:1014200002F09EF900221146304602F011FA002225
:101430000121304602F00CFA00220221304602F06F
:1014400007FA00220321304602F002FA00220421AA
:10145000304602F0FDF900220521304602F0F8F98D
:1014600000220C21304602F0F3F900220D21304613
:1014700002F0EEF900220E21304602F0E9F90022D6
:101480000F21304602F0E4F93F210091B14E694648
:10149000304602F065F900221146304602F0D8F9D4
:1014A00000220121304602F0D3F900220221304609
:1014B00002F0CEF900220321304602F0C9F90022E1
:1014C0000421304602F0C4F900220521304602F022
:1014D000BFF94FF4605100916946284602F040F987
:1014E00000220B21284602F0B3F900220C212846E5
:1014F00002F0AEF900220D21284602F0A9F93021B0
:1015000000916946284602F02BF900220421284662
:1015100002F09EF900220521284602F099F92115D2
:1015200000916946304602F01BF900220C2130463A
:1015300002F08EF9032100916946204602F010F96D
:1015400000221146204602F083F9002201212046A4
:1015500002F07EF97CBD2DE9FC4101213A2002F028
:10156000CAFA4CF23370009002208DF804008DF816
:10157000050000248DF806408DF80740724F69463B
:10158000384602F0EDF80C220021384602F060F9EE
:101590000C220121384602F05BF90C220421384666
:1015A00002F056F90C220521384602F051F90C22BE
:1015B0000821384602F04CF90C220921384602F085
:1015C00047F90C220A21384602F042F90C220E217A
:1015D000384602F03DF90C220F21384602F038F966
:1015E0004FF680700090594E6946304602F0B8F8C8
:1015F0000C220721304602F02BF90C22082130463C
:1016000002F026F90C220921304602F021F90C22C1
:101610000A21304602F01CF90C220B21304602F060
:1016200017F90C221146304602F012F90C220D2156
:10163000304602F00DF90C220E21304602F008F976
:101640000C220F21304602F003F908250095694667
:10165000304602F085F80C220321304602F0F8F8FB
:10166000802000906946384602F07AF80C220A2160
:10167000384602F0EDF8009501258DF804508DF8FC
:1016800005408DF806408DF807406946384602F05F
:1016900067F86E0300968DF804508DF805508DF8AC
:1016A00006408DF807406946384602F059F8314641
:1016B000384602F0BDF8BDE8FC8100B597B00121C5
:1016C000084602F030FA0120019000200290092122
:1016D00003910490059006900790089009900A9055
:1016E00010210B910C900D900E900F90109009020C
:1016F000119112901390149001A81590169008A8BB
:1017000001F074FD0121002001F006FE17B000BDBC
:101710001149486070471149088070474FF0C04236
:1017200010800E480180704701B581B042F21071FF
:1017300001984843009002E00098401E00900098F5
:101740000028F9D10CBD0000000C0240001002403E
:1017500000140240001802406000002000001060E9
:1017600010B5FFF7F8FEFFF7A8FF0520FFF7DCFF35
:10177000FE4C0821204602F05DF80A20FFF7D4FF56
:101780000821204602F054F801211020FFF7C6FF7F
:10179000B2211E20FFF7C2FF06212820FFF7BEFF5F
:1017A00001210020FFF7BAFF43F2EF010120FFF70C
:1017B000B5FF4FF4C0610220FFF7B0FF00211020F9
:1017C000FFF7ACFF0520FFF7AFFF46F63001112011
:1017D000FFF7A4FF40F699111220FFF79FFF4FF487
:1017E00060512620FFF79AFF33210720FFF796FF6D
:1017F00005210C20FFF792FF00213020FFF78EFF1C
:1018000040F203313120FFF789FF40F207413220D7
:10181000FFF784FF40F2013319463320FFF77EFFC4
:1018200019463420FFF77AFF40F203413520FFF7D5
:1018300075FF40F207713620FFF770FF2115372042
:10184000FFF76CFF4FF420613A20FFF767FFA11408
:101850003B20FFF763FF0A210D20FFF75FFF4FF4E6
:1018600038510E20FFF75AFF4FF46F414420FFF725
:1018700055FF00214520FFF751FF40F23F11462060
:10188000FFF74CFF00214E20FFF748FF00214F20BB
:10189000FFF744FF00212220FFF740FF00224FF412
:1018A00096330020FFF737FF521C9A42F9D3BDE868
:1018B0001040AF482CE700B50B4601464E20FFF71D
:1018C0002DFF19464F205DF804EB27E74FF0C0418C
:1018D0000880A848008870474FF0C0412220088047
:1018E0007047A4480088704700B500210846FFF7FC
:1018F000E2FFFFF7F1FF00209E494FF478424FF4DA
:10190000C8430A80401C9842FBD34FF4FC624FF45A
:10191000484301E00A80401C9842FBD31F224FF449
:10192000963301E00A80401C9842FBD300BD03B50A
:10193000BDF800108E4808380180BDF804104180C1
:1019400000E78B4A083A1388038050880880704764
:1019500001B5BDF8000086490839088008BD01B509
:10196000BDF8000082490839488008BD70478048AA
:101970000838406870472DE9F0410546884616460C
:10198000002429464046FFF796FF794F083F29E09B
:10199000FFF7A2FF00231AE00C21B0FBF1F1C90010
:1019A00080228A4036F814101A410A4201D10C28CC
:1019B00005D901229A40114205D10C2803D9788813
:1019C000FFF7A9FE02E03888FFF7A5FE5B1C7868E8
:1019D00080889842E0D86D1CADB229464046FFF79A
:1019E0006AFF641C7868C088A042D1D8BDE8F08145
:1019F00010B4203AD3B25E4A083A52681468D288CA
:101A00005A4304EB420210BCB5E7F0B50746002488
:101A1000574D4FF4A076083D202221463846FFF767
:101A2000E7FF68688188081984B2B442F4D3F0BD36
:101A300030B50546002400210846FFF73CFFFFF7BC
:101A40004BFF4C494FF496300D80641C8442FBD30D
:101A500030BD2DE9F04380460D46164699460024D8
:101A600029464046FFF727FF414F083FB9F1000FD5
:101A700016D1FFF731FF03E03888FFF74CFE641CF6
:101A8000B442F9D3BDE8F083FFF726FF3888FFF7AB
:101A900042FE6D1CADB229464046FFF70CFF641CA8
:101AA000B442F1D3EEE7B0F5A07F08D2002906DBFF
:101AB000EF2904DC002389B280B20122C9E7704714
:101AC0002DE9F04180460D460024294E4FF4A077C1
:101AD000083E0AE021464046FFF78AFF706880888A
:101AE000204484B2BC4281D26D1C2A78002AF1D1F4
:101AF0007CE770B504460D46164621464520FFF7A3
:101B00000DFEA219B2F5A07F05D340F23F11462089
:101B1000FFF704FE03E091B24620FFF7FFFDEA184D
:101B2000F02A02D34FF46F4200E01202224391B236
:101B30004420FFF7F3FD29462046BDE87040BAE691
:101B40007047F0B504460F4615461E46012332463F
:101B500039462046FFF77DFF6019401E80B2012301
:101B600032463946FFF775FF002305E0000C0240BE
:101B700068000020000010602A4639462046FFF722
:101B800068FFB81981B22A462046BDE8F04000231C
:101B90005FE72DE9FC4F804689460320A0EB420613
:101BA0000024154674E008EB040009EB050A0190D7
:101BB0001FFA8AF180B2FFF77EFEFFF78DFEFE4F1F
:101BC0003888FFF7A8FD0198A9EB050B1FFA8BF1E8
:101BD00080B2FFF770FEFFF77FFE3888FFF79BFDAE
:101BE0001FFA8AF1A8EB040A1FFA8AF0FFF763FED6
:101BF000FFF772FE3888FFF78EFD1FFA8BF11FFA90
:101C00008AF0FFF758FEFFF767FE3888FFF783FD7D
:101C100009EB040081B208EB050A00901FFA8AF074
:101C2000FFF749FEFFF758FE3888FFF774FDA9EB70
:101C3000040B1FFA8BF11FFA8AF0FFF73CFEFFF747
:101C40004BFE3888FFF767FD0098A8EB050A81B2C4
:101C50001FFA8AF0FFF72FFEFFF73EFE3888FFF7E6
:101C60005AFD1FFA8BF11FFA8AF0FFF724FEFFF7E7
:101C700033FE3888FFF74FFD002E03DA06EB8406AB
:101C8000B61D04E0601B06EB80060A366D1E641C60
:101C9000AC4288D9BDE8FC8FF0B50646002440F27E
:101CA0003F110020FFF707FEFFF716FEC24D01238C
:101CB0004FF41667002256F8241003FA02F001428E
:101CC00003D16888FFF727FD02E02888FFF723FD8E
:101CD000521C202AEFD3641CBC42EBD3F0BD7047EA
:101CE0002DE9F0430746894690461C46B24E30889F
:101CF000FFF72EFE0023424649463846FFF7A9FE6D
:101D000009EB040081B2002342463846FFF7A1FEEA
:101D10000123224649463846FFF79BFE07EB0800A1
:101D2000401E80B2012322464946FFF792FE641E00
:101D3000A5B209F101091FFA89F47088FFF708FEBE
:101D400007E02146641CA4B2002342463846FFF750
:101D500080FE6D1EADB2F4D23088BDE8F043F7E5E9
:101D60002DE9F74F0746884602980321A1EB40066C
:101D70000024029D90484088FFF7EAFD4FF6FF7966
:101D800035E09DB109EA450208EB050A381B934688
:101D90001FFA8AF180B20023FFF75BFE38195A461A
:101DA0001FFA8AF180B20023FFF753FE9CB109EAC3
:101DB000440208EB040A781B93461FFA8AF180B2AA
:101DC0000023FFF746FE78195A461FFA8AF180B2BF
:101DD0000023FFF73EFE002E03DA06EB8406B61D55
:101DE00004E0601B06EB80060A366D1E641CAC42E4
:101DF000C7D971480088FFF7ABFD029A03B041468E
:101E00003846BDE8F04FC4E62DE9FC5F84460C4639
:101E10000027A2EB0C00002801DCACEB020000B2B2
:101E2000191B002900DCE11A09B20FFA8CF526B261
:101E30004FF0FF3B624503D34FF00109CA4601E072
:101E4000D946DA46A34204D34FF0010B0122019296
:101E500001E0CDF804B088420ADB4FF0000900220F
:101E6000019200EBD072521014B20091804623E030
:101E70004FF0000AD34601EBD172521014B2009019
:101E8000884619E031462846FFF70DFE00982044A9
:101E900004B2444508DBA4EB080004B205EB0900DA
:101EA00005B206EB0B0006B205EB0A0005B201987D
:101EB000304406B27F1C3FB24745E3DDBDE8FC9FDE
:101EC00070B504460D46022D0DD308E020886188C8
:101ED000241D89B26388228880B2FFF795FF6D1EAA
:101EE0002D042D0CF2D170BD2DE9F04704460F46AC
:101EF0009146A046022F25D3B4F90050B4F90260F0
:101F000010E0241DB1B26088304483B22088284498
:101F100082B2A8B2FFF778FF2088284405B2608813
:101F2000304406B27F1E3F043F0CEAD1B9F1000FE6
:101F300008D0B3B2AAB2B8F80210B8F80000BDE8F1
:101F4000F04761E7BDE8F08770B504460D462946C5
:101F50002046FFF7B5FF04EB8500001F618843882A
:101F600002882088BDE870404EE70022BCE70122CD
:101F7000BAE72DE9F34FE9B00446B4F800A0D34620
:101F800065880195012013E004EB800149885145E3
:101F900000D28A46594500D98B4634F82020AA42FF
:101FA00000D2154601998A4200D90192401C80B2A4
:101FB0006A998842E8D301E0600000205F484088C9
:101FC000FFF7C6FC0295AEE04FF000096A98401E8C
:101FD0001FFA80F800254FE0029808F091F80646B5
:101FE000679168900F4634F9250008F078F832467A
:101FF0003B4608F0ABF80AD234F92800679F689E88
:1020000008F06DF832463B4608F0B8F815D934F9B7
:102010002800679F689E08F062F832463B4608F049
:1020200095F826D234F92500679F689E08F057F886
:1020300032463B4608F0A2F81BD804EB8800029B0E
:10204000B0F9021004EB8500B0F902000A1A34F965
:1020500025105B1A5A4334F92830591A92FBF1F1D2
:102060000144484603AA09F101091FFA89F922F837
:102070001010A8466D1CADB26A988542ACD3002002
:10208000A9F1010503AF0FE0411C37F8102037F824
:1020900011309A4207D927F8103027F8112018B1CB
:1020A000401E80B200E088B2A842EDDB002534E09B
:1020B00037F81500584532D26E1C37F816105145C6
:1020C00029D9504501D227F815A037F816005845F0
:1020D00001D927F816B0DFF86480B8F80200FFF7DE
:1020E00037FC37F8161037F815000023081A82B2AB
:1020F0000298FFF7AEFCB8F80000FFF729FC029841
:1021000037F9161000B20646FFF7CDFC37F9151067
:102110003046FFF7C8FCAD1CADB24D45C8D30298A0
:10212000401C80B20290DDE901108842FFF44CAF00
:10213000024800886BB0BDE8F04F09E46000002061
:102140001CB50446FE48012150F8240001F0D3FCE0
:10215000FB48203830F81400009001208DF804006E
:1021600000218DF806108DF8070002208DF805007B
:10217000F448694650F8240001F0F2FA1CBDF04919
:10218000F04A203931F8101052F8200001837047CE
:10219000EB49EC4A203931F8101052F82000418305
:1021A0007047E84951F820104A69E54B203B33F865
:1021B000100042404A61704770B586B004460E4632
:1021C000DF4801213C3850F8240001F094FC012143
:1021D000880301F0C0FC00258DF814508DF81750CD
:1021E000D748403830F814000490D64804A91C3869
:1021F00050F8240001F0B4FA012E25D1D04843381C
:10220000015D401E005D01F04CFECD483E3830F8C7
:10221000140002908DF80C5008208DF80D00012557
:102220008DF80E5002A800F061FFC5484238005DED
:102230008DF804000F208DF805008DF806008DF84C
:10224000075001A800F079FB06B070BDBC49BD4A3B
:1022500040391C3A31F8101052F8200001F0D4BA7D
:102260002DE9FC4104460E46B548B54910380839F9
:1022700050F8240051F824100843012101F03BFCE0
:10228000AF480121183850F8240001F064FCAC4834
:10229000AC4F2838103F10F81420083830F81410CC
:1022A00057F8240001F0D4FAA54807F108082438AB
:1022B00010F81420083830F8141058F8240001F0F1
:1022C000C7FA00208DF8060001208DF807000225CE
:1022D0008DF804509A48383830F8140000908DF882
:1022E000055057F82400694601F03AFA8DF8045079
:1022F0009348343830F81400009058F824006946A8
:1023000001F02EFAA7F10805314655F8240000F037
:1023100089F955F82400012100F0FDF9BDE8FC81A0
:102320007CB5002001F0F8FC002001F0F8FC01F081
:10233000CBFC00214FF4006001F00DFC824C002228
:102340000821204601F084FA00220921204601F0EC
:102350007FFA00220A21204601F07AFA00220B219E
:10236000204601F075FA00220C21204601F070FA97
:10237000764D00220221284601F06AFA4FF470617E
:10238000009100218DF804108DF807106946204651
:1023900001F0E6F9042100916946284601F0E0F9D0
:1023A000A11400916946204601F0DAF97CBD2DE9BF
:1023B000FC4101210E2001F09EFB634E0C220821FE
:1023C000304601F045FA0C220921304601F040FA6E
:1023D0000C220A21304601F03BFA0C220B21304638
:1023E00001F036FA0C221146304601F031FA574F0F
:1023F0000C220221384601F02BFA4FF47060009055
:1024000001248DF8054002208DF8040000258DF888
:1024100006508DF807406946304601F0A1F90421C5
:1024200000916946384601F09BF9200300908DF831
:1024300007506946304601F093F9E00300908DF8AB
:1024400004508DF807406946414801F089F901219F
:10245000C80201F080FB0121880501F04CFB5DE71B
:1024600030B58FB004463B4D4FF0FA51284600F08E
:10247000C0FD0021284600F04DFD284600F086FCF6
:102480004FF0006000903448019002944020039087
:102490000020049005902915069189000791890074
:1024A000089109904FF440300A9004200B900320CB
:1024B0000C9048020D9080100E906946284600F05E
:1024C000F0FC01221021284600F0A4FD202128461E
:1024D00000F038FD0121284600F01CFD0FB030BD92
:1024E00030B58FB004461B4D4FF0FA51284600F02E
:1024F00080FD0021284600F00DFD284600F046FC36
:102500004FF0006000901448019002940020039066
:10251000049005902915069189000791890008917A
:1025200009904FF440300A9004200B9003200C9047
:1025300048020D9080100E90694628460EE000007B
:10254000308101088C00002000080240000C02408D
:102550000004024058640240802C014000F0A1FCBD
:1025600001221021284600F055FD2021284600F0C8
:10257000E9FC0121284600F0CDFCAFE710B5E649A3
:10258000884209D10121102001F021FB0021BDE882
:102590001040102001F01BBBE04988420AD1012104
:1025A0004C04204601F007FB2046BDE81040002106
:1025B00001F001BBDA4988420AD101218C0420468E
:1025C00001F0F9FA2046BDE81040002101F0F3BA0D
:1025D000D44988420AD10121CC04204601F0EBFA0B
:1025E0002046BDE81040002101F0E5BACE498842FE
:1025F0000AD101210C05204601F0DDFA2046BDE894
:102600001040002101F0D7BAC849884209D1012100
:10261000202001F0DCFA0021BDE81040202001F06C
:10262000D6BA10BD7FB504460D46208A20F440512D
:10263000E88808432082A08941F20C618843A98878
:102640002A8911436A8902431143A181A08A20F497
:102650004071A8890843A082684601F0E1F9AE48BC
:10266000844202D0B148844201D1039800E002982C
:10267000A189090408D500EBC00101EB001029680D
:102680004900B0FBF1F007E000EBC00101EB0010E6
:1026900029688900B0FBF1F06422B0FBF2F1090176
:1026A0000B096FF018056B4300EB8300A3891D0431
:1026B0004FF0320307D503EBC000B0FBF2F000F09F
:1026C0000700084306E003EB0010B0FBF2F000F057
:1026D0000F00084320817FBD4FF416510160002197
:1026E0008180C18001810C2242818181704710B5B7
:1026F000028A22F470630A884C8822438C88C98835
:102700000C4322431A43028210BD00210180418004
:102710008180C1807047002904D0818941F4005133
:1027200081817047818921F4005181817047028B3A
:1027300002F47F420283028B0A430283704700291E
:1027400004D0818941F40041818170478189C1F3BE
:102750000E0181817047002904D0818A41F4006113
:1027600081827047818A21F4006181827047C1F3C0
:102770000801818070478088C0F308007047028A92
:1027800022F00F020282028A0A4302827047002965
:1027900004D0818941F0020181817047818921F053
:1027A000020181817047828922F4006282818289DC
:1027B0000A4382817047028A22F020020282028A42
:1027C0000A4302827047002904D0018A41F4804103
:1027D00001827047018A21F480410182704781891A
:1027E00041F0010181817047002904D0818A41F0C4
:1027F000080181827047818A21F008018182704737
:10280000028BD2B20283028B42EA0121018370471C
:10281000002904D0818A41F0200181827047818A99
:1028200021F0200181827047002904D0818A41F083
:10283000100181827047818A21F0100181827047E6
:10284000828A22F004028282828A0A43828270474C
:10285000002904D0818A41F0020181827047818A77
:1028600021F0020181827047002A03D0828A0A4344
:1028700082827047828A8A438282704710B540F60E
:102880006A13C1F3421301F01F040121A140012B7F
:1028900007D0022B07D014303AB102680A43026015
:1028A00010BD0C30F8E71030F6E702688A4302608A
:1028B00010BD0246002012880A4200D00120704755
:1028C0008A05C9430180704770B5002440F66A123A
:1028D000C1F3421301F01F05012606FA05F2012B90
:1028E0000CD0022B0DD0838A1340090A8E40008839
:1028F00030400BB100B10124204670BD83891340E4
:10290000F3E7038A1340F0E740F66A120A0A01214E
:102910009140C943018070470010014000440040CD
:1029200000480040004C00400050004000140140AE
:102930002B4908432B490860704730B50F23C278F4
:1029400001250178002A1FD0264A126802F4E062AD
:10295000C2F5E062C2F30722C2F10404D340427818
:10296000A24084781C401443220101F1E02181F847
:102970000024007800F01F018D404009800000F124
:10298000E020C0F8005130BD01F01F00854048092B
:10299000800000F1E020C0F8805130BD124A1140A3
:1029A00001431048001F016070470E4A121D0029A4
:1029B00003D01168014311607047116881431160B1
:1029C00070474FF0E021042804D0086920F004008B
:1029D00008617047086940F0040008617047000012
:1029E0000000FA050CED00E080FFFF1F10B501218B
:1029F0000C02204601F0EBF82046BDE81040002113
:102A000001F0E5B830B54268DA4B1A400C790B6832
:102A100042EA0422134343608368D74A1340D1E952
:102A2000034222434D798C6844EA450422431A4309
:102A30008260C26A22F47002097D491EC9B242EA6C
:102A40000151C16230BD002101600171417181609D
:102A5000C160016101210175704710B5C74C226842
:102A6000C7490A40D0E900131943D0E902300343B3
:102A700019431143216010BD002101604160816054
:102A8000C1607047002904D0816841F00101816074
:102A90007047816821F00101816070474268B94B3D
:102AA0001A400A434260704741628262704742683E
:102AB00022F01F020A4342607047B349002806D043
:102AC000D1F8040340F40000C1F804037047D1F8C2
:102AD000040320F40000C1F804037047AA49002849
:102AE00006D0D1F8040340F48000C1F80403704715
:102AF000D1F8040320F48000C1F80403704770B5D6
:102B0000072609290AD9C568A1F10A0404EB44047F
:102B1000A640B543A3401D43C56007E0056901EB2E
:102B20004104A640B543A3401D4305611F23072A66
:102B300009D2446B521E02EB820293409C439140A7
:102B40000C43446370BD0D2A09D2046BD21F02EB03
:102B5000820293409C4391400C43046370BDC46A5D
:102B60000D3A02EB820293409C4391400C43C462B5
:102B700070BD816841F0804181607047014600204E
:102B80008968490200D501207047002904D0816876
:102B900041F4806181607047816821F480618160C7
:102BA0007047002904D0816841F0020181607047BC
:102BB000816821F0020181607047426822F460421E
:102BC000491E42EA413141607047002904D0416802
:102BD00041F4006141607047416821F40061416047
:102BE0007047C06C80B270476448001D0068704731
:102BF000002904D0816841F4807181607047816848
:102C000021F4807181607047002904D0816841F40B
:102C1000007181607047816821F4007181607047A4
:102C20005949002806D0D1F8040340F40050C1F8F7
:102C300004037047D1F8040320F40050C1F80403E2
:102C4000704770B5072609290AD9C568A1F10A0499
:102C500004EB4404A640B543A3401D43C56007E010
:102C6000056901EB4104A640B543A3401D4305613E
:102C7000836BC3F30154121B921C02EB82021F24CC
:102C80009440A34391400B43836370BD826B22F455
:102C90004012491E42EA01518163704708B5009015
:102CA0000098084400900098026008BD826822F4F1
:102CB00070220A4382607047826822F440120A43FD
:102CC00082607047816841F48001816070470146ED
:102CD00000208968490200D501207047002904D0EE
:102CE000416841F4806141607047416821F480612E
:102CF00041607047002904D0416841F4805141602F
:102D00007047416821F480514160704708B50090D8
:102D100000980844283000900098006880B208BDF0
:102D200001238B40002A03D041681943416070475A
:102D300041689943416070470246002012680A4288
:102D400000D001207047C9430160704730B502468A
:102D500000200B0A546801258D402C40116819424F
:102D600002D0002C00D0012030BD090AC943016007
:102D700070470000FFFEFFFCFDF7FFC00423014089
:102D8000E030FCFFFFFD3FFF002001402DE9F04354
:102D9000016821F001010160002101604160816052
:102DA000C160016121214161C149C14A10394FF01F
:102DB0003D08904203D1C1F80880BDE8F083BC4AC9
:102DC0004FF474651832904201D18D60F5E7B84A2E
:102DD0004FF474163032904201D18E60EDE7B44A60
:102DE0004FF074674832904201D18F60E5E7B04BF5
:102DF000B04A6033984201D1CA60DEE7AC4CAE4BBA
:102E00007834A04201D1CB60D7E7DFF8A4C2AB4C45
:102E10000CF1900C604501D1CC60CEE7DFF89092C8
:102E20004FF03D5C09F1A809484502D1C1F80CC03A
:102E3000C3E7A349DFF888920839484502D1C1F8B1
:102E40000080BAE7DFF8788208F11808404501D120
:102E50000D60B2E79A4D3035A84201D10E60ACE763
:102E6000974D4835A84201D10F60A6E7944D94498B
:102E70006035091FA84201D10A609EE7904A783266
:102E8000904201D10B6098E78D4A9032904201D177
:102E90000C6092E78A4AA83290428ED1C1F800C0F5
:102EA0008BE730B50368874A1340CC680A68224331
:102EB000D1E905452C432243CC6922430C6A2243C5
:102EC0004C6A22438C6A22434C6B22438C6B224314
:102ED0001A430260426922F00703D1E90B2422431E
:102EE0001A4342610A6942604A6882608968C16027
:102EF00030BD0021016041608160C16001614161BC
:102F00008161C161016241628162C16201634163A9
:102F100081637047002904D0016841F0010101601C
:102F20007047016821F0010101607047002904D059
:102F3000016841F4004101607047016821F40041DB
:102F400001607047002904D0016841F02001016050
:102F50007047016821F020010160704741607047AF
:102F6000406880B27047002A04D0026842F4002210
:102F7000026003E0026822F40022026001617047EF
:102F8000002904D0016841F4802101607047016884
:102F900021F4802101607047002A01D0016170474F
:102FA000C1607047014600200968090300D501206F
:102FB0007047014600200968C90700D0012070470A
:102FC000406900F038007047024600203C4B9A42AE
:102FD00002D2374A103A01E0394A103A8B0001D543
:102FE000526800E01268384B1A400A4200D00120B3
:102FF0007047334A904202D22D48103801E03048E1
:103000001038314A8B0001EA020101D5C1607047D6
:10301000816070470B0609D522B1436943F08003F4
:10302000436103E0436923F080034361802905D0B5
:1030300001F01E011AB102680A430260704702687B
:103040008A430260704730B500241D4A904202D284
:10305000174A103A01E01A4A103A1C4B194205D09F
:103060001E2303EAD12503682B4002E0406900F0EB
:103070008003880001D5506800E01068124A1040B3
:10308000084201D003B10124204630BD0C4A9042D1
:1030900002D20748103801E0094810380A4A8B006C
:1030A00001EA020101D5C1607047816070470000EC
:1030B000106002403D000020400F002000003D2035
:1030C000106402403F801CF07D0F7D0F3C0F3C0FD1
:1030D000384900200860091D0860091D0860091DA5
:1030E00008603449344814310860704730B5314ABB
:1030F00083790168002B2AD013688B431360111D5C
:103100000B680468A3430B60017911440B680468E1
:1031100023430B60274C08342168036899432160DE
:10312000231D19680568A94319604179102905D044
:1031300011440A68006802430A6030BD21680268D1
:1031400011432160196800680143196030BD00799E
:10315000104402688A43026030BD002101600171A1
:103160000C22427181717047124910310A68024382
:103170000A607047014600200E4A143212680A4263
:1031800000D0012070470B49143108607047014698
:103190000020084A12680A40064B14331B680B4291
:1031A00002D0002A00D00120704702491431086083
:1031B00070470000003C0140FFFF7F008100A1F14B
:1031C000C04100280CD043F2D2020A60401C8000AB
:1031D000A0F1C0406FF070420260C1F80421704756
:1031E0004FF0204343F2DB021A60EFE710B5D0E95D
:1031F00001121143D0E903231A43114342691143D9
:1032000082691143C2691143026A1143426A114340
:10321000826A1143C26A1143026B11430268920031
:10322000A2F1C04211608168082907D101688900B4
:10323000A1F1C0410A6842F040020A60416BD1E945
:10324000002342EA03128B688C891B0243EA044381
:103250001A430B8A42EA03520B7D896942EA0362F0
:103260000A430168491C8900A1F1C0410A60C16A92
:10327000B1F5804F08D000686FF070418000A0F178
:10328000C040C0F8041110BD816BD1E9002342EAAF
:1032900003128B680C8A1B0243EA04531A430B7D0A
:1032A000896942EA036200680A438000A0F1C040D5
:1032B000C0F8042110BD10B5002101600222426057
:1032C0008160C160016141618161C1610162D202BD
:1032D000426252008262C1620163436B0F221A6034
:1032E000436B5A60446BFF23A360446BE260446B02
:1032F0002261446B6261446BA161846B2260846BC8
:103300006260846BA360836BDA60836B1A61836B8A
:103310005A61806B816110BD8000A0F1C04000291E
:1033200004D0016841F00101016070470168CE4A94
:1033300011400160704710B5182440234FF0204120
:103340004FF0FC32102805D041F8804F4B608A6066
:10335000CA6010BD0C664B668A66CA6610BD30B581
:10336000D0E901121143D0E903231A431143426902
:1033700041EA4221826941EA423141F00804C169CF
:10338000D1E9002342EA03220B89097B1B0443EAAB
:1033900001610A43016AD1E9003543EA05230D8939
:1033A000097B2D0445EA01610B4301684FF0204081
:1033B000102904D040F8804F8260C36030BD04669D
:1033C0008266C36630BD10210160002141608160CA
:1033D000C160016141618161C269FC211160C26902
:1033E0005160C2699160C269D160026A1160026A6B
:1033F0005160026A9160006AC16070474FF02042DC
:1034000000290CD0102805D052F8800F40F004009D
:1034100010607047106E40F00400106670479249CB
:10342000C91E102804D052F8800F08401060704761
:10343000106E0840106670474FF0204200290CD0F3
:10344000102805D052F8800F40F0400010607047FF
:10345000106E40F040001066704783493F391028D5
:1034600004D052F8800F084010607047106E08407A
:10347000106670474FF02041102802D0D1F8940018
:103480007047486F704779481821016000214160FA
:103490004FF0FC318160C1600161704710B5D0E927
:1034A000001241EA42218268102343EA423211436A
:1034B0006E4A1160C168D1E9003443EA04230C89E3
:1034C000097B240444EA01610B4393600169D1E95B
:1034D000003443EA04230C89097B240444EA016193
:1034E0000B43D3604069D0E9001341EA032103890B
:1034F000007B1B0443EA00600143116110BD002101
:10350000016041608160C268FC211160C268516045
:10351000C2689160C268D16002691160026951603D
:10352000026991600269D16042691160426951602B
:10353000426991604069C16070474FF020410028A6
:1035400005D051F8A00F40F004000860704751F812
:10355000A00F454AD21E10400860704710B54FF4C6
:1035600080744FF02043002A11D0102806D0A042CA
:1035700008D153F8840F0843186010BD586E0843F3
:10358000586610BD53F8A40F0843186010BD1028EA
:1035900006D0A04208D153F8840F8843186010BDAC
:1035A000586E8843586610BD53F8A40F88431860BE
:1035B00010BD034600204FF02042102B08D0B3F579
:1035C000807F07D0D2F8A4200A4200D001207047A3
:1035D000526EF9E7D2F88420F6E74FF02042102827
:1035E00007D0B0F5807F08D052F8A40F8843106050
:1035F0007047506E88435066704752F8840F884376
:1036000010607047034600204FF02042102B0ED070
:10361000B3F5807F0DD0D2F8A42002EA010302EABC
:10362000D101002B02D0002900D001207047526E3A
:10363000F3E7D2F88420F0E74FF02042102808D0BA
:10364000B0F5807F0AD052F8A40F20EAD1001060B4
:103650007047506E20EAD1005066704752F8840FD0
:1036600020EAD10010607047FEFF0F00A00000A00C
:1036700010B57F49884209D10121084600F077FA48
:103680000021BDE81040012000F071BA794988425C
:1036900009D10121022000F06AFA0021BDE81040A2
:1036A000022000F064BA7449884209D10121042043
:1036B00000F05DFA0021BDE81040042000F057BA88
:1036C0006E49884209D10121082000F050FA0021FA
:1036D000BDE81040082000F04ABA6949884209D183
:1036E0000121102000F043FA0021BDE81040102015
:1036F00000F03DBA6349884209D10121202000F041
:1037000036FA0021BDE81040202000F030BA5E49B2
:10371000884209D10121402000F029FA0021BDE8AA
:103720001040402000F023BA5849884209D10121B5
:10373000802000F01CFA0021BDE81040802000F03D
:1037400016BA534988420AD184150121204600F057
:103750000EFA2046BDE81040002100F008BA10BD66
:103760002DE9F041002201274FF0030C07FA02F582
:103770000B682B40AB422CD1066853000CFA03F4C3
:10378000A64306600E79D0F800809E4046EA0806FF
:1037900006600E79012E01D0022E12D18668A64352
:1037A00086604E79D0F808809E4046EA080686601A
:1037B0004668AE43466045688E799640B6B235435A
:1037C0004560C568A543C560CC799C40C3681C436F
:1037D000C460521C102AC9D3BDE8F0814FF6FF71B6
:1037E00001600021017141718171C171704708B59B
:1037F00041F480320092009AC261C1610099C161B6
:10380000C169C069009008BD0246002012690A42E1
:1038100000D001207047006980B270470246002046
:1038200052690A4200D001207047406980B2704757
:103830000183704741837047002A01D0018370479C
:10384000418370474161704742694A404261704715
:1038500010B54B07DB0E9A40C90800EB8100016AE6
:103860000F249C40A1430162016A1143016210BD13
:10387000000002400004024000080240000C024028
:10388000001002400014024000180240001C0240D8
:1038900000200240F848016841F001010160F64A49
:1038A0000021083211600268F44B1A400260031DC7
:1038B000F34A1A60026822F480220260EE480C305B
:1038C00001607047EC490022891C0A70087070473B
:1038D00002460020510901290CD002290DD0E649E9
:1038E0007431096802F01F02012393400B4200D09B
:1038F00001207047E0490968F4E7DF497031096841
:10390000F0E718B5002000904FF4A0443120FFF7F5
:10391000DFFF0099491C00910099A14201D00028C5
:10392000F4D03120FFF7D4FF08B1012018BD0020EA
:1039300018BDD14A116821F0F80141EAC0001060B9
:103940007047D04908607047CB49002270310A7037
:103950000A70012804D0042801D10520087070479E
:10396000012008707047C8490860704710B5029C74
:1039700041EA82114FF0FF3202EB530241EA024169
:10398000014341EA0460BC49091D086010BDBD49FE
:1039900008667047800140EA0170B74984310860C9
:1039A0007047B84988667047B649C8647047B24BDB
:1039B00008331A6822F0EC6208431043186070471D
:1039C000AD4B08331A6822F0784208431043186060
:1039D0007047A94A0832116821F0030101431160C0
:1039E0007047A5480830006800F00C007047A24AF4
:1039F0000832116821F0F0010143116070479E4ABE
:103A00000832116821F4E0510143116070479A4A6D
:103A10000832116821F4604141EAC000106070472B
:103A200070B5954B0833196801F00C01974C0029CB
:103A30001ED0661004291DD008291DD00460196805
:103A400001F0F0010909924A545C0168E1404160CB
:103A50001C6804F4E054A40A145D21FA04F48460A0
:103A60001B6803F460435B0BD25CD140C16070BD46
:103A70000460E4E70660E2E77F4A121D1168C1F3C3
:103A80008055116801F03F0135B1B6FBF1F11468C2
:103A9000C4F38814614305E0B4FBF1F11468C4F386
:103AA000881461431268C2F30142521C5200B1FBF8
:103AB000F2F10160C3E7C0F30121032908D16E4B85
:103AC0000833196821F4F812724901401143196052
:103AD000694A70321168C0F30B00014311607047EE
:103AE0006949443908607047674940390860704740
:103AF000694908607047604A3032002903D0116874
:103B000001431160704711688143116070475A4A40
:103B10003432002903D011680143116070471168E5
:103B2000814311607047544A3832002903D011682C
:103B300001431160704711688143116070474E4A1C
:103B40004032002903D011680143116070471168A9
:103B5000814311607047484A4432002903D01168FC
:103B60000143116070471168814311607047424AF8
:103B70001032002903D011680143116070471168A9
:103B80008143116070473C4A1432002903D0116808
:103B90000143116070471168814311607047364AD4
:103BA0001832002903D01168014311607047116871
:103BB000814311607047304A2032002903D01168D8
:103BC00001431160704711688143116070472A4AB0
:103BD0002432002903D01168014311607047116835
:103BE000814311607047244A5032002903D0116884
:103BF00001431160704711688143116070471E4A8C
:103C00005432002903D011680143116070471168D4
:103C1000814311607047184A5832002903D0116857
:103C20000143116070471168814311607047124A67
:103C30006032002903D01168014311607047116898
:103C40008143116070470C4A6432002903D0116827
:103C50000143116070471168814311607047064A43
:103C60000D32002903D0117801431170704711788B
:103C7000814311707047000000380240FFFFF6FEDC
:103C80001030002400004742800E47420024F40018
:103C90009C000020FFFCFF0F5C01474209480168BF
:103CA00041F080710160E5E701460020054A683A6D
:103CB00012680A42DED00120DCE70249663908704A
:103CC000D8E700007438024010B50121CC0220462C
:103CD000FFF77DFF2046BDE810400021FFF777BFCA
:103CE00030B5644B196847F6FF629143027D8468E2
:103CF000C568224344682C43224304680069224378
:103D000002430A431A6030BD002101750160416021
:103D10008160C1600161704757490860704755492B
:103D2000091F086070475348001F006800F0030037
:103D3000704710B54F4A0168121D1160141D2168AB
:103D40006FF30A01D0E901231A43D0E9033003439A
:103D50001A430A43226010BD002101604160816066
:103D6000C1600161704743480C300068C0B27047C1
:103D700008B540491031084400900098006808BD1B
:103D800010B53C4A016820321160121D4168116073
:103D9000141D216821F0F701D0E902231A43D0E96C
:103DA000043003431A430A43226010BD4FF0FF3131
:103DB0000160002141608160C16001614161704723
:103DC0002C482C30006870472A487C3000687047C7
:103DD00028497C31086070472648443000687047A5
:103DE0002649086070472549091D08607047234926
:103DF00008310860704721490C310860704720493C
:103E0000086070471E49091D086070470121814301
:103E10001B4808300160704719490C310860704731
:103E20001649143908607047124A3832002903D005
:103E30001168014311607047116881431160704738
:103E4000014600200B4A303212680A4200D001209D
:103E50007047084934310860704701460020054A20
:103E6000303212680A4200D00120704701493431D3
:103E700008607047042C0140A0802542A08525429F
:103E8000AC81254210B501218C032046FFF79FFE2F
:103E90002046BDE810400021FFF799BE1149086097
:103EA000704710B58A07120F0F23934021F00304C7
:103EB0000D49214401F608010C689C430C600B6815
:103EC000904003430B6010BD0849086070470849E3
:103ED000086070470020034920310968C90500D5F2
:103EE000012070470038014000300140DC002742CB
:103EF0000004274201B581B00198009002E00098CB
:103F0000401E009000980028F9D10CBD10B5012189
:103F10004C062046FFF72BFE2046BDE8104000214E
:103F2000FFF725BE01210160002141608160C16071
:103F300001614FF4804242618161C161D21002622D
:103F400041628162C162016341638163C163402256
:103F50000264202242648164C16401654165816517
:103F6000C1650166802242668166C166016741675C
:103F70008167C167D204C0F880205210C0F8842045
:103F8000C0F888101311C0F88C30C0F89010C0F839
:103F90009410C0F89810C0F89C10C0F8A010C0F899
:103FA000A4205212C0F8A8209201C0F8AC205212EE
:103FB000C0F8B020C0F8B410C0F8B810704738B5D9
:103FC00000230093FB4B1C6904F01C054FF6FF74A3
:103FD00004EAC0242C434FF4F86000EA8110204327
:103FE00040F0020040F001005A611861F249009867
:103FF000401C00901869C00702D000988842F6D390
:104000000098884201D1002038BD012038BD18B584
:1040100000220092E74A136903F01C044FF6FF7375
:1040200003EAC02323434FF4F86000EA81101843E9
:1040300020F0020040F001001061DF490098401CB0
:1040400000901069C00702D000988842F6D300980B
:10405000884201D1002018BD506980B218BD2DE9F9
:10406000F04186B004468846002705970097D14E58
:10407000306920F01C0501A8FFF7D2FC0298CF4957
:10408000CF4A0144914202D245F0080516E0CD49DD
:10409000CD4A0144914202D245F00C050EE0CB49D5
:1040A000CB4A0144914209D3CA490844CA498842CB
:1040B00002D245F0040501E045F0100535614FF4EA
:1040C000004200214046FFF77AFFC0B1C348FFF726
:1040D00011FF206880B3B84D0098401C009001216A
:1040E0004046FFF794FF400702D40098A842F3D35C
:1040F0000098A84205D1002006B0BDE8F08100205C
:10410000FAE700974FF4805200214046FFF757FF2F
:1041100008B90020F0E70098401C009001214046BB
:10412000FFF775FF800602D40098A842F3D30098E9
:10413000A84202D10020DFE71DE000971F21404682
:10414000FFF765FF00F01C00042811D04FF48042F7
:10415000082807D0D1100E2807D012281CD12162C0
:10416000626119E02762626116E02162676113E013
:104170002762676110E0206A0021C0F3CF02606906
:10418000C0F34F0002434046FFF719FF00287CD0E0
:104190006FF07F40FFF7AEFE306891490840D4E9E8
:1041A00001121143E26854F8103F1A431143626848
:1041B0001143A2681143E268114322691143626905
:1041C0001143A2691143E2691143226A1143626AF1
:1041D000143411430143316054F8140F61680843EB
:1041E000D4E9021211430843216908436169084375
:1041F000A1690843E16908437060206AB060606AA1
:10420000F060B0694FF641710840D4E90B121143D8
:10421000238D626B42EA03421143A26B1143E26BAE
:1042200011430143B161D4E910010843F0616D48C5
:1042300081696D4A1140D4E912231A43D4E9143537
:104240002B431A43A36D1A43E36D1A43236E1A439B
:10425000636E1A43A36E1A430A438261D4E91B12A8
:104260001143626F54F8783F1A431143626841EA80
:104270008201A268114341F400010160016841F02C
:1042800080010160012037E7FFE7002034E755494E
:10429000002804D0886940F002008861704788696E
:1042A00020F00200886170474E49002804D08869D8
:1042B00040F4005088617047886920F4005088619C
:1042C00070473C49002804D0086840F004000860AA
:1042D0007047086820F00400086070474148816911
:1042E00041F48011816170473249002804D0086888
:1042F00040F0080008607047086820F00800086077
:10430000704700B50120FFF7EFFFFFF7E7FF01203F
:10431000FFF7D7FF0120FFF7C7FF01205DF804EB8F
:10432000B5E7002023498969C90700D001207047FB
:104330002048816941F00101816170471D490028D1
:1043400004D0886940F0010088617047886920F0D6
:1043500001008861704701460020164A926B0A42AC
:1043600000D00120704701460020124A926B0A4299
:1043700000D0012070470F4A002903D0D16B814340
:10438000D1637047D16B0143D16370470A794B7990
:1043900042EA0322074B184402640A78CB7842EAC7
:1043A00003628B7849781B0443EA01210A43426483
:1043B0007047000000800240FFFF040000D3CEFEE3
:1043C000C0E1E40040F1E9FD40787D0100796CFC3A
:1043D000005A6202001F0AFA80F0FA02FFFF0F0083
:1043E0000F8120FF00900240233FDEF8F94A02448B
:1043F000106C030A4B710871506C020ECA70020CEB
:104400008A70020A4A700870D2E7F24A0029104402
:1044100004D0016C41F000410164C9E7016C21F056
:1044200000410164C4E7EB4A0829104404D0016C40
:1044300041F080410164BBE7016C21F080410164DF
:10444000B6E7E44A1044026C22F07C520264026C2B
:104450000A430264ACE71EB5002101910291DE4BD4
:1044600059680A68C2F30D42121F00929A68946854
:10447000012C03D912689268019201E08A680192C6
:104480000291C96859609DE80E000EC01EBD1FB59F
:1044900000210191029103910091CF4B99681AE09C
:1044A000009C641C00941468A40509D51468E405F4
:1044B00006D40A6001228A605A68D2685A600AE00B
:1044C0001468E40512D41468A4050FD48C68641C25
:1044D0008C60D2685A605A681468002C02DB009C19
:1044E000052CDDD301A90EC90EC01FBD5C684C6050
:1044F0008C68641C8C608C68012C00D10A605A683E
:104500001468C4F30D44241F01948C68012C03D952
:1045100009688968029101E0916802910392D1686B
:10452000596001A90EC90EC01FBDF0B50023AA4DE8
:1045300029680A68002A01DA0020F0BD40F2F4562A
:10454000B04208D9B0FBF6F2B0FBF6F406FB140457
:1045500014B1521C00E00122012A2CD10A6842F059
:1045600040520A60C0F30C004860086840F0004008
:104570000860C868286021E023B92C68276847F0E4
:10458000805727604E60541EA3420ED10C6844F041
:1045900000540C60C2F10104C4EBC41404EB4404E5
:1045A00000EB8404C4F30C044C600C6844F0004439
:1045B0000C60C9685B1C9342DED32960874841695F
:1045C000490703D504214161002141600120F0BD6C
:1045D0002DE9F0410023804F78604FF0004C44F209
:1045E000F458561E14E000EB4314C4F800C0C4F89D
:1045F0000480C3EBC31505EB450501EB8505A560FC
:10460000B34203D204F12005E56000E0E0605B1CEA
:104610009342E8D37149C8607148B8606DE56E4A4D
:10462000506803681146002B896808DB0368DB05C6
:1046300005D548608868401C88600120B8E603689A
:10464000002B0EDB03689B050BD50368DB0508D444
:10465000086000204860012088605068C068506091
:104660000DE00368002B0ADB03689B0507D4036891
:10467000DB0504D48B685B1C8B60C0685060002035
:1046800096E6F0B50023544C20604FF48017561E78
:1046900011E000EB43142760C3EBC31505EB4505A0
:1046A00001EB8505A560B34203D204F12005E56066
:1046B00000E0E0605B1C9342EBD348490861F0BD29
:1046C0000246002012680A4200D0012070E600680D
:1046D000C0F3C3006CE6016841F00041016067E689
:1046E000002904D0016841F08041016060E6016862
:1046F00021F0804101605BE602680A43026057E6F0
:1047000002680A43026053E6002904D0016821F0E0
:10471000006101604CE6016841F00061016047E61C
:10472000002904D0016841F48011016040E601686D
:1047300021F4801101603BE6002904D0016821F0DA
:104740008061016034E6016841F0806101602FE61C
:10475000436841EA02410B43436029E602460020D8
:1047600012680A4200D0012022E6024600201269A7
:104770000A4200D001201BE6016841F000410160BF
:1047800016E60068C0F30D4012E64268002903D027
:1047900022F0004141600BE642F00041416007E633
:1047A0004068002902D0C0F30C4001E6C0F30C00C1
:1047B000FEE500B500210268002A08DB0268120449
:1047C00005D40268D20502D5FFF7DBFF0146084693
:1047D00000BD000000800240AC00002000900240BC
:1047E00050430020AC49002804D0086840F0800005
:1047F0000860DDE5086820F080000860D8E5A6487C
:10480000016841F001010160D2E50020A249096878
:10481000C90700D00120CBE5014600209E4A52691D
:104820000A4200D00120C3E59B494861C0E59A4A8D
:10483000002903D0D1690143D161B9E5D169814330
:10484000D161B5E501460020934A52690A4200D081
:104850000120ADE590494861AAE58F48406900F024
:104860000100A5E58C48406900F04000A0E500206B
:1048700089498969C90200D5012099E501460020CE
:10488000854A126A0A4200D0012091E58248006AF6
:10489000C0F34A408CE58048006A80B288E57E48D3
:1048A000806C85E57C48C06C82E57B48006D7FE5C7
:1048B0007948406D7CE578490020486078E5764984
:1048C0000020886074E57449486271E530B505469A
:1048D0000C4600212846FFF79AFB14B140F48042B1
:1048E00001E020F4804200212846FFF768FB08B170
:1048F000012030BD002030BD6848C16A41F0004150
:10490000C16255E50021654A50F821309362491C87
:104910000829F9D34CE56149002804D0C86A40F45D
:104920000070C86244E5C86A20F40070C8623FE5C0
:1049300001460020594AD26A0A4200D0012037E5D8
:104940005649002804D0C86A40F00400C8622FE528
:10495000C86A20F00400C8622AE55049002804D043
:10496000C86A40F00200C86222E5C86A20F002006E
:10497000C8621DE54949002804D0C86A40F001001A
:10498000C86215E5C86A20F00100C86210E5444815
:10499000016841F0300101600AE54148016821F0F9
:1049A00020010160016841F01001016000E53B4910
:1049B000002806D0D1F8000140F00800C1F800013D
:1049C000F6E4D1F8000120F00800C1F80001EFE49E
:1049D0003249002806D0D1F8000140F00400C1F8A7
:1049E0000001E5E4D1F8000120F00400C1F8000165
:1049F000DEE42A49002806D0D1F8000120F00200A8
:104A0000C1F80001D4E4D1F8000140F00200C1F87F
:104A10000001CDE42248016841F001010160C7E4D2
:104A20001E4AC3000ED520F0805029B1D2F80C11D7
:104A30008143C2F80C11BBE4D2F80C110143C2F857
:104A40000C11B5E429B1D2F810118143C2F810114C
:104A5000AEE4D2F810110143C2F81011A8E400210D
:104A60000E4AC30009D5D2F8043103420ED0D2F861
:104A70000C2102420AD1012108E0D2F80831034298
:104A800004D0D2F80C21024200D1012108468FE463
:104A9000024940588CE4000000900240008002402F
:104AA0000081024070B50446062004F82A0F022057
:104AB00060700020A070E07020716071A0712A3CCD
:104AC00004F12B01FFF762FC40F2DC50208532201C
:104AD00084F83100052249494948FFF7D2FD0522F3
:104AE00048494948FFF774FD0024454D4FF44006FE
:104AF00005EB44103146FFF703FE641C052CF7DB81
:104B0000BDE87040FFF7FDBB70B50C4600253F487F
:104B10000068866807E062897019616805F0FCF931
:104B2000608905442468002CF5D1A8B2FFF7FDFC8C
:104B3000002070BDF0B587B0002501A8FFF78BFC01
:104B400001A804AB07C807C3049881B2059F0322DC
:104B5000104601F0D0F9064630000BD0344607E08D
:104B600062897919606805F0D7F96089054424687D
:104B7000002CF5D1264A10688168012901D9006806
:104B800000E0069800214FF0004302E00360C06897
:104B9000491C1468A4688C42F8D810680021816010
:104BA0001C484269120602D580224261816007B02A
:104BB0003046F0BD70B505462846FFF7BBFF0446FA
:104BC00054B12A69294620469047054615B120462A
:104BD00001F068F9284670BD4FF0FF3070BD10B588
:104BE000732180F83210742180F833100A49416132
:104BF0000A498161FFF756FF002010BD8C25002077
:104C000028070020C807002088060020AC000020EC
:104C1000B400002000900240DF9D0008094B00080E
:104C200010B5002809D0046A002C06D0606908B1CC
:104C300001F038F900206061A06110BD002812D099
:104C4000818BFF234A1C82838269F03153540023F5
:104C500004E04A1C82838269F0315354818B4429D9
:104C6000F7D38A07F5D17047828B531C8383806901
:104C7000F0328154704710B5838B5C1C8483846947
:104C8000F033E154818B4B1C83838069F0314254B3
:104C900010BD10B5828B0C0A531C83838369F032DC
:104CA0009C54828B531C83838069F032815410BDE5
:104CB00070B50546002D0DD02C6A74B100224FF45A
:104CC0009A71104601F017F9606148B1E27CF94928
:104CD0004AB10BE06FF0090070BD6FF0080070BDC5
:104CE0004FF0FF3070BD0A68521C0A6009682160ED
:104CF0004068A06101210170A0694170A16906208E
:104D00008870A0690026C670206803F0DFFFA169E3
:104D10004860A0690681A0694681A069C660A07C40
:104D20000A2803D0052801D0042802D1A1696868A7
:104D3000C860A0690661A0694661A069866100211A
:104D400095F82A00884203D9681890F82B0000E0F3
:104D50000020A36901F11C029854491C89B2102952
:104D6000EED30020A26900F12C015654401C80B201
:104D70004028F7D30020A26900F16C015654401C72
:104D800080B28028F7D3CC4803F0A0FFA169C1F816
:104D9000EC00A6830020A26900F1F0015054401CF1
:104DA00080B24428F7D3002070BD827C8A4202D0B2
:104DB00081740021C1747047F8B505462C6ABF485C
:104DC0000068A06206212046FFF7EFFF2846FFF7A4
:104DD0006FFF0646300039D1012235212046FFF70A
:104DE0004AFF01212046FFF73FFF022239212046DA
:104DF000FFF741FF298D2046FFF74BFF04223721A3
:104E00002046FFF738FF01212046FFF72DFF032141
:104E10002046FFF729FF1C212046FFF725FF06212A
:104E20002046FFF721FF2046FFF708FFA08BF03058
:104E300081B2606901F0F4F800954323A04A6169EA
:104E4000606803F004FC2846FFF7EAFEE07C401CA3
:104E5000C1B2E174062902D20120884000E03C2062
:104E600000EB4001C1EBC0104FF6FF7101EAC0003A
:104E700000F2F3104FF4FA71B0FBF1F0E08330462A
:104E8000F8BD70B50446256A204600F0F7FF8B494F
:104E9000204600F047FF8949204600F035FF87494A
:104EA000204600F038FF0C212846FFF77EFF204601
:104EB000BDE8704080E770B505462C6A08212046A1
:104EC000FFF773FF002204F12801284604F0FCFEDE
:104ED000E07C401CE0744FF4FA7040F2E731B1FB23
:104EE000F0F0E08370BD10B5828B0C0E531C8383F1
:104EF0008369F0329C54828B0C0C531C838383692E
:104F0000F0329C54828B0C0A531C83838369F032E9
:104F10009C54828B531C83838069F032815410BD72
:104F2000F8B505462C6A01212046FFF73EFF2846CA
:104F3000FFF7BEFE0646300051D101223521204642
:104F4000FFF799FE03212046FFF78EFE022239214A
:104F50002046FFF790FE298D2046FFF79AFE042297
:104F600032212046FFF787FEA06A03F083FF014647
:104F70002046FFF7B8FF042236212046FFF77BFECC
:104F8000606A03F077FF01462046FFF7ACFF04227A
:104F900037212046FFF76FFE01212046FFF764FE10
:104FA00003212046FFF760FE1C212046FFF75CFE30
:104FB00006212046FFF758FE2046FFF73FFEA08B54
:104FC000F03081B2606901F02BF8009543233C4A30
:104FD0006169606803F03BFB2846FFF721FEE07C37
:104FE000401CC1B2E174062902D20120884000E0D1
:104FF0003C2000EB4001C1EBC0104FF6FF7101EA0D
:10500000C00000F2F3104FF4FA71B0FBF1F0E0834E
:105010003046F8BD01780906427841EA02418278BB
:1050200041EA0221C0780843704770B50024C36884
:10503000002B3CD0068A76B3002211E0342D03D039
:105040008D4207D1981870BD921C94B2621C92B226
:105050001C5D05E0521C92B29D5C521C2A4492B227
:10506000964202D99D5CFF2DE8D1A4B1012C06D057
:10507000022C08D082682C32C024002012E0826802
:105080006C328024F9E782682C324024F5E78B42A9
:1050900002D1104470BD0AE0401C80B2135C401C79
:1050A000184480B2A04202D2135CFF2BEFD1002043
:1050B000F0E70000B80000206353826378810108A4
:1050C0007C81010870B505462C6A36212046FFF721
:1050D000ACFF0028DED0801CFFF79CFF03F0F6FD3C
:1050E0006062A06810F1100F05D00069A062284628
:1050F000BDE8704014E70020F8E7CBE7F8B50546B7
:105100002C6A05212046FFF750FE2846FFF7D0FD08
:105110000646300025D1012235212046FFF7ABFDA0
:1051200003212046FFF7A0FD022239212046FFF788
:10513000A2FD298D2046FFF7ACFD2046FFF77EFD3E
:10514000A08BF03081B2606900F06AFF00954323C4
:1051500004F124026169606803F079FA2846FFF7D8
:105160005FFDE07C401CC0B2E0740A2803D24FF41B
:10517000FA61484301E044F6206080B200F2F31087
:105180004FF4FA71B0FBF1F0E0833046F8BD016AEC
:10519000897C012903D00A2901D0052900D1ADE776
:1051A0007047F8B505462C6A04212046FFF7FDFD3F
:1051B0002846FFF77DFD0646300024D10122352127
:1051C0002046FFF758FD03212046FFF74DFD022240
:1051D00039212046FFF74FFD298D2046FFF759FD65
:1051E0002046FFF72BFDA08BF03081B2606900F004
:1051F00017FF00954323F94A6169606803F027FAB5
:105200002846FFF70DFDE07C401CC0B2E0740A2880
:1052100003D24FF47A71484301E042F2107080B239
:1052200000F2F3104FF4FA71B0FBF1F0E083304676
:10523000F8BD016A897C012903D00A2901D005291A
:1052400000D1AEE7704710B5E548046815E0206A64
:1052500090B1418C4A1E4284012906D0216A088CF3
:10526000421E0A84012804D006E02046FFF7E1FF31
:1052700002E02046FFF78BFF2468002CE7D110BD29
:10528000F8B50646346A03212046FFF78EFD304606
:10529000FFF70EFD0546280031D1012235212046B9
:1052A000FFF7E9FC03212046FFF7DEFC022239214B
:1052B0002046FFF7E0FC4FF410712046FFF7E9FCB1
:1052C000042232212046FFF7D6FCA06A03F0D2FD6B
:1052D00001462046FFF707FE2046FFF7AFFCA08BF4
:1052E000F03081B2606900F09BFE00964323BB4A18
:1052F0006169606803F0ABF93046FFF791FCE07C30
:10530000401CC0B2E0740A2803D24FF47A714843BB
:1053100001E042F2107080B200F2F3104FF4FA7123
:10532000B0FBF1F0E0832846F8BDF8B505462C6ADD
:105330000D212046FFF739FD00206062E062A06287
:1053400060632063E064A0646064A0632846FFF7A4
:10535000AFFC064630001CD1012235212046FFF764
:105360008AFC07212046FFF77FFC2046FFF766FCFA
:10537000A08BF03081B2606900F052FE00954323AB
:1053800004F124026169606803F061F92846FFF7BF
:1053900047FCE07C401CC0B2E0740A2803D24FF402
:1053A0007A71484301E042F2107080B200F2F310CB
:1053B0004FF4FA71B0FBF1F0E083284600F05EFD97
:1053C0008849284600F0AEFC8649284600F09CFC3F
:1053D0008449284600F09FFC3046F8BD2DE9FC4189
:1053E0000546002D6BD02C6A002C68D0A06C4FF0C5
:1053F0003C01471C4FF480364FF6FF734FF001021B
:1054000009D01E30B0FBF1F0B04200D3184680B294
:10541000208400B92284E06C471C09D01E30B0FB08
:10542000F1F1B14200D3194688B2608400B96284B8
:1054300014F12C0F03D0E06A019010B118E00020A5
:10544000FAE703F017FD000E7F2805D84FF07F40E4
:1054500003F03CFC01900BE0C02805D36FF0FF0087
:1054600003F034FC019003E05F4803F02FFC01904F
:1054700014F1300F03D0206B009010B10BE000202E
:10548000FAE7A06A019908400090012003F01EFC91
:1054900000990843009004F12801284600F042FCDE
:1054A00001A9284600F037FC6946284600F02CFC8C
:1054B000284600F0D5FC0A212046FFF776FCBDE81F
:1054C000FC8110B50446226A917C0C2912D0062971
:1054D00010D0012912D008291ED0052927D004296F
:1054E00029D0032939D1D07C022832D22046BDE808
:1054F0001040C5E62046BDE810405DE4D07C05289C
:1055000003D82046BDE810400AE52046FFF70DFF0E
:105510002046BDE810404FE4D07C012803D8204647
:10552000BDE81040C7E42046BDE8104056E72046DD
:10553000BDE81040E2E5D07C082803D82046BDE84D
:1055400010402EE62046FFF7F0FE2046BDE8104052
:1055500032E42046BDE810402EE410BD70B520486E
:10556000046800250EE0206A58B1C18B012903D9D7
:10557000A1F10101C18304E003D1C5832046FFF7F7
:10558000A0FF2468002CEED184E50078704770B548
:10559000046A0020E0622063606333212046FFF745
:1055A00044FD18B1801CFFF735FD60643A212046A8
:1055B000FFF73BFD20B1801CFFF72CFDA06402E04B
:1055C000606C4008A0643B212046FFF72EFD68B1C7
:1055D000801CFFF71FFDE0640AE000007C810108E9
:1055E000D0000020788101080000FFFF606CE064BB
:1055F000A06810F1100F34D00069A062012120468C
:10560000FFF713FD28B1801CFFF704FD03F05EFBDC
:10561000E06203212046FFF708FD28B1801CFFF758
:10562000F9FC03F053FB20631C212046FFF7FDFC2F
:1056300028B1801CFFF7EEFC03F048FB60630621F5
:105640002046FFF7F2FC064630001BD0701CFFF727
:105650009CFF8008A063022801D90220A0630025D6
:105660000DE00020C9E706EB8500801CFFF7D2FCA7
:1056700003F02CFB04EB8501C8636D1CEDB2A06B3D
:10568000A842F0D806E570B50446256A002C11D072
:1056900094F8310020F0080084F83100002D09D082
:1056A0006868002610B103F076F86E60284600F0B6
:1056B00006FA2662EEE470B504460025A0680028CC
:1056C00002D000F0FCF9A560E068002803D000F0EB
:1056D000F6F9E5602582DDE42DE9F04104460E4649
:1056E000002C23D02046FFF7E6FF308900256F1EEF
:1056F000F02806D9F03880B2208200F055FAE06038
:10570000B8B1F02000F050FAA060A8B10146002323
:10571000F022304600F06BFDE16821B1228AF023CF
:10572000304600F064FD0020BDE8F0816FF0090014
:10573000FAE725823846F7E7E06818B100F0BFF9CC
:10574000E56025823846EFE72DE9F041054616462B
:105750002C6A736870892C2859D31878022856D17E
:10576000002095F82A1008E02A181F1892F82B201C
:105770003F7FBA424BD1401CC0B28142F4D8586836
:1057800003F078FB2168884241D131462046FFF77B
:10579000A3FF18BB35212046FFF747FCF0B1801C62
:1057A000FFF7F3FE0027052802D0062817D01FE0D8
:1057B000A07C012806D003280CD004280AD0052894
:1057C00008D024E02846FFF7E2FEE7832846FFF7EB
:1057D00072FB1CE0E7832846FFF700FE17E0A37C7E
:1057E000032B08D0012B06D0042B04D0052B02D0AC
:1057F000022805D00BE0E7832846FFF742FB06E0CE
:10580000A07C062803D1E7832846FFF75BFC2046EF
:10581000FFF751FF3046BDE8F04100F043BB70B5E3
:105820000446002C0ED0256A94F8310020F00800C0
:1058300084F83100208D4FF0FF36B0F5107F04D290
:10584000304627E46FF0090024E415B3686808B116
:1058500002F0A1FF5021284604F077FB02F0AFFFD1
:10586000686000B34422744902F0C2FE43227249C8
:10587000686802F05EFF22467049686802F088FF9F
:105880002046FFF799FAA8B12046FFF7FCFE304604
:105890000EE4502000F088F90546280001D025626A
:1058A000D8E7304604E4284600F009F900202062D9
:1058B000304622E414F8311F41F0080121701CE445
:1058C000F8B50546502000F06FF90446200041D09D
:1058D000502104F03AFB02F072FF6060A8B32E6A18
:1058E0002C622846FFF7E4F948BB01223521204607
:1058F000FFF7C1F908212046FFF7B6F90222392146
:105900002046FFF7B8F9298D2046FFF7C2F9204657
:10591000FFF794F9A08BF03081B2606900F080FB52
:1059200044224549606802F063FE00954323444ADF
:105930006169606802F08BFE2846FFF771F96068C4
:1059400002F029FF002060602E622046BDE8F8408A
:1059500000F0B5B8F8BD70B505462C6A002C1BD018
:10596000A17C002605290FD004DC03290CD00429D2
:1059700004D109E00A2907D00D290DD0E674284684
:10598000BDE87040FFF718BA284600F077FAE674D1
:105990002846BDE8704073E4F6E5F8B505462C6A84
:1059A0000C212046FFF701FA2846FFF781F9064649
:1059B000300027D1012235212046FFF75CF9042170
:1059C0002046FFF751F9042232212046FFF753F910
:1059D000A06A03F04FFA01462046FFF784FA2046FA
:1059E000FFF72CF9A08BF03081B2606900F018FB52
:1059F00000954323124A6169606802F028FE284638
:105A0000FFF70EF9E07C401CE07442F603104FF4FF
:105A1000FA71B0FBF1F0E0833046F8BD00280AD0FF
:105A2000026A002A07D0937C082B04D10968926A85
:105A3000914200D1B1E770477881010849570008C9
:105A40007C81010830B58C4C018862681144931C3C
:105A500088420DD00D795DB9A568A94208D0E568E6
:105A60008D4200D1E0600D8805800988851ACD52ED
:105A70004188114481420BD00D79002D08D1E56891
:105A8000854200D1E16004880C800088891AC152E7
:105A900030BD10B57948784A20F0030050604FF4CB
:105AA0002053038000214180017100F52051916055
:105AB00001240C710B804B801470D06010BD002845
:105AC0000ED06D494A6890420AD38A68904207D244
:105AD000083800220271CA68904200D2C860B1E75B
